{"abi":[{"inputs":[{"internalType":"string","name":"name","type":"string"}],"name":"create_doctor","outputs":[],"stateMutability":"nonpayable","type":"function"},{"inputs":[{"internalType":"string","name":"file_hash","type":"string"},{"internalType":"string","name":"des","type":"string"},{"internalType":"string","name":"file_name","type":"string"}],"name":"create_file","outputs":[],"stateMutability":"nonpayable","type":"function"},{"inputs":[{"internalType":"string","name":"name","type":"string"}],"name":"create_patient","outputs":[],"stateMutability":"nonpayable","type":"function"},{"inputs":[{"internalType":"address","name":"doctor","type":"address"},{"internalType":"string","name":"file_hash","type":"string"}],"name":"denied_FileAccess","outputs":[],"stateMutability":"nonpayable","type":"function"},{"inputs":[],"name":"getAccessFiles","outputs":[{"components":[{"internalType":"string","name":"File_id","type":"string"},{"internalType":"address","name":"Patient_id","type":"address"},{"internalType":"string","name":"File_name","type":"string"},{"internalType":"string","name":"Description","type":"string"}],"internalType":"struct ReMedi.File[]","name":"","type":"tuple[]"}],"stateMutability":"view","type":"function"},{"inputs":[],"name":"getDoctorInfo","outputs":[{"internalType":"address","name":"","type":"address"},{"internalType":"string","name":"","type":"string"}],"stateMutability":"view","type":"function"},{"inputs":[],"name":"getFiles","outputs":[{"components":[{"internalType":"string","name":"File_id","type":"string"},{"internalType":"address","name":"Patient_id","type":"address"},{"internalType":"string","name":"File_name","type":"string"},{"internalType":"string","name":"Description","type":"string"}],"internalType":"struct ReMedi.File[]","name":"","type":"tuple[]"}],"stateMutability":"view","type":"function"},{"inputs":[],"name":"getPatientInfo","outputs":[{"internalType":"address","name":"","type":"address"},{"internalType":"string","name":"","type":"string"},{"internalType":"address[]","name":"","type":"address[]"}],"stateMutability":"view","type":"function"},{"inputs":[{"internalType":"address","name":"doctor","type":"address"},{"internalType":"string","name":"file_hash","type":"string"}],"name":"grant_FileAccess","outputs":[],"stateMutability":"nonpayable","type":"function"}],"devdoc":{"kind":"dev","methods":{},"version":1},"evm":{"assembly":"    /* \"ReMedi\":72:6993  contract ReMedi {\r... */\n  mstore(0x40, 0x80)\n    /* \"ReMedi\":470:536  0xffffffffffffffffffffffffffffffffffffffffffffffffffffffffffffffff */\n  0xffffffffffffffffffffffffffffffffffffffffffffffffffffffffffffffff\n    /* \"ReMedi\":443:536  uint256 MAX_INT =\r... */\n  0x00\n  sstore\n    /* \"ReMedi\":72:6993  contract ReMedi {\r... */\n  callvalue\n  dup1\n  iszero\n  tag_1\n  jumpi\n  0x00\n  dup1\n  revert\ntag_1:\n  pop\n  dataSize(sub_0)\n  dup1\n  dataOffset(sub_0)\n  0x00\n  codecopy\n  0x00\n  return\nstop\n\nsub_0: assembly {\n        /* \"ReMedi\":72:6993  contract ReMedi {\r... */\n      mstore(0x40, 0x80)\n      callvalue\n      dup1\n      iszero\n      tag_1\n      jumpi\n      0x00\n      dup1\n      revert\n    tag_1:\n      pop\n      jumpi(tag_2, lt(calldatasize, 0x04))\n      shr(0xe0, calldataload(0x00))\n      dup1\n      0x8d0981c2\n      gt\n      tag_12\n      jumpi\n      dup1\n      0x8d0981c2\n      eq\n      tag_7\n      jumpi\n      dup1\n      0xab519d1f\n      eq\n      tag_8\n      jumpi\n      dup1\n      0xb380f5c6\n      eq\n      tag_9\n      jumpi\n      dup1\n      0xcf5ce494\n      eq\n      tag_10\n      jumpi\n      dup1\n      0xd1895035\n      eq\n      tag_11\n      jumpi\n      jump(tag_2)\n    tag_12:\n      dup1\n      0x2da96d73\n      eq\n      tag_3\n      jumpi\n      dup1\n      0x326df664\n      eq\n      tag_4\n      jumpi\n      dup1\n      0x32ec9375\n      eq\n      tag_5\n      jumpi\n      dup1\n      0x8be9312d\n      eq\n      tag_6\n      jumpi\n    tag_2:\n      0x00\n      dup1\n      revert\n        /* \"ReMedi\":1010:1189  function getFiles()\r... */\n    tag_3:\n      tag_13\n      tag_14\n      jump\t// in\n    tag_13:\n      mload(0x40)\n      tag_15\n      swap2\n      swap1\n      tag_16\n      jump\t// in\n    tag_15:\n      mload(0x40)\n      dup1\n      swap2\n      sub\n      swap1\n      return\n        /* \"ReMedi\":1317:1651  function getPatientInfo()\r... */\n    tag_4:\n      tag_17\n      tag_18\n      jump\t// in\n    tag_17:\n      mload(0x40)\n      tag_19\n      swap4\n      swap3\n      swap2\n      swap1\n      tag_20\n      jump\t// in\n    tag_19:\n      mload(0x40)\n      dup1\n      swap2\n      sub\n      swap1\n      return\n        /* \"ReMedi\":2317:2662  function create_doctor(string memory name) public {\r... */\n    tag_5:\n      tag_21\n      0x04\n      dup1\n      calldatasize\n      sub\n      dup2\n      add\n      swap1\n      tag_22\n      swap2\n      swap1\n      tag_23\n      jump\t// in\n    tag_22:\n      tag_24\n      jump\t// in\n    tag_21:\n      stop\n        /* \"ReMedi\":1197:1309  function getAccessFiles() public view returns (File[] memory) {\r... */\n    tag_6:\n      tag_25\n      tag_26\n      jump\t// in\n    tag_25:\n      mload(0x40)\n      tag_27\n      swap2\n      swap1\n      tag_16\n      jump\t// in\n    tag_27:\n      mload(0x40)\n      dup1\n      swap2\n      sub\n      swap1\n      return\n        /* \"ReMedi\":2670:3184  function create_file(\r... */\n    tag_7:\n      tag_28\n      0x04\n      dup1\n      calldatasize\n      sub\n      dup2\n      add\n      swap1\n      tag_29\n      swap2\n      swap1\n      tag_30\n      jump\t// in\n    tag_29:\n      tag_31\n      jump\t// in\n    tag_28:\n      stop\n        /* \"ReMedi\":1909:2309  function create_patient(string memory name) public {\r... */\n    tag_8:\n      tag_32\n      0x04\n      dup1\n      calldatasize\n      sub\n      dup2\n      add\n      swap1\n      tag_33\n      swap2\n      swap1\n      tag_23\n      jump\t// in\n    tag_33:\n      tag_34\n      jump\t// in\n    tag_32:\n      stop\n        /* \"ReMedi\":1659:1901  function getDoctorInfo()\r... */\n    tag_9:\n      tag_35\n      tag_36\n      jump\t// in\n    tag_35:\n      mload(0x40)\n      tag_37\n      swap3\n      swap2\n      swap1\n      tag_38\n      jump\t// in\n    tag_37:\n      mload(0x40)\n      dup1\n      swap2\n      sub\n      swap1\n      return\n        /* \"ReMedi\":4816:5965  function grant_FileAccess(address doctor, string memory file_hash)\r... */\n    tag_10:\n      tag_39\n      0x04\n      dup1\n      calldatasize\n      sub\n      dup2\n      add\n      swap1\n      tag_40\n      swap2\n      swap1\n      tag_41\n      jump\t// in\n    tag_40:\n      tag_42\n      jump\t// in\n    tag_39:\n      stop\n        /* \"ReMedi\":5973:6990  function denied_FileAccess(address doctor, string memory file_hash)\r... */\n    tag_11:\n      tag_43\n      0x04\n      dup1\n      calldatasize\n      sub\n      dup2\n      add\n      swap1\n      tag_44\n      swap2\n      swap1\n      tag_41\n      jump\t// in\n    tag_44:\n      tag_45\n      jump\t// in\n    tag_43:\n      stop\n        /* \"ReMedi\":1010:1189  function getFiles()\r... */\n    tag_14:\n        /* \"ReMedi\":1117:1130  File[] memory */\n      0x60\n        /* \"ReMedi\":1087:1097  msg.sender */\n      caller\n        /* \"ReMedi\":851:854  0x0 */\n      0x00\n        /* \"ReMedi\":815:855  patients[user].Patient_id > address(0x0) */\n      0xffffffffffffffffffffffffffffffffffffffff\n      and\n        /* \"ReMedi\":815:823  patients */\n      0x03\n        /* \"ReMedi\":815:829  patients[user] */\n      0x00\n        /* \"ReMedi\":824:828  user */\n      dup4\n        /* \"ReMedi\":815:829  patients[user] */\n      0xffffffffffffffffffffffffffffffffffffffff\n      and\n      0xffffffffffffffffffffffffffffffffffffffff\n      and\n      dup2\n      mstore\n      0x20\n      add\n      swap1\n      dup2\n      mstore\n      0x20\n      add\n      0x00\n      keccak256\n        /* \"ReMedi\":815:840  patients[user].Patient_id */\n      0x00\n      add\n      0x00\n      swap1\n      sload\n      swap1\n      0x0100\n      exp\n      swap1\n      div\n      0xffffffffffffffffffffffffffffffffffffffff\n      and\n        /* \"ReMedi\":815:855  patients[user].Patient_id > address(0x0) */\n      0xffffffffffffffffffffffffffffffffffffffff\n      and\n      gt\n        /* \"ReMedi\":807:856  require(patients[user].Patient_id > address(0x0)) */\n      tag_47\n      jumpi\n      0x00\n      dup1\n      revert\n    tag_47:\n        /* \"ReMedi\":1155:1169  patientToFiles */\n      0x01\n        /* \"ReMedi\":1155:1181  patientToFiles[msg.sender] */\n      0x00\n        /* \"ReMedi\":1170:1180  msg.sender */\n      caller\n        /* \"ReMedi\":1155:1181  patientToFiles[msg.sender] */\n      0xffffffffffffffffffffffffffffffffffffffff\n      and\n      0xffffffffffffffffffffffffffffffffffffffff\n      and\n      dup2\n      mstore\n      0x20\n      add\n      swap1\n      dup2\n      mstore\n      0x20\n      add\n      0x00\n      keccak256\n        /* \"ReMedi\":1148:1181  return patientToFiles[msg.sender] */\n      dup1\n      sload\n      dup1\n      0x20\n      mul\n      0x20\n      add\n      mload(0x40)\n      swap1\n      dup2\n      add\n      0x40\n      mstore\n      dup1\n      swap3\n      swap2\n      swap1\n      dup2\n      dup2\n      mstore\n      0x20\n      add\n      0x00\n      swap1\n    tag_49:\n      dup3\n      dup3\n      lt\n      iszero\n      tag_50\n      jumpi\n      dup4\n      dup3\n      swap1\n      0x00\n      mstore\n      keccak256(0x00, 0x20)\n      swap1\n      0x04\n      mul\n      add\n      mload(0x40)\n      dup1\n      0x80\n      add\n      0x40\n      mstore\n      swap1\n      dup2\n      0x00\n      dup3\n      add\n      dup1\n      sload\n      tag_52\n      swap1\n      tag_53\n      jump\t// in\n    tag_52:\n      dup1\n      0x1f\n      add\n      0x20\n      dup1\n      swap2\n      div\n      mul\n      0x20\n      add\n      mload(0x40)\n      swap1\n      dup2\n      add\n      0x40\n      mstore\n      dup1\n      swap3\n      swap2\n      swap1\n      dup2\n      dup2\n      mstore\n      0x20\n      add\n      dup3\n      dup1\n      sload\n      tag_54\n      swap1\n      tag_53\n      jump\t// in\n    tag_54:\n      dup1\n      iszero\n      tag_55\n      jumpi\n      dup1\n      0x1f\n      lt\n      tag_56\n      jumpi\n      0x0100\n      dup1\n      dup4\n      sload\n      div\n      mul\n      dup4\n      mstore\n      swap2\n      0x20\n      add\n      swap2\n      jump(tag_55)\n    tag_56:\n      dup3\n      add\n      swap2\n      swap1\n      0x00\n      mstore\n      keccak256(0x00, 0x20)\n      swap1\n    tag_57:\n      dup2\n      sload\n      dup2\n      mstore\n      swap1\n      0x01\n      add\n      swap1\n      0x20\n      add\n      dup1\n      dup4\n      gt\n      tag_57\n      jumpi\n      dup3\n      swap1\n      sub\n      0x1f\n      and\n      dup3\n      add\n      swap2\n    tag_55:\n      pop\n      pop\n      pop\n      pop\n      pop\n      dup2\n      mstore\n      0x20\n      add\n      0x01\n      dup3\n      add\n      0x00\n      swap1\n      sload\n      swap1\n      0x0100\n      exp\n      swap1\n      div\n      0xffffffffffffffffffffffffffffffffffffffff\n      and\n      0xffffffffffffffffffffffffffffffffffffffff\n      and\n      0xffffffffffffffffffffffffffffffffffffffff\n      and\n      dup2\n      mstore\n      0x20\n      add\n      0x02\n      dup3\n      add\n      dup1\n      sload\n      tag_58\n      swap1\n      tag_53\n      jump\t// in\n    tag_58:\n      dup1\n      0x1f\n      add\n      0x20\n      dup1\n      swap2\n      div\n      mul\n      0x20\n      add\n      mload(0x40)\n      swap1\n      dup2\n      add\n      0x40\n      mstore\n      dup1\n      swap3\n      swap2\n      swap1\n      dup2\n      dup2\n      mstore\n      0x20\n      add\n      dup3\n      dup1\n      sload\n      tag_59\n      swap1\n      tag_53\n      jump\t// in\n    tag_59:\n      dup1\n      iszero\n      tag_60\n      jumpi\n      dup1\n      0x1f\n      lt\n      tag_61\n      jumpi\n      0x0100\n      dup1\n      dup4\n      sload\n      div\n      mul\n      dup4\n      mstore\n      swap2\n      0x20\n      add\n      swap2\n      jump(tag_60)\n    tag_61:\n      dup3\n      add\n      swap2\n      swap1\n      0x00\n      mstore\n      keccak256(0x00, 0x20)\n      swap1\n    tag_62:\n      dup2\n      sload\n      dup2\n      mstore\n      swap1\n      0x01\n      add\n      swap1\n      0x20\n      add\n      dup1\n      dup4\n      gt\n      tag_62\n      jumpi\n      dup3\n      swap1\n      sub\n      0x1f\n      and\n      dup3\n      add\n      swap2\n    tag_60:\n      pop\n      pop\n      pop\n      pop\n      pop\n      dup2\n      mstore\n      0x20\n      add\n      0x03\n      dup3\n      add\n      dup1\n      sload\n      tag_63\n      swap1\n      tag_53\n      jump\t// in\n    tag_63:\n      dup1\n      0x1f\n      add\n      0x20\n      dup1\n      swap2\n      div\n      mul\n      0x20\n      add\n      mload(0x40)\n      swap1\n      dup2\n      add\n      0x40\n      mstore\n      dup1\n      swap3\n      swap2\n      swap1\n      dup2\n      dup2\n      mstore\n      0x20\n      add\n      dup3\n      dup1\n      sload\n      tag_64\n      swap1\n      tag_53\n      jump\t// in\n    tag_64:\n      dup1\n      iszero\n      tag_65\n      jumpi\n      dup1\n      0x1f\n      lt\n      tag_66\n      jumpi\n      0x0100\n      dup1\n      dup4\n      sload\n      div\n      mul\n      dup4\n      mstore\n      swap2\n      0x20\n      add\n      swap2\n      jump(tag_65)\n    tag_66:\n      dup3\n      add\n      swap2\n      swap1\n      0x00\n      mstore\n      keccak256(0x00, 0x20)\n      swap1\n    tag_67:\n      dup2\n      sload\n      dup2\n      mstore\n      swap1\n      0x01\n      add\n      swap1\n      0x20\n      add\n      dup1\n      dup4\n      gt\n      tag_67\n      jumpi\n      dup3\n      swap1\n      sub\n      0x1f\n      and\n      dup3\n      add\n      swap2\n    tag_65:\n      pop\n      pop\n      pop\n      pop\n      pop\n      dup2\n      mstore\n      pop\n      pop\n      dup2\n      mstore\n      0x20\n      add\n      swap1\n      0x01\n      add\n      swap1\n      jump(tag_49)\n    tag_50:\n      pop\n      pop\n      pop\n      pop\n      swap2\n      pop\n        /* \"ReMedi\":1010:1189  function getFiles()\r... */\n      pop\n      swap1\n      jump\t// out\n        /* \"ReMedi\":1317:1651  function getPatientInfo()\r... */\n    tag_18:\n        /* \"ReMedi\":1444:1451  address */\n      0x00\n        /* \"ReMedi\":1466:1479  string memory */\n      0x60\n        /* \"ReMedi\":1494:1510  address[] memory */\n      dup1\n        /* \"ReMedi\":1400:1410  msg.sender */\n      caller\n        /* \"ReMedi\":851:854  0x0 */\n      0x00\n        /* \"ReMedi\":815:855  patients[user].Patient_id > address(0x0) */\n      0xffffffffffffffffffffffffffffffffffffffff\n      and\n        /* \"ReMedi\":815:823  patients */\n      0x03\n        /* \"ReMedi\":815:829  patients[user] */\n      0x00\n        /* \"ReMedi\":824:828  user */\n      dup4\n        /* \"ReMedi\":815:829  patients[user] */\n      0xffffffffffffffffffffffffffffffffffffffff\n      and\n      0xffffffffffffffffffffffffffffffffffffffff\n      and\n      dup2\n      mstore\n      0x20\n      add\n      swap1\n      dup2\n      mstore\n      0x20\n      add\n      0x00\n      keccak256\n        /* \"ReMedi\":815:840  patients[user].Patient_id */\n      0x00\n      add\n      0x00\n      swap1\n      sload\n      swap1\n      0x0100\n      exp\n      swap1\n      div\n      0xffffffffffffffffffffffffffffffffffffffff\n      and\n        /* \"ReMedi\":815:855  patients[user].Patient_id > address(0x0) */\n      0xffffffffffffffffffffffffffffffffffffffff\n      and\n      gt\n        /* \"ReMedi\":807:856  require(patients[user].Patient_id > address(0x0)) */\n      tag_69\n      jumpi\n      0x00\n      dup1\n      revert\n    tag_69:\n        /* \"ReMedi\":1538:1554  Patient memory p */\n      0x00\n        /* \"ReMedi\":1557:1565  patients */\n      0x03\n        /* \"ReMedi\":1557:1577  patients[msg.sender] */\n      0x00\n        /* \"ReMedi\":1566:1576  msg.sender */\n      caller\n        /* \"ReMedi\":1557:1577  patients[msg.sender] */\n      0xffffffffffffffffffffffffffffffffffffffff\n      and\n      0xffffffffffffffffffffffffffffffffffffffff\n      and\n      dup2\n      mstore\n      0x20\n      add\n      swap1\n      dup2\n      mstore\n      0x20\n      add\n      0x00\n      keccak256\n        /* \"ReMedi\":1538:1577  Patient memory p = patients[msg.sender] */\n      mload(0x40)\n      dup1\n      0x60\n      add\n      0x40\n      mstore\n      swap1\n      dup2\n      0x00\n      dup3\n      add\n      0x00\n      swap1\n      sload\n      swap1\n      0x0100\n      exp\n      swap1\n      div\n      0xffffffffffffffffffffffffffffffffffffffff\n      and\n      0xffffffffffffffffffffffffffffffffffffffff\n      and\n      0xffffffffffffffffffffffffffffffffffffffff\n      and\n      dup2\n      mstore\n      0x20\n      add\n      0x01\n      dup3\n      add\n      dup1\n      sload\n      tag_71\n      swap1\n      tag_53\n      jump\t// in\n    tag_71:\n      dup1\n      0x1f\n      add\n      0x20\n      dup1\n      swap2\n      div\n      mul\n      0x20\n      add\n      mload(0x40)\n      swap1\n      dup2\n      add\n      0x40\n      mstore\n      dup1\n      swap3\n      swap2\n      swap1\n      dup2\n      dup2\n      mstore\n      0x20\n      add\n      dup3\n      dup1\n      sload\n      tag_72\n      swap1\n      tag_53\n      jump\t// in\n    tag_72:\n      dup1\n      iszero\n      tag_73\n      jumpi\n      dup1\n      0x1f\n      lt\n      tag_74\n      jumpi\n      0x0100\n      dup1\n      dup4\n      sload\n      div\n      mul\n      dup4\n      mstore\n      swap2\n      0x20\n      add\n      swap2\n      jump(tag_73)\n    tag_74:\n      dup3\n      add\n      swap2\n      swap1\n      0x00\n      mstore\n      keccak256(0x00, 0x20)\n      swap1\n    tag_75:\n      dup2\n      sload\n      dup2\n      mstore\n      swap1\n      0x01\n      add\n      swap1\n      0x20\n      add\n      dup1\n      dup4\n      gt\n      tag_75\n      jumpi\n      dup3\n      swap1\n      sub\n      0x1f\n      and\n      dup3\n      add\n      swap2\n    tag_73:\n      pop\n      pop\n      pop\n      pop\n      pop\n      dup2\n      mstore\n      0x20\n      add\n      0x02\n      dup3\n      add\n      dup1\n      sload\n      dup1\n      0x20\n      mul\n      0x20\n      add\n      mload(0x40)\n      swap1\n      dup2\n      add\n      0x40\n      mstore\n      dup1\n      swap3\n      swap2\n      swap1\n      dup2\n      dup2\n      mstore\n      0x20\n      add\n      dup3\n      dup1\n      sload\n      dup1\n      iszero\n      tag_76\n      jumpi\n      0x20\n      mul\n      dup3\n      add\n      swap2\n      swap1\n      0x00\n      mstore\n      keccak256(0x00, 0x20)\n      swap1\n    tag_77:\n      dup2\n      0x00\n      swap1\n      sload\n      swap1\n      0x0100\n      exp\n      swap1\n      div\n      0xffffffffffffffffffffffffffffffffffffffff\n      and\n      0xffffffffffffffffffffffffffffffffffffffff\n      and\n      dup2\n      mstore\n      0x20\n      add\n      swap1\n      0x01\n      add\n      swap1\n      dup1\n      dup4\n      gt\n      tag_77\n      jumpi\n    tag_76:\n      pop\n      pop\n      pop\n      pop\n      pop\n      dup2\n      mstore\n      pop\n      pop\n      swap1\n      pop\n        /* \"ReMedi\":1596:1597  p */\n      dup1\n        /* \"ReMedi\":1596:1608  p.Patient_id */\n      0x00\n      add\n      mload\n        /* \"ReMedi\":1610:1611  p */\n      dup2\n        /* \"ReMedi\":1610:1624  p.Patient_name */\n      0x20\n      add\n      mload\n        /* \"ReMedi\":1626:1627  p */\n      dup3\n        /* \"ReMedi\":1626:1642  p.Access_doctors */\n      0x40\n      add\n      mload\n        /* \"ReMedi\":1588:1643  return (p.Patient_id, p.Patient_name, p.Access_doctors) */\n      swap5\n      pop\n      swap5\n      pop\n      swap5\n      pop\n      pop\n        /* \"ReMedi\":1317:1651  function getPatientInfo()\r... */\n      pop\n      swap1\n      swap2\n      swap3\n      jump\t// out\n        /* \"ReMedi\":2317:2662  function create_doctor(string memory name) public {\r... */\n    tag_24:\n        /* \"ReMedi\":2378:2393  Doctor memory d */\n      0x00\n        /* \"ReMedi\":2396:2403  doctors */\n      0x04\n        /* \"ReMedi\":2396:2415  doctors[msg.sender] */\n      0x00\n        /* \"ReMedi\":2404:2414  msg.sender */\n      caller\n        /* \"ReMedi\":2396:2415  doctors[msg.sender] */\n      0xffffffffffffffffffffffffffffffffffffffff\n      and\n      0xffffffffffffffffffffffffffffffffffffffff\n      and\n      dup2\n      mstore\n      0x20\n      add\n      swap1\n      dup2\n      mstore\n      0x20\n      add\n      0x00\n      keccak256\n        /* \"ReMedi\":2378:2415  Doctor memory d = doctors[msg.sender] */\n      mload(0x40)\n      dup1\n      0x40\n      add\n      0x40\n      mstore\n      swap1\n      dup2\n      0x00\n      dup3\n      add\n      0x00\n      swap1\n      sload\n      swap1\n      0x0100\n      exp\n      swap1\n      div\n      0xffffffffffffffffffffffffffffffffffffffff\n      and\n      0xffffffffffffffffffffffffffffffffffffffff\n      and\n      0xffffffffffffffffffffffffffffffffffffffff\n      and\n      dup2\n      mstore\n      0x20\n      add\n      0x01\n      dup3\n      add\n      dup1\n      sload\n      tag_79\n      swap1\n      tag_53\n      jump\t// in\n    tag_79:\n      dup1\n      0x1f\n      add\n      0x20\n      dup1\n      swap2\n      div\n      mul\n      0x20\n      add\n      mload(0x40)\n      swap1\n      dup2\n      add\n      0x40\n      mstore\n      dup1\n      swap3\n      swap2\n      swap1\n      dup2\n      dup2\n      mstore\n      0x20\n      add\n      dup3\n      dup1\n      sload\n      tag_80\n      swap1\n      tag_53\n      jump\t// in\n    tag_80:\n      dup1\n      iszero\n      tag_81\n      jumpi\n      dup1\n      0x1f\n      lt\n      tag_82\n      jumpi\n      0x0100\n      dup1\n      dup4\n      sload\n      div\n      mul\n      dup4\n      mstore\n      swap2\n      0x20\n      add\n      swap2\n      jump(tag_81)\n    tag_82:\n      dup3\n      add\n      swap2\n      swap1\n      0x00\n      mstore\n      keccak256(0x00, 0x20)\n      swap1\n    tag_83:\n      dup2\n      sload\n      dup2\n      mstore\n      swap1\n      0x01\n      add\n      swap1\n      0x20\n      add\n      dup1\n      dup4\n      gt\n      tag_83\n      jumpi\n      dup3\n      swap1\n      sub\n      0x1f\n      and\n      dup3\n      add\n      swap2\n    tag_81:\n      pop\n      pop\n      pop\n      pop\n      pop\n      dup2\n      mstore\n      pop\n      pop\n      swap1\n      pop\n        /* \"ReMedi\":2471:2484  keccak256(\"\") */\n      0xc5d2460186f7233c927e7db2dcc703c0e500b653ca82273b7bfad8045d85a470\n        /* \"ReMedi\":2461:2465  name */\n      dup3\n        /* \"ReMedi\":2444:2466  abi.encodePacked(name) */\n      add(0x20, mload(0x40))\n      tag_84\n      swap2\n      swap1\n      tag_85\n      jump\t// in\n    tag_84:\n      mload(0x40)\n      0x20\n      dup2\n      dup4\n      sub\n      sub\n      dup2\n      mstore\n      swap1\n      0x40\n      mstore\n        /* \"ReMedi\":2434:2467  keccak256(abi.encodePacked(name)) */\n      dup1\n      mload\n      swap1\n      0x20\n      add\n      keccak256\n        /* \"ReMedi\":2434:2484  keccak256(abi.encodePacked(name)) != keccak256(\"\") */\n      eq\n      iszero\n        /* \"ReMedi\":2426:2485  require(keccak256(abi.encodePacked(name)) != keccak256(\"\")) */\n      tag_86\n      jumpi\n      0x00\n      dup1\n      revert\n    tag_86:\n        /* \"ReMedi\":2528:2531  0x0 */\n      0x00\n        /* \"ReMedi\":2506:2532  d.Doctor_id > address(0x0) */\n      0xffffffffffffffffffffffffffffffffffffffff\n      and\n        /* \"ReMedi\":2506:2507  d */\n      dup2\n        /* \"ReMedi\":2506:2517  d.Doctor_id */\n      0x00\n      add\n      mload\n        /* \"ReMedi\":2506:2532  d.Doctor_id > address(0x0) */\n      0xffffffffffffffffffffffffffffffffffffffff\n      and\n      gt\n        /* \"ReMedi\":2504:2533  !(d.Doctor_id > address(0x0)) */\n      iszero\n        /* \"ReMedi\":2496:2534  require(!(d.Doctor_id > address(0x0))) */\n      tag_87\n      jumpi\n      0x00\n      dup1\n      revert\n    tag_87:\n        /* \"ReMedi\":2567:2654  Doctor({\r... */\n      mload(0x40)\n      dup1\n      0x40\n      add\n      0x40\n      mstore\n      dup1\n        /* \"ReMedi\":2632:2642  msg.sender */\n      caller\n        /* \"ReMedi\":2567:2654  Doctor({\r... */\n      0xffffffffffffffffffffffffffffffffffffffff\n      and\n      dup2\n      mstore\n      0x20\n      add\n        /* \"ReMedi\":2602:2606  name */\n      dup4\n        /* \"ReMedi\":2567:2654  Doctor({\r... */\n      dup2\n      mstore\n      pop\n        /* \"ReMedi\":2545:2552  doctors */\n      0x04\n        /* \"ReMedi\":2545:2564  doctors[msg.sender] */\n      0x00\n        /* \"ReMedi\":2553:2563  msg.sender */\n      caller\n        /* \"ReMedi\":2545:2564  doctors[msg.sender] */\n      0xffffffffffffffffffffffffffffffffffffffff\n      and\n      0xffffffffffffffffffffffffffffffffffffffff\n      and\n      dup2\n      mstore\n      0x20\n      add\n      swap1\n      dup2\n      mstore\n      0x20\n      add\n      0x00\n      keccak256\n        /* \"ReMedi\":2545:2654  doctors[msg.sender] = Doctor({\r... */\n      0x00\n      dup3\n      add\n      mload\n      dup2\n      0x00\n      add\n      exp(0x0100, 0x00)\n      dup2\n      sload\n      dup2\n      0xffffffffffffffffffffffffffffffffffffffff\n      mul\n      not\n      and\n      swap1\n      dup4\n      0xffffffffffffffffffffffffffffffffffffffff\n      and\n      mul\n      or\n      swap1\n      sstore\n      pop\n      0x20\n      dup3\n      add\n      mload\n      dup2\n      0x01\n      add\n      swap1\n      dup1\n      mload\n      swap1\n      0x20\n      add\n      swap1\n      tag_88\n      swap3\n      swap2\n      swap1\n      tag_89\n      jump\t// in\n    tag_88:\n      pop\n      swap1\n      pop\n      pop\n        /* \"ReMedi\":2317:2662  function create_doctor(string memory name) public {\r... */\n      pop\n      pop\n      jump\t// out\n        /* \"ReMedi\":1197:1309  function getAccessFiles() public view returns (File[] memory) {\r... */\n    tag_26:\n        /* \"ReMedi\":1244:1257  File[] memory */\n      0x60\n        /* \"ReMedi\":1277:1289  access_files */\n      0x02\n        /* \"ReMedi\":1277:1301  access_files[msg.sender] */\n      0x00\n        /* \"ReMedi\":1290:1300  msg.sender */\n      caller\n        /* \"ReMedi\":1277:1301  access_files[msg.sender] */\n      0xffffffffffffffffffffffffffffffffffffffff\n      and\n      0xffffffffffffffffffffffffffffffffffffffff\n      and\n      dup2\n      mstore\n      0x20\n      add\n      swap1\n      dup2\n      mstore\n      0x20\n      add\n      0x00\n      keccak256\n        /* \"ReMedi\":1270:1301  return access_files[msg.sender] */\n      dup1\n      sload\n      dup1\n      0x20\n      mul\n      0x20\n      add\n      mload(0x40)\n      swap1\n      dup2\n      add\n      0x40\n      mstore\n      dup1\n      swap3\n      swap2\n      swap1\n      dup2\n      dup2\n      mstore\n      0x20\n      add\n      0x00\n      swap1\n    tag_91:\n      dup3\n      dup3\n      lt\n      iszero\n      tag_92\n      jumpi\n      dup4\n      dup3\n      swap1\n      0x00\n      mstore\n      keccak256(0x00, 0x20)\n      swap1\n      0x04\n      mul\n      add\n      mload(0x40)\n      dup1\n      0x80\n      add\n      0x40\n      mstore\n      swap1\n      dup2\n      0x00\n      dup3\n      add\n      dup1\n      sload\n      tag_94\n      swap1\n      tag_53\n      jump\t// in\n    tag_94:\n      dup1\n      0x1f\n      add\n      0x20\n      dup1\n      swap2\n      div\n      mul\n      0x20\n      add\n      mload(0x40)\n      swap1\n      dup2\n      add\n      0x40\n      mstore\n      dup1\n      swap3\n      swap2\n      swap1\n      dup2\n      dup2\n      mstore\n      0x20\n      add\n      dup3\n      dup1\n      sload\n      tag_95\n      swap1\n      tag_53\n      jump\t// in\n    tag_95:\n      dup1\n      iszero\n      tag_96\n      jumpi\n      dup1\n      0x1f\n      lt\n      tag_97\n      jumpi\n      0x0100\n      dup1\n      dup4\n      sload\n      div\n      mul\n      dup4\n      mstore\n      swap2\n      0x20\n      add\n      swap2\n      jump(tag_96)\n    tag_97:\n      dup3\n      add\n      swap2\n      swap1\n      0x00\n      mstore\n      keccak256(0x00, 0x20)\n      swap1\n    tag_98:\n      dup2\n      sload\n      dup2\n      mstore\n      swap1\n      0x01\n      add\n      swap1\n      0x20\n      add\n      dup1\n      dup4\n      gt\n      tag_98\n      jumpi\n      dup3\n      swap1\n      sub\n      0x1f\n      and\n      dup3\n      add\n      swap2\n    tag_96:\n      pop\n      pop\n      pop\n      pop\n      pop\n      dup2\n      mstore\n      0x20\n      add\n      0x01\n      dup3\n      add\n      0x00\n      swap1\n      sload\n      swap1\n      0x0100\n      exp\n      swap1\n      div\n      0xffffffffffffffffffffffffffffffffffffffff\n      and\n      0xffffffffffffffffffffffffffffffffffffffff\n      and\n      0xffffffffffffffffffffffffffffffffffffffff\n      and\n      dup2\n      mstore\n      0x20\n      add\n      0x02\n      dup3\n      add\n      dup1\n      sload\n      tag_99\n      swap1\n      tag_53\n      jump\t// in\n    tag_99:\n      dup1\n      0x1f\n      add\n      0x20\n      dup1\n      swap2\n      div\n      mul\n      0x20\n      add\n      mload(0x40)\n      swap1\n      dup2\n      add\n      0x40\n      mstore\n      dup1\n      swap3\n      swap2\n      swap1\n      dup2\n      dup2\n      mstore\n      0x20\n      add\n      dup3\n      dup1\n      sload\n      tag_100\n      swap1\n      tag_53\n      jump\t// in\n    tag_100:\n      dup1\n      iszero\n      tag_101\n      jumpi\n      dup1\n      0x1f\n      lt\n      tag_102\n      jumpi\n      0x0100\n      dup1\n      dup4\n      sload\n      div\n      mul\n      dup4\n      mstore\n      swap2\n      0x20\n      add\n      swap2\n      jump(tag_101)\n    tag_102:\n      dup3\n      add\n      swap2\n      swap1\n      0x00\n      mstore\n      keccak256(0x00, 0x20)\n      swap1\n    tag_103:\n      dup2\n      sload\n      dup2\n      mstore\n      swap1\n      0x01\n      add\n      swap1\n      0x20\n      add\n      dup1\n      dup4\n      gt\n      tag_103\n      jumpi\n      dup3\n      swap1\n      sub\n      0x1f\n      and\n      dup3\n      add\n      swap2\n    tag_101:\n      pop\n      pop\n      pop\n      pop\n      pop\n      dup2\n      mstore\n      0x20\n      add\n      0x03\n      dup3\n      add\n      dup1\n      sload\n      tag_104\n      swap1\n      tag_53\n      jump\t// in\n    tag_104:\n      dup1\n      0x1f\n      add\n      0x20\n      dup1\n      swap2\n      div\n      mul\n      0x20\n      add\n      mload(0x40)\n      swap1\n      dup2\n      add\n      0x40\n      mstore\n      dup1\n      swap3\n      swap2\n      swap1\n      dup2\n      dup2\n      mstore\n      0x20\n      add\n      dup3\n      dup1\n      sload\n      tag_105\n      swap1\n      tag_53\n      jump\t// in\n    tag_105:\n      dup1\n      iszero\n      tag_106\n      jumpi\n      dup1\n      0x1f\n      lt\n      tag_107\n      jumpi\n      0x0100\n      dup1\n      dup4\n      sload\n      div\n      mul\n      dup4\n      mstore\n      swap2\n      0x20\n      add\n      swap2\n      jump(tag_106)\n    tag_107:\n      dup3\n      add\n      swap2\n      swap1\n      0x00\n      mstore\n      keccak256(0x00, 0x20)\n      swap1\n    tag_108:\n      dup2\n      sload\n      dup2\n      mstore\n      swap1\n      0x01\n      add\n      swap1\n      0x20\n      add\n      dup1\n      dup4\n      gt\n      tag_108\n      jumpi\n      dup3\n      swap1\n      sub\n      0x1f\n      and\n      dup3\n      add\n      swap2\n    tag_106:\n      pop\n      pop\n      pop\n      pop\n      pop\n      dup2\n      mstore\n      pop\n      pop\n      dup2\n      mstore\n      0x20\n      add\n      swap1\n      0x01\n      add\n      swap1\n      jump(tag_91)\n    tag_92:\n      pop\n      pop\n      pop\n      pop\n      swap1\n      pop\n        /* \"ReMedi\":1197:1309  function getAccessFiles() public view returns (File[] memory) {\r... */\n      swap1\n      jump\t// out\n        /* \"ReMedi\":2670:3184  function create_file(\r... */\n    tag_31:\n        /* \"ReMedi\":2819:2829  msg.sender */\n      caller\n        /* \"ReMedi\":851:854  0x0 */\n      0x00\n        /* \"ReMedi\":815:855  patients[user].Patient_id > address(0x0) */\n      0xffffffffffffffffffffffffffffffffffffffff\n      and\n        /* \"ReMedi\":815:823  patients */\n      0x03\n        /* \"ReMedi\":815:829  patients[user] */\n      0x00\n        /* \"ReMedi\":824:828  user */\n      dup4\n        /* \"ReMedi\":815:829  patients[user] */\n      0xffffffffffffffffffffffffffffffffffffffff\n      and\n      0xffffffffffffffffffffffffffffffffffffffff\n      and\n      dup2\n      mstore\n      0x20\n      add\n      swap1\n      dup2\n      mstore\n      0x20\n      add\n      0x00\n      keccak256\n        /* \"ReMedi\":815:840  patients[user].Patient_id */\n      0x00\n      add\n      0x00\n      swap1\n      sload\n      swap1\n      0x0100\n      exp\n      swap1\n      div\n      0xffffffffffffffffffffffffffffffffffffffff\n      and\n        /* \"ReMedi\":815:855  patients[user].Patient_id > address(0x0) */\n      0xffffffffffffffffffffffffffffffffffffffff\n      and\n      gt\n        /* \"ReMedi\":807:856  require(patients[user].Patient_id > address(0x0)) */\n      tag_110\n      jumpi\n      0x00\n      dup1\n      revert\n    tag_110:\n        /* \"ReMedi\":2892:2905  keccak256(\"\") */\n      0xc5d2460186f7233c927e7db2dcc703c0e500b653ca82273b7bfad8045d85a470\n        /* \"ReMedi\":2877:2886  file_hash */\n      dup5\n        /* \"ReMedi\":2860:2887  abi.encodePacked(file_hash) */\n      add(0x20, mload(0x40))\n      tag_112\n      swap2\n      swap1\n      tag_85\n      jump\t// in\n    tag_112:\n      mload(0x40)\n      0x20\n      dup2\n      dup4\n      sub\n      sub\n      dup2\n      mstore\n      swap1\n      0x40\n      mstore\n        /* \"ReMedi\":2850:2888  keccak256(abi.encodePacked(file_hash)) */\n      dup1\n      mload\n      swap1\n      0x20\n      add\n      keccak256\n        /* \"ReMedi\":2850:2905  keccak256(abi.encodePacked(file_hash)) != keccak256(\"\") */\n      eq\n      iszero\n        /* \"ReMedi\":2842:2906  require(keccak256(abi.encodePacked(file_hash)) != keccak256(\"\")) */\n      tag_113\n      jumpi\n      0x00\n      dup1\n      revert\n    tag_113:\n        /* \"ReMedi\":2917:2936  File memory newFile */\n      0x00\n        /* \"ReMedi\":2952:3125  File({\r... */\n      mload(0x40)\n      dup1\n      0x80\n      add\n      0x40\n      mstore\n      dup1\n        /* \"ReMedi\":2985:2994  file_hash */\n      dup7\n        /* \"ReMedi\":2952:3125  File({\r... */\n      dup2\n      mstore\n      0x20\n      add\n        /* \"ReMedi\":3025:3035  msg.sender */\n      caller\n        /* \"ReMedi\":2952:3125  File({\r... */\n      0xffffffffffffffffffffffffffffffffffffffff\n      and\n      dup2\n      mstore\n      0x20\n      add\n        /* \"ReMedi\":3065:3074  file_name */\n      dup5\n        /* \"ReMedi\":2952:3125  File({\r... */\n      dup2\n      mstore\n      0x20\n      add\n        /* \"ReMedi\":3106:3109  des */\n      dup6\n        /* \"ReMedi\":2952:3125  File({\r... */\n      dup2\n      mstore\n      pop\n        /* \"ReMedi\":2917:3125  File memory newFile =\r... */\n      swap1\n      pop\n        /* \"ReMedi\":3136:3150  patientToFiles */\n      0x01\n        /* \"ReMedi\":3136:3162  patientToFiles[msg.sender] */\n      0x00\n        /* \"ReMedi\":3151:3161  msg.sender */\n      caller\n        /* \"ReMedi\":3136:3162  patientToFiles[msg.sender] */\n      0xffffffffffffffffffffffffffffffffffffffff\n      and\n      0xffffffffffffffffffffffffffffffffffffffff\n      and\n      dup2\n      mstore\n      0x20\n      add\n      swap1\n      dup2\n      mstore\n      0x20\n      add\n      0x00\n      keccak256\n        /* \"ReMedi\":3168:3175  newFile */\n      dup2\n        /* \"ReMedi\":3136:3176  patientToFiles[msg.sender].push(newFile) */\n      swap1\n      dup1\n      0x01\n      dup2\n      sload\n      add\n      dup1\n      dup3\n      sstore\n      dup1\n      swap2\n      pop\n      pop\n      0x01\n      swap1\n      sub\n      swap1\n      0x00\n      mstore\n      keccak256(0x00, 0x20)\n      swap1\n      0x04\n      mul\n      add\n      0x00\n      swap1\n      swap2\n      swap1\n      swap2\n      swap1\n      swap2\n      pop\n      0x00\n      dup3\n      add\n      mload\n      dup2\n      0x00\n      add\n      swap1\n      dup1\n      mload\n      swap1\n      0x20\n      add\n      swap1\n      tag_115\n      swap3\n      swap2\n      swap1\n      tag_89\n      jump\t// in\n    tag_115:\n      pop\n      0x20\n      dup3\n      add\n      mload\n      dup2\n      0x01\n      add\n      exp(0x0100, 0x00)\n      dup2\n      sload\n      dup2\n      0xffffffffffffffffffffffffffffffffffffffff\n      mul\n      not\n      and\n      swap1\n      dup4\n      0xffffffffffffffffffffffffffffffffffffffff\n      and\n      mul\n      or\n      swap1\n      sstore\n      pop\n      0x40\n      dup3\n      add\n      mload\n      dup2\n      0x02\n      add\n      swap1\n      dup1\n      mload\n      swap1\n      0x20\n      add\n      swap1\n      tag_116\n      swap3\n      swap2\n      swap1\n      tag_89\n      jump\t// in\n    tag_116:\n      pop\n      0x60\n      dup3\n      add\n      mload\n      dup2\n      0x03\n      add\n      swap1\n      dup1\n      mload\n      swap1\n      0x20\n      add\n      swap1\n      tag_117\n      swap3\n      swap2\n      swap1\n      tag_89\n      jump\t// in\n    tag_117:\n      pop\n      pop\n      pop\n        /* \"ReMedi\":867:868  _ */\n      pop\n        /* \"ReMedi\":2670:3184  function create_file(\r... */\n      pop\n      pop\n      pop\n      pop\n      jump\t// out\n        /* \"ReMedi\":1909:2309  function create_patient(string memory name) public {\r... */\n    tag_34:\n        /* \"ReMedi\":1971:1987  Patient memory p */\n      0x00\n        /* \"ReMedi\":1990:1998  patients */\n      0x03\n        /* \"ReMedi\":1990:2010  patients[msg.sender] */\n      0x00\n        /* \"ReMedi\":1999:2009  msg.sender */\n      caller\n        /* \"ReMedi\":1990:2010  patients[msg.sender] */\n      0xffffffffffffffffffffffffffffffffffffffff\n      and\n      0xffffffffffffffffffffffffffffffffffffffff\n      and\n      dup2\n      mstore\n      0x20\n      add\n      swap1\n      dup2\n      mstore\n      0x20\n      add\n      0x00\n      keccak256\n        /* \"ReMedi\":1971:2010  Patient memory p = patients[msg.sender] */\n      mload(0x40)\n      dup1\n      0x60\n      add\n      0x40\n      mstore\n      swap1\n      dup2\n      0x00\n      dup3\n      add\n      0x00\n      swap1\n      sload\n      swap1\n      0x0100\n      exp\n      swap1\n      div\n      0xffffffffffffffffffffffffffffffffffffffff\n      and\n      0xffffffffffffffffffffffffffffffffffffffff\n      and\n      0xffffffffffffffffffffffffffffffffffffffff\n      and\n      dup2\n      mstore\n      0x20\n      add\n      0x01\n      dup3\n      add\n      dup1\n      sload\n      tag_119\n      swap1\n      tag_53\n      jump\t// in\n    tag_119:\n      dup1\n      0x1f\n      add\n      0x20\n      dup1\n      swap2\n      div\n      mul\n      0x20\n      add\n      mload(0x40)\n      swap1\n      dup2\n      add\n      0x40\n      mstore\n      dup1\n      swap3\n      swap2\n      swap1\n      dup2\n      dup2\n      mstore\n      0x20\n      add\n      dup3\n      dup1\n      sload\n      tag_120\n      swap1\n      tag_53\n      jump\t// in\n    tag_120:\n      dup1\n      iszero\n      tag_121\n      jumpi\n      dup1\n      0x1f\n      lt\n      tag_122\n      jumpi\n      0x0100\n      dup1\n      dup4\n      sload\n      div\n      mul\n      dup4\n      mstore\n      swap2\n      0x20\n      add\n      swap2\n      jump(tag_121)\n    tag_122:\n      dup3\n      add\n      swap2\n      swap1\n      0x00\n      mstore\n      keccak256(0x00, 0x20)\n      swap1\n    tag_123:\n      dup2\n      sload\n      dup2\n      mstore\n      swap1\n      0x01\n      add\n      swap1\n      0x20\n      add\n      dup1\n      dup4\n      gt\n      tag_123\n      jumpi\n      dup3\n      swap1\n      sub\n      0x1f\n      and\n      dup3\n      add\n      swap2\n    tag_121:\n      pop\n      pop\n      pop\n      pop\n      pop\n      dup2\n      mstore\n      0x20\n      add\n      0x02\n      dup3\n      add\n      dup1\n      sload\n      dup1\n      0x20\n      mul\n      0x20\n      add\n      mload(0x40)\n      swap1\n      dup2\n      add\n      0x40\n      mstore\n      dup1\n      swap3\n      swap2\n      swap1\n      dup2\n      dup2\n      mstore\n      0x20\n      add\n      dup3\n      dup1\n      sload\n      dup1\n      iszero\n      tag_124\n      jumpi\n      0x20\n      mul\n      dup3\n      add\n      swap2\n      swap1\n      0x00\n      mstore\n      keccak256(0x00, 0x20)\n      swap1\n    tag_125:\n      dup2\n      0x00\n      swap1\n      sload\n      swap1\n      0x0100\n      exp\n      swap1\n      div\n      0xffffffffffffffffffffffffffffffffffffffff\n      and\n      0xffffffffffffffffffffffffffffffffffffffff\n      and\n      dup2\n      mstore\n      0x20\n      add\n      swap1\n      0x01\n      add\n      swap1\n      dup1\n      dup4\n      gt\n      tag_125\n      jumpi\n    tag_124:\n      pop\n      pop\n      pop\n      pop\n      pop\n      dup2\n      mstore\n      pop\n      pop\n      swap1\n      pop\n        /* \"ReMedi\":2066:2079  keccak256(\"\") */\n      0xc5d2460186f7233c927e7db2dcc703c0e500b653ca82273b7bfad8045d85a470\n        /* \"ReMedi\":2056:2060  name */\n      dup3\n        /* \"ReMedi\":2039:2061  abi.encodePacked(name) */\n      add(0x20, mload(0x40))\n      tag_126\n      swap2\n      swap1\n      tag_85\n      jump\t// in\n    tag_126:\n      mload(0x40)\n      0x20\n      dup2\n      dup4\n      sub\n      sub\n      dup2\n      mstore\n      swap1\n      0x40\n      mstore\n        /* \"ReMedi\":2029:2062  keccak256(abi.encodePacked(name)) */\n      dup1\n      mload\n      swap1\n      0x20\n      add\n      keccak256\n        /* \"ReMedi\":2029:2079  keccak256(abi.encodePacked(name)) != keccak256(\"\") */\n      eq\n      iszero\n        /* \"ReMedi\":2021:2080  require(keccak256(abi.encodePacked(name)) != keccak256(\"\")) */\n      tag_127\n      jumpi\n      0x00\n      dup1\n      revert\n    tag_127:\n        /* \"ReMedi\":2124:2127  0x0 */\n      0x00\n        /* \"ReMedi\":2101:2128  p.Patient_id > address(0x0) */\n      0xffffffffffffffffffffffffffffffffffffffff\n      and\n        /* \"ReMedi\":2101:2102  p */\n      dup2\n        /* \"ReMedi\":2101:2113  p.Patient_id */\n      0x00\n      add\n      mload\n        /* \"ReMedi\":2101:2128  p.Patient_id > address(0x0) */\n      0xffffffffffffffffffffffffffffffffffffffff\n      and\n      gt\n        /* \"ReMedi\":2099:2129  !(p.Patient_id > address(0x0)) */\n      iszero\n        /* \"ReMedi\":2091:2130  require(!(p.Patient_id > address(0x0))) */\n      tag_128\n      jumpi\n      0x00\n      dup1\n      revert\n    tag_128:\n        /* \"ReMedi\":2164:2301  Patient({\r... */\n      mload(0x40)\n      dup1\n      0x60\n      add\n      0x40\n      mstore\n      dup1\n        /* \"ReMedi\":2232:2242  msg.sender */\n      caller\n        /* \"ReMedi\":2164:2301  Patient({\r... */\n      0xffffffffffffffffffffffffffffffffffffffff\n      and\n      dup2\n      mstore\n      0x20\n      add\n        /* \"ReMedi\":2201:2205  name */\n      dup4\n        /* \"ReMedi\":2164:2301  Patient({\r... */\n      dup2\n      mstore\n      0x20\n      add\n        /* \"ReMedi\":2287:2288  0 */\n      0x00\n        /* \"ReMedi\":2273:2289  new address[](0) */\n      0xffffffffffffffff\n      dup2\n      gt\n      iszero\n      tag_129\n      jumpi\n      mstore(0x00, 0x4e487b7100000000000000000000000000000000000000000000000000000000)\n      mstore(0x04, 0x41)\n      revert(0x00, 0x24)\n    tag_129:\n      mload(0x40)\n      swap1\n      dup1\n      dup3\n      mstore\n      dup1\n      0x20\n      mul\n      0x20\n      add\n      dup3\n      add\n      0x40\n      mstore\n      dup1\n      iszero\n      tag_130\n      jumpi\n      dup2\n      0x20\n      add\n      0x20\n      dup3\n      mul\n      dup1\n      calldatasize\n      dup4\n      calldatacopy\n      dup1\n      dup3\n      add\n      swap2\n      pop\n      pop\n      swap1\n      pop\n    tag_130:\n      pop\n        /* \"ReMedi\":2164:2301  Patient({\r... */\n      dup2\n      mstore\n      pop\n        /* \"ReMedi\":2141:2149  patients */\n      0x03\n        /* \"ReMedi\":2141:2161  patients[msg.sender] */\n      0x00\n        /* \"ReMedi\":2150:2160  msg.sender */\n      caller\n        /* \"ReMedi\":2141:2161  patients[msg.sender] */\n      0xffffffffffffffffffffffffffffffffffffffff\n      and\n      0xffffffffffffffffffffffffffffffffffffffff\n      and\n      dup2\n      mstore\n      0x20\n      add\n      swap1\n      dup2\n      mstore\n      0x20\n      add\n      0x00\n      keccak256\n        /* \"ReMedi\":2141:2301  patients[msg.sender] = Patient({\r... */\n      0x00\n      dup3\n      add\n      mload\n      dup2\n      0x00\n      add\n      exp(0x0100, 0x00)\n      dup2\n      sload\n      dup2\n      0xffffffffffffffffffffffffffffffffffffffff\n      mul\n      not\n      and\n      swap1\n      dup4\n      0xffffffffffffffffffffffffffffffffffffffff\n      and\n      mul\n      or\n      swap1\n      sstore\n      pop\n      0x20\n      dup3\n      add\n      mload\n      dup2\n      0x01\n      add\n      swap1\n      dup1\n      mload\n      swap1\n      0x20\n      add\n      swap1\n      tag_131\n      swap3\n      swap2\n      swap1\n      tag_89\n      jump\t// in\n    tag_131:\n      pop\n      0x40\n      dup3\n      add\n      mload\n      dup2\n      0x02\n      add\n      swap1\n      dup1\n      mload\n      swap1\n      0x20\n      add\n      swap1\n      tag_132\n      swap3\n      swap2\n      swap1\n      tag_133\n      jump\t// in\n    tag_132:\n      pop\n      swap1\n      pop\n      pop\n        /* \"ReMedi\":1909:2309  function create_patient(string memory name) public {\r... */\n      pop\n      pop\n      jump\t// out\n        /* \"ReMedi\":1659:1901  function getDoctorInfo()\r... */\n    tag_36:\n        /* \"ReMedi\":1770:1777  address */\n      0x00\n        /* \"ReMedi\":1779:1792  string memory */\n      0x60\n        /* \"ReMedi\":1740:1750  msg.sender */\n      caller\n        /* \"ReMedi\":977:980  0x0 */\n      0x00\n        /* \"ReMedi\":943:981  doctors[user].Doctor_id > address(0x0) */\n      0xffffffffffffffffffffffffffffffffffffffff\n      and\n        /* \"ReMedi\":943:950  doctors */\n      0x04\n        /* \"ReMedi\":943:956  doctors[user] */\n      0x00\n        /* \"ReMedi\":951:955  user */\n      dup4\n        /* \"ReMedi\":943:956  doctors[user] */\n      0xffffffffffffffffffffffffffffffffffffffff\n      and\n      0xffffffffffffffffffffffffffffffffffffffff\n      and\n      dup2\n      mstore\n      0x20\n      add\n      swap1\n      dup2\n      mstore\n      0x20\n      add\n      0x00\n      keccak256\n        /* \"ReMedi\":943:966  doctors[user].Doctor_id */\n      0x00\n      add\n      0x00\n      swap1\n      sload\n      swap1\n      0x0100\n      exp\n      swap1\n      div\n      0xffffffffffffffffffffffffffffffffffffffff\n      and\n        /* \"ReMedi\":943:981  doctors[user].Doctor_id > address(0x0) */\n      0xffffffffffffffffffffffffffffffffffffffff\n      and\n      gt\n        /* \"ReMedi\":935:982  require(doctors[user].Doctor_id > address(0x0)) */\n      tag_135\n      jumpi\n      0x00\n      dup1\n      revert\n    tag_135:\n        /* \"ReMedi\":1810:1825  Doctor memory d */\n      0x00\n        /* \"ReMedi\":1828:1835  doctors */\n      0x04\n        /* \"ReMedi\":1828:1847  doctors[msg.sender] */\n      0x00\n        /* \"ReMedi\":1836:1846  msg.sender */\n      caller\n        /* \"ReMedi\":1828:1847  doctors[msg.sender] */\n      0xffffffffffffffffffffffffffffffffffffffff\n      and\n      0xffffffffffffffffffffffffffffffffffffffff\n      and\n      dup2\n      mstore\n      0x20\n      add\n      swap1\n      dup2\n      mstore\n      0x20\n      add\n      0x00\n      keccak256\n        /* \"ReMedi\":1810:1847  Doctor memory d = doctors[msg.sender] */\n      mload(0x40)\n      dup1\n      0x40\n      add\n      0x40\n      mstore\n      swap1\n      dup2\n      0x00\n      dup3\n      add\n      0x00\n      swap1\n      sload\n      swap1\n      0x0100\n      exp\n      swap1\n      div\n      0xffffffffffffffffffffffffffffffffffffffff\n      and\n      0xffffffffffffffffffffffffffffffffffffffff\n      and\n      0xffffffffffffffffffffffffffffffffffffffff\n      and\n      dup2\n      mstore\n      0x20\n      add\n      0x01\n      dup3\n      add\n      dup1\n      sload\n      tag_137\n      swap1\n      tag_53\n      jump\t// in\n    tag_137:\n      dup1\n      0x1f\n      add\n      0x20\n      dup1\n      swap2\n      div\n      mul\n      0x20\n      add\n      mload(0x40)\n      swap1\n      dup2\n      add\n      0x40\n      mstore\n      dup1\n      swap3\n      swap2\n      swap1\n      dup2\n      dup2\n      mstore\n      0x20\n      add\n      dup3\n      dup1\n      sload\n      tag_138\n      swap1\n      tag_53\n      jump\t// in\n    tag_138:\n      dup1\n      iszero\n      tag_139\n      jumpi\n      dup1\n      0x1f\n      lt\n      tag_140\n      jumpi\n      0x0100\n      dup1\n      dup4\n      sload\n      div\n      mul\n      dup4\n      mstore\n      swap2\n      0x20\n      add\n      swap2\n      jump(tag_139)\n    tag_140:\n      dup3\n      add\n      swap2\n      swap1\n      0x00\n      mstore\n      keccak256(0x00, 0x20)\n      swap1\n    tag_141:\n      dup2\n      sload\n      dup2\n      mstore\n      swap1\n      0x01\n      add\n      swap1\n      0x20\n      add\n      dup1\n      dup4\n      gt\n      tag_141\n      jumpi\n      dup3\n      swap1\n      sub\n      0x1f\n      and\n      dup3\n      add\n      swap2\n    tag_139:\n      pop\n      pop\n      pop\n      pop\n      pop\n      dup2\n      mstore\n      pop\n      pop\n      swap1\n      pop\n        /* \"ReMedi\":1866:1867  d */\n      dup1\n        /* \"ReMedi\":1866:1877  d.Doctor_id */\n      0x00\n      add\n      mload\n        /* \"ReMedi\":1879:1880  d */\n      dup2\n        /* \"ReMedi\":1879:1892  d.Doctor_name */\n      0x20\n      add\n      mload\n        /* \"ReMedi\":1858:1893  return (d.Doctor_id, d.Doctor_name) */\n      swap4\n      pop\n      swap4\n      pop\n      pop\n        /* \"ReMedi\":1659:1901  function getDoctorInfo()\r... */\n      pop\n      swap1\n      swap2\n      jump\t// out\n        /* \"ReMedi\":4816:5965  function grant_FileAccess(address doctor, string memory file_hash)\r... */\n    tag_42:\n        /* \"ReMedi\":4926:4936  msg.sender */\n      caller\n        /* \"ReMedi\":851:854  0x0 */\n      0x00\n        /* \"ReMedi\":815:855  patients[user].Patient_id > address(0x0) */\n      0xffffffffffffffffffffffffffffffffffffffff\n      and\n        /* \"ReMedi\":815:823  patients */\n      0x03\n        /* \"ReMedi\":815:829  patients[user] */\n      0x00\n        /* \"ReMedi\":824:828  user */\n      dup4\n        /* \"ReMedi\":815:829  patients[user] */\n      0xffffffffffffffffffffffffffffffffffffffff\n      and\n      0xffffffffffffffffffffffffffffffffffffffff\n      and\n      dup2\n      mstore\n      0x20\n      add\n      swap1\n      dup2\n      mstore\n      0x20\n      add\n      0x00\n      keccak256\n        /* \"ReMedi\":815:840  patients[user].Patient_id */\n      0x00\n      add\n      0x00\n      swap1\n      sload\n      swap1\n      0x0100\n      exp\n      swap1\n      div\n      0xffffffffffffffffffffffffffffffffffffffff\n      and\n        /* \"ReMedi\":815:855  patients[user].Patient_id > address(0x0) */\n      0xffffffffffffffffffffffffffffffffffffffff\n      and\n      gt\n        /* \"ReMedi\":807:856  require(patients[user].Patient_id > address(0x0)) */\n      tag_143\n      jumpi\n      0x00\n      dup1\n      revert\n    tag_143:\n        /* \"ReMedi\":5004:5017  keccak256(\"\") */\n      0xc5d2460186f7233c927e7db2dcc703c0e500b653ca82273b7bfad8045d85a470\n        /* \"ReMedi\":4989:4998  file_hash */\n      dup3\n        /* \"ReMedi\":4972:4999  abi.encodePacked(file_hash) */\n      add(0x20, mload(0x40))\n      tag_145\n      swap2\n      swap1\n      tag_85\n      jump\t// in\n    tag_145:\n      mload(0x40)\n      0x20\n      dup2\n      dup4\n      sub\n      sub\n      dup2\n      mstore\n      swap1\n      0x40\n      mstore\n        /* \"ReMedi\":4962:5000  keccak256(abi.encodePacked(file_hash)) */\n      dup1\n      mload\n      swap1\n      0x20\n      add\n      keccak256\n        /* \"ReMedi\":4962:5017  keccak256(abi.encodePacked(file_hash)) != keccak256(\"\") */\n      eq\n      iszero\n        /* \"ReMedi\":4954:5018  require(keccak256(abi.encodePacked(file_hash)) != keccak256(\"\")) */\n      tag_146\n      jumpi\n      0x00\n      dup1\n      revert\n    tag_146:\n        /* \"ReMedi\":5066:5072  doctor */\n      dup3\n        /* \"ReMedi\":5037:5072  doctors[doctor].Doctor_id == doctor */\n      0xffffffffffffffffffffffffffffffffffffffff\n      and\n        /* \"ReMedi\":5037:5044  doctors */\n      0x04\n        /* \"ReMedi\":5037:5052  doctors[doctor] */\n      0x00\n        /* \"ReMedi\":5045:5051  doctor */\n      dup6\n        /* \"ReMedi\":5037:5052  doctors[doctor] */\n      0xffffffffffffffffffffffffffffffffffffffff\n      and\n      0xffffffffffffffffffffffffffffffffffffffff\n      and\n      dup2\n      mstore\n      0x20\n      add\n      swap1\n      dup2\n      mstore\n      0x20\n      add\n      0x00\n      keccak256\n        /* \"ReMedi\":5037:5062  doctors[doctor].Doctor_id */\n      0x00\n      add\n      0x00\n      swap1\n      sload\n      swap1\n      0x0100\n      exp\n      swap1\n      div\n      0xffffffffffffffffffffffffffffffffffffffff\n      and\n        /* \"ReMedi\":5037:5072  doctors[doctor].Doctor_id == doctor */\n      0xffffffffffffffffffffffffffffffffffffffff\n      and\n      eq\n        /* \"ReMedi\":5029:5073  require(doctors[doctor].Doctor_id == doctor) */\n      tag_147\n      jumpi\n      0x00\n      dup1\n      revert\n    tag_147:\n        /* \"ReMedi\":5123:5130  MAX_INT */\n      sload(0x00)\n        /* \"ReMedi\":5088:5118  find_doctor_in_patient(doctor) */\n      tag_148\n        /* \"ReMedi\":5111:5117  doctor */\n      dup5\n        /* \"ReMedi\":5088:5110  find_doctor_in_patient */\n      tag_149\n        /* \"ReMedi\":5088:5118  find_doctor_in_patient(doctor) */\n      jump\t// in\n    tag_148:\n        /* \"ReMedi\":5088:5131  find_doctor_in_patient(doctor) == (MAX_INT) */\n      eq\n        /* \"ReMedi\":5084:5958  if (find_doctor_in_patient(doctor) == (MAX_INT)) {\r... */\n      iszero\n      tag_150\n      jumpi\n        /* \"ReMedi\":5148:5165  Patient storage p */\n      0x00\n        /* \"ReMedi\":5168:5176  patients */\n      0x03\n        /* \"ReMedi\":5168:5188  patients[msg.sender] */\n      0x00\n        /* \"ReMedi\":5177:5187  msg.sender */\n      caller\n        /* \"ReMedi\":5168:5188  patients[msg.sender] */\n      0xffffffffffffffffffffffffffffffffffffffff\n      and\n      0xffffffffffffffffffffffffffffffffffffffff\n      and\n      dup2\n      mstore\n      0x20\n      add\n      swap1\n      dup2\n      mstore\n      0x20\n      add\n      0x00\n      keccak256\n        /* \"ReMedi\":5148:5188  Patient storage p = patients[msg.sender] */\n      swap1\n      pop\n        /* \"ReMedi\":5203:5204  p */\n      dup1\n        /* \"ReMedi\":5203:5219  p.Access_doctors */\n      0x02\n      add\n        /* \"ReMedi\":5225:5231  doctor */\n      dup5\n        /* \"ReMedi\":5203:5232  p.Access_doctors.push(doctor) */\n      swap1\n      dup1\n      0x01\n      dup2\n      sload\n      add\n      dup1\n      dup3\n      sstore\n      dup1\n      swap2\n      pop\n      pop\n      0x01\n      swap1\n      sub\n      swap1\n      0x00\n      mstore\n      keccak256(0x00, 0x20)\n      add\n      0x00\n      swap1\n      swap2\n      swap1\n      swap2\n      swap1\n      swap2\n      0x0100\n      exp\n      dup2\n      sload\n      dup2\n      0xffffffffffffffffffffffffffffffffffffffff\n      mul\n      not\n      and\n      swap1\n      dup4\n      0xffffffffffffffffffffffffffffffffffffffff\n      and\n      mul\n      or\n      swap1\n      sstore\n      pop\n        /* \"ReMedi\":5270:5271  p */\n      dup1\n        /* \"ReMedi\":5247:5255  patients */\n      0x03\n        /* \"ReMedi\":5247:5267  patients[msg.sender] */\n      0x00\n        /* \"ReMedi\":5256:5266  msg.sender */\n      caller\n        /* \"ReMedi\":5247:5267  patients[msg.sender] */\n      0xffffffffffffffffffffffffffffffffffffffff\n      and\n      0xffffffffffffffffffffffffffffffffffffffff\n      and\n      dup2\n      mstore\n      0x20\n      add\n      swap1\n      dup2\n      mstore\n      0x20\n      add\n      0x00\n      keccak256\n        /* \"ReMedi\":5247:5271  patients[msg.sender] = p */\n      0x00\n      dup3\n      add\n      0x00\n      swap1\n      sload\n      swap1\n      0x0100\n      exp\n      swap1\n      div\n      0xffffffffffffffffffffffffffffffffffffffff\n      and\n      dup2\n      0x00\n      add\n      exp(0x0100, 0x00)\n      dup2\n      sload\n      dup2\n      0xffffffffffffffffffffffffffffffffffffffff\n      mul\n      not\n      and\n      swap1\n      dup4\n      0xffffffffffffffffffffffffffffffffffffffff\n      and\n      mul\n      or\n      swap1\n      sstore\n      pop\n      0x01\n      dup3\n      add\n      dup2\n      0x01\n      add\n      swap1\n      dup1\n      sload\n      tag_152\n      swap1\n      tag_53\n      jump\t// in\n    tag_152:\n      tag_153\n      swap3\n      swap2\n      swap1\n      tag_154\n      jump\t// in\n    tag_153:\n      pop\n      0x02\n      dup3\n      add\n      dup2\n      0x02\n      add\n      swap1\n      dup1\n      sload\n      tag_155\n      swap3\n      swap2\n      swap1\n      tag_156\n      jump\t// in\n    tag_155:\n      pop\n      swap1\n      pop\n      pop\n        /* \"ReMedi\":5286:5298  access_files */\n      0x02\n        /* \"ReMedi\":5286:5306  access_files[doctor] */\n      0x00\n        /* \"ReMedi\":5299:5305  doctor */\n      dup6\n        /* \"ReMedi\":5286:5306  access_files[doctor] */\n      0xffffffffffffffffffffffffffffffffffffffff\n      and\n      0xffffffffffffffffffffffffffffffffffffffff\n      and\n      dup2\n      mstore\n      0x20\n      add\n      swap1\n      dup2\n      mstore\n      0x20\n      add\n      0x00\n      keccak256\n        /* \"ReMedi\":5330:5344  patientToFiles */\n      0x01\n        /* \"ReMedi\":5330:5356  patientToFiles[msg.sender] */\n      0x00\n        /* \"ReMedi\":5345:5355  msg.sender */\n      caller\n        /* \"ReMedi\":5330:5356  patientToFiles[msg.sender] */\n      0xffffffffffffffffffffffffffffffffffffffff\n      and\n      0xffffffffffffffffffffffffffffffffffffffff\n      and\n      dup2\n      mstore\n      0x20\n      add\n      swap1\n      dup2\n      mstore\n      0x20\n      add\n      0x00\n      keccak256\n        /* \"ReMedi\":5357:5388  find_file_in_patient(file_hash) */\n      tag_157\n        /* \"ReMedi\":5378:5387  file_hash */\n      dup6\n        /* \"ReMedi\":5357:5377  find_file_in_patient */\n      tag_158\n        /* \"ReMedi\":5357:5388  find_file_in_patient(file_hash) */\n      jump\t// in\n    tag_157:\n        /* \"ReMedi\":5330:5389  patientToFiles[msg.sender][find_file_in_patient(file_hash)] */\n      dup2\n      sload\n      dup2\n      lt\n      tag_159\n      jumpi\n      mstore(0x00, 0x4e487b7100000000000000000000000000000000000000000000000000000000)\n      mstore(0x04, 0x32)\n      revert(0x00, 0x24)\n    tag_159:\n      swap1\n      0x00\n      mstore\n      keccak256(0x00, 0x20)\n      swap1\n      0x04\n      mul\n      add\n        /* \"ReMedi\":5286:5404  access_files[doctor].push(\r... */\n      swap1\n      dup1\n      0x01\n      dup2\n      sload\n      add\n      dup1\n      dup3\n      sstore\n      dup1\n      swap2\n      pop\n      pop\n      0x01\n      swap1\n      sub\n      swap1\n      0x00\n      mstore\n      keccak256(0x00, 0x20)\n      swap1\n      0x04\n      mul\n      add\n      0x00\n      swap1\n      swap2\n      swap1\n      swap2\n      swap1\n      swap2\n      pop\n      0x00\n      dup3\n      add\n      dup2\n      0x00\n      add\n      swap1\n      dup1\n      sload\n      tag_162\n      swap1\n      tag_53\n      jump\t// in\n    tag_162:\n      tag_163\n      swap3\n      swap2\n      swap1\n      tag_154\n      jump\t// in\n    tag_163:\n      pop\n      0x01\n      dup3\n      add\n      0x00\n      swap1\n      sload\n      swap1\n      0x0100\n      exp\n      swap1\n      div\n      0xffffffffffffffffffffffffffffffffffffffff\n      and\n      dup2\n      0x01\n      add\n      exp(0x0100, 0x00)\n      dup2\n      sload\n      dup2\n      0xffffffffffffffffffffffffffffffffffffffff\n      mul\n      not\n      and\n      swap1\n      dup4\n      0xffffffffffffffffffffffffffffffffffffffff\n      and\n      mul\n      or\n      swap1\n      sstore\n      pop\n      0x02\n      dup3\n      add\n      dup2\n      0x02\n      add\n      swap1\n      dup1\n      sload\n      tag_164\n      swap1\n      tag_53\n      jump\t// in\n    tag_164:\n      tag_165\n      swap3\n      swap2\n      swap1\n      tag_154\n      jump\t// in\n    tag_165:\n      pop\n      0x03\n      dup3\n      add\n      dup2\n      0x03\n      add\n      swap1\n      dup1\n      sload\n      tag_166\n      swap1\n      tag_53\n      jump\t// in\n    tag_166:\n      tag_167\n      swap3\n      swap2\n      swap1\n      tag_154\n      jump\t// in\n    tag_167:\n      pop\n      pop\n      pop\n        /* \"ReMedi\":5084:5958  if (find_doctor_in_patient(doctor) == (MAX_INT)) {\r... */\n      pop\n      jump(tag_168)\n    tag_150:\n        /* \"ReMedi\":5437:5460  File[] memory lib_files */\n      0x00\n        /* \"ReMedi\":5463:5475  access_files */\n      0x02\n        /* \"ReMedi\":5463:5483  access_files[doctor] */\n      0x00\n        /* \"ReMedi\":5476:5482  doctor */\n      dup6\n        /* \"ReMedi\":5463:5483  access_files[doctor] */\n      0xffffffffffffffffffffffffffffffffffffffff\n      and\n      0xffffffffffffffffffffffffffffffffffffffff\n      and\n      dup2\n      mstore\n      0x20\n      add\n      swap1\n      dup2\n      mstore\n      0x20\n      add\n      0x00\n      keccak256\n        /* \"ReMedi\":5437:5483  File[] memory lib_files = access_files[doctor] */\n      dup1\n      sload\n      dup1\n      0x20\n      mul\n      0x20\n      add\n      mload(0x40)\n      swap1\n      dup2\n      add\n      0x40\n      mstore\n      dup1\n      swap3\n      swap2\n      swap1\n      dup2\n      dup2\n      mstore\n      0x20\n      add\n      0x00\n      swap1\n    tag_169:\n      dup3\n      dup3\n      lt\n      iszero\n      tag_170\n      jumpi\n      dup4\n      dup3\n      swap1\n      0x00\n      mstore\n      keccak256(0x00, 0x20)\n      swap1\n      0x04\n      mul\n      add\n      mload(0x40)\n      dup1\n      0x80\n      add\n      0x40\n      mstore\n      swap1\n      dup2\n      0x00\n      dup3\n      add\n      dup1\n      sload\n      tag_172\n      swap1\n      tag_53\n      jump\t// in\n    tag_172:\n      dup1\n      0x1f\n      add\n      0x20\n      dup1\n      swap2\n      div\n      mul\n      0x20\n      add\n      mload(0x40)\n      swap1\n      dup2\n      add\n      0x40\n      mstore\n      dup1\n      swap3\n      swap2\n      swap1\n      dup2\n      dup2\n      mstore\n      0x20\n      add\n      dup3\n      dup1\n      sload\n      tag_173\n      swap1\n      tag_53\n      jump\t// in\n    tag_173:\n      dup1\n      iszero\n      tag_174\n      jumpi\n      dup1\n      0x1f\n      lt\n      tag_175\n      jumpi\n      0x0100\n      dup1\n      dup4\n      sload\n      div\n      mul\n      dup4\n      mstore\n      swap2\n      0x20\n      add\n      swap2\n      jump(tag_174)\n    tag_175:\n      dup3\n      add\n      swap2\n      swap1\n      0x00\n      mstore\n      keccak256(0x00, 0x20)\n      swap1\n    tag_176:\n      dup2\n      sload\n      dup2\n      mstore\n      swap1\n      0x01\n      add\n      swap1\n      0x20\n      add\n      dup1\n      dup4\n      gt\n      tag_176\n      jumpi\n      dup3\n      swap1\n      sub\n      0x1f\n      and\n      dup3\n      add\n      swap2\n    tag_174:\n      pop\n      pop\n      pop\n      pop\n      pop\n      dup2\n      mstore\n      0x20\n      add\n      0x01\n      dup3\n      add\n      0x00\n      swap1\n      sload\n      swap1\n      0x0100\n      exp\n      swap1\n      div\n      0xffffffffffffffffffffffffffffffffffffffff\n      and\n      0xffffffffffffffffffffffffffffffffffffffff\n      and\n      0xffffffffffffffffffffffffffffffffffffffff\n      and\n      dup2\n      mstore\n      0x20\n      add\n      0x02\n      dup3\n      add\n      dup1\n      sload\n      tag_177\n      swap1\n      tag_53\n      jump\t// in\n    tag_177:\n      dup1\n      0x1f\n      add\n      0x20\n      dup1\n      swap2\n      div\n      mul\n      0x20\n      add\n      mload(0x40)\n      swap1\n      dup2\n      add\n      0x40\n      mstore\n      dup1\n      swap3\n      swap2\n      swap1\n      dup2\n      dup2\n      mstore\n      0x20\n      add\n      dup3\n      dup1\n      sload\n      tag_178\n      swap1\n      tag_53\n      jump\t// in\n    tag_178:\n      dup1\n      iszero\n      tag_179\n      jumpi\n      dup1\n      0x1f\n      lt\n      tag_180\n      jumpi\n      0x0100\n      dup1\n      dup4\n      sload\n      div\n      mul\n      dup4\n      mstore\n      swap2\n      0x20\n      add\n      swap2\n      jump(tag_179)\n    tag_180:\n      dup3\n      add\n      swap2\n      swap1\n      0x00\n      mstore\n      keccak256(0x00, 0x20)\n      swap1\n    tag_181:\n      dup2\n      sload\n      dup2\n      mstore\n      swap1\n      0x01\n      add\n      swap1\n      0x20\n      add\n      dup1\n      dup4\n      gt\n      tag_181\n      jumpi\n      dup3\n      swap1\n      sub\n      0x1f\n      and\n      dup3\n      add\n      swap2\n    tag_179:\n      pop\n      pop\n      pop\n      pop\n      pop\n      dup2\n      mstore\n      0x20\n      add\n      0x03\n      dup3\n      add\n      dup1\n      sload\n      tag_182\n      swap1\n      tag_53\n      jump\t// in\n    tag_182:\n      dup1\n      0x1f\n      add\n      0x20\n      dup1\n      swap2\n      div\n      mul\n      0x20\n      add\n      mload(0x40)\n      swap1\n      dup2\n      add\n      0x40\n      mstore\n      dup1\n      swap3\n      swap2\n      swap1\n      dup2\n      dup2\n      mstore\n      0x20\n      add\n      dup3\n      dup1\n      sload\n      tag_183\n      swap1\n      tag_53\n      jump\t// in\n    tag_183:\n      dup1\n      iszero\n      tag_184\n      jumpi\n      dup1\n      0x1f\n      lt\n      tag_185\n      jumpi\n      0x0100\n      dup1\n      dup4\n      sload\n      div\n      mul\n      dup4\n      mstore\n      swap2\n      0x20\n      add\n      swap2\n      jump(tag_184)\n    tag_185:\n      dup3\n      add\n      swap2\n      swap1\n      0x00\n      mstore\n      keccak256(0x00, 0x20)\n      swap1\n    tag_186:\n      dup2\n      sload\n      dup2\n      mstore\n      swap1\n      0x01\n      add\n      swap1\n      0x20\n      add\n      dup1\n      dup4\n      gt\n      tag_186\n      jumpi\n      dup3\n      swap1\n      sub\n      0x1f\n      and\n      dup3\n      add\n      swap2\n    tag_184:\n      pop\n      pop\n      pop\n      pop\n      pop\n      dup2\n      mstore\n      pop\n      pop\n      dup2\n      mstore\n      0x20\n      add\n      swap1\n      0x01\n      add\n      swap1\n      jump(tag_169)\n    tag_170:\n      pop\n      pop\n      pop\n      pop\n      swap1\n      pop\n        /* \"ReMedi\":5503:5512  uint256 i */\n      0x00\n        /* \"ReMedi\":5498:5814  for (uint256 i = 0; i < lib_files.length; i++) {\r... */\n    tag_187:\n        /* \"ReMedi\":5522:5531  lib_files */\n      dup2\n        /* \"ReMedi\":5522:5538  lib_files.length */\n      mload\n        /* \"ReMedi\":5518:5519  i */\n      dup2\n        /* \"ReMedi\":5518:5538  i < lib_files.length */\n      lt\n        /* \"ReMedi\":5498:5814  for (uint256 i = 0; i < lib_files.length; i++) {\r... */\n      iszero\n      tag_188\n      jumpi\n        /* \"ReMedi\":5691:5700  file_hash */\n      dup4\n        /* \"ReMedi\":5674:5701  abi.encodePacked(file_hash) */\n      add(0x20, mload(0x40))\n      tag_190\n      swap2\n      swap1\n      tag_85\n      jump\t// in\n    tag_190:\n      mload(0x40)\n      0x20\n      dup2\n      dup4\n      sub\n      sub\n      dup2\n      mstore\n      swap1\n      0x40\n      mstore\n        /* \"ReMedi\":5664:5702  keccak256(abi.encodePacked(file_hash)) */\n      dup1\n      mload\n      swap1\n      0x20\n      add\n      keccak256\n        /* \"ReMedi\":5617:5626  lib_files */\n      dup3\n        /* \"ReMedi\":5627:5628  i */\n      dup3\n        /* \"ReMedi\":5617:5629  lib_files[i] */\n      dup2\n      mload\n      dup2\n      lt\n      tag_191\n      jumpi\n      mstore(0x00, 0x4e487b7100000000000000000000000000000000000000000000000000000000)\n      mstore(0x04, 0x32)\n      revert(0x00, 0x24)\n    tag_191:\n      0x20\n      mul\n      0x20\n      add\n      add\n      mload\n        /* \"ReMedi\":5617:5637  lib_files[i].File_id */\n      0x00\n      add\n      mload\n        /* \"ReMedi\":5600:5638  abi.encodePacked(lib_files[i].File_id) */\n      add(0x20, mload(0x40))\n      tag_192\n      swap2\n      swap1\n      tag_85\n      jump\t// in\n    tag_192:\n      mload(0x40)\n      0x20\n      dup2\n      dup4\n      sub\n      sub\n      dup2\n      mstore\n      swap1\n      0x40\n      mstore\n        /* \"ReMedi\":5590:5639  keccak256(abi.encodePacked(lib_files[i].File_id)) */\n      dup1\n      mload\n      swap1\n      0x20\n      add\n      keccak256\n        /* \"ReMedi\":5590:5702  keccak256(abi.encodePacked(lib_files[i].File_id)) ==\r... */\n      eq\n        /* \"ReMedi\":5564:5799  if (\r... */\n      iszero\n      tag_193\n      jumpi\n        /* \"ReMedi\":5745:5779  revert(\"already given the access\") */\n      mload(0x40)\n      0x08c379a000000000000000000000000000000000000000000000000000000000\n      dup2\n      mstore\n      0x04\n      add\n      tag_194\n      swap1\n      tag_195\n      jump\t// in\n    tag_194:\n      mload(0x40)\n      dup1\n      swap2\n      sub\n      swap1\n      revert\n        /* \"ReMedi\":5564:5799  if (\r... */\n    tag_193:\n        /* \"ReMedi\":5540:5543  i++ */\n      dup1\n      dup1\n      tag_196\n      swap1\n      tag_197\n      jump\t// in\n    tag_196:\n      swap2\n      pop\n      pop\n        /* \"ReMedi\":5498:5814  for (uint256 i = 0; i < lib_files.length; i++) {\r... */\n      jump(tag_187)\n    tag_188:\n      pop\n        /* \"ReMedi\":5828:5840  access_files */\n      0x02\n        /* \"ReMedi\":5828:5848  access_files[doctor] */\n      0x00\n        /* \"ReMedi\":5841:5847  doctor */\n      dup6\n        /* \"ReMedi\":5828:5848  access_files[doctor] */\n      0xffffffffffffffffffffffffffffffffffffffff\n      and\n      0xffffffffffffffffffffffffffffffffffffffff\n      and\n      dup2\n      mstore\n      0x20\n      add\n      swap1\n      dup2\n      mstore\n      0x20\n      add\n      0x00\n      keccak256\n        /* \"ReMedi\":5872:5886  patientToFiles */\n      0x01\n        /* \"ReMedi\":5872:5898  patientToFiles[msg.sender] */\n      0x00\n        /* \"ReMedi\":5887:5897  msg.sender */\n      caller\n        /* \"ReMedi\":5872:5898  patientToFiles[msg.sender] */\n      0xffffffffffffffffffffffffffffffffffffffff\n      and\n      0xffffffffffffffffffffffffffffffffffffffff\n      and\n      dup2\n      mstore\n      0x20\n      add\n      swap1\n      dup2\n      mstore\n      0x20\n      add\n      0x00\n      keccak256\n        /* \"ReMedi\":5899:5930  find_file_in_patient(file_hash) */\n      tag_198\n        /* \"ReMedi\":5920:5929  file_hash */\n      dup6\n        /* \"ReMedi\":5899:5919  find_file_in_patient */\n      tag_158\n        /* \"ReMedi\":5899:5930  find_file_in_patient(file_hash) */\n      jump\t// in\n    tag_198:\n        /* \"ReMedi\":5872:5931  patientToFiles[msg.sender][find_file_in_patient(file_hash)] */\n      dup2\n      sload\n      dup2\n      lt\n      tag_199\n      jumpi\n      mstore(0x00, 0x4e487b7100000000000000000000000000000000000000000000000000000000)\n      mstore(0x04, 0x32)\n      revert(0x00, 0x24)\n    tag_199:\n      swap1\n      0x00\n      mstore\n      keccak256(0x00, 0x20)\n      swap1\n      0x04\n      mul\n      add\n        /* \"ReMedi\":5828:5946  access_files[doctor].push(\r... */\n      swap1\n      dup1\n      0x01\n      dup2\n      sload\n      add\n      dup1\n      dup3\n      sstore\n      dup1\n      swap2\n      pop\n      pop\n      0x01\n      swap1\n      sub\n      swap1\n      0x00\n      mstore\n      keccak256(0x00, 0x20)\n      swap1\n      0x04\n      mul\n      add\n      0x00\n      swap1\n      swap2\n      swap1\n      swap2\n      swap1\n      swap2\n      pop\n      0x00\n      dup3\n      add\n      dup2\n      0x00\n      add\n      swap1\n      dup1\n      sload\n      tag_202\n      swap1\n      tag_53\n      jump\t// in\n    tag_202:\n      tag_203\n      swap3\n      swap2\n      swap1\n      tag_154\n      jump\t// in\n    tag_203:\n      pop\n      0x01\n      dup3\n      add\n      0x00\n      swap1\n      sload\n      swap1\n      0x0100\n      exp\n      swap1\n      div\n      0xffffffffffffffffffffffffffffffffffffffff\n      and\n      dup2\n      0x01\n      add\n      exp(0x0100, 0x00)\n      dup2\n      sload\n      dup2\n      0xffffffffffffffffffffffffffffffffffffffff\n      mul\n      not\n      and\n      swap1\n      dup4\n      0xffffffffffffffffffffffffffffffffffffffff\n      and\n      mul\n      or\n      swap1\n      sstore\n      pop\n      0x02\n      dup3\n      add\n      dup2\n      0x02\n      add\n      swap1\n      dup1\n      sload\n      tag_204\n      swap1\n      tag_53\n      jump\t// in\n    tag_204:\n      tag_205\n      swap3\n      swap2\n      swap1\n      tag_154\n      jump\t// in\n    tag_205:\n      pop\n      0x03\n      dup3\n      add\n      dup2\n      0x03\n      add\n      swap1\n      dup1\n      sload\n      tag_206\n      swap1\n      tag_53\n      jump\t// in\n    tag_206:\n      tag_207\n      swap3\n      swap2\n      swap1\n      tag_154\n      jump\t// in\n    tag_207:\n      pop\n      pop\n      pop\n        /* \"ReMedi\":5084:5958  if (find_doctor_in_patient(doctor) == (MAX_INT)) {\r... */\n      pop\n    tag_168:\n        /* \"ReMedi\":4816:5965  function grant_FileAccess(address doctor, string memory file_hash)\r... */\n      pop\n      pop\n      pop\n      jump\t// out\n        /* \"ReMedi\":5973:6990  function denied_FileAccess(address doctor, string memory file_hash)\r... */\n    tag_45:\n        /* \"ReMedi\":6084:6094  msg.sender */\n      caller\n        /* \"ReMedi\":851:854  0x0 */\n      0x00\n        /* \"ReMedi\":815:855  patients[user].Patient_id > address(0x0) */\n      0xffffffffffffffffffffffffffffffffffffffff\n      and\n        /* \"ReMedi\":815:823  patients */\n      0x03\n        /* \"ReMedi\":815:829  patients[user] */\n      0x00\n        /* \"ReMedi\":824:828  user */\n      dup4\n        /* \"ReMedi\":815:829  patients[user] */\n      0xffffffffffffffffffffffffffffffffffffffff\n      and\n      0xffffffffffffffffffffffffffffffffffffffff\n      and\n      dup2\n      mstore\n      0x20\n      add\n      swap1\n      dup2\n      mstore\n      0x20\n      add\n      0x00\n      keccak256\n        /* \"ReMedi\":815:840  patients[user].Patient_id */\n      0x00\n      add\n      0x00\n      swap1\n      sload\n      swap1\n      0x0100\n      exp\n      swap1\n      div\n      0xffffffffffffffffffffffffffffffffffffffff\n      and\n        /* \"ReMedi\":815:855  patients[user].Patient_id > address(0x0) */\n      0xffffffffffffffffffffffffffffffffffffffff\n      and\n      gt\n        /* \"ReMedi\":807:856  require(patients[user].Patient_id > address(0x0)) */\n      tag_209\n      jumpi\n      0x00\n      dup1\n      revert\n    tag_209:\n        /* \"ReMedi\":6149:6155  doctor */\n      dup3\n        /* \"ReMedi\":6120:6155  doctors[doctor].Doctor_id == doctor */\n      0xffffffffffffffffffffffffffffffffffffffff\n      and\n        /* \"ReMedi\":6120:6127  doctors */\n      0x04\n        /* \"ReMedi\":6120:6135  doctors[doctor] */\n      0x00\n        /* \"ReMedi\":6128:6134  doctor */\n      dup6\n        /* \"ReMedi\":6120:6135  doctors[doctor] */\n      0xffffffffffffffffffffffffffffffffffffffff\n      and\n      0xffffffffffffffffffffffffffffffffffffffff\n      and\n      dup2\n      mstore\n      0x20\n      add\n      swap1\n      dup2\n      mstore\n      0x20\n      add\n      0x00\n      keccak256\n        /* \"ReMedi\":6120:6145  doctors[doctor].Doctor_id */\n      0x00\n      add\n      0x00\n      swap1\n      sload\n      swap1\n      0x0100\n      exp\n      swap1\n      div\n      0xffffffffffffffffffffffffffffffffffffffff\n      and\n        /* \"ReMedi\":6120:6155  doctors[doctor].Doctor_id == doctor */\n      0xffffffffffffffffffffffffffffffffffffffff\n      and\n      eq\n        /* \"ReMedi\":6112:6156  require(doctors[doctor].Doctor_id == doctor) */\n      tag_211\n      jumpi\n      0x00\n      dup1\n      revert\n    tag_211:\n        /* \"ReMedi\":6202:6203  0 */\n      0x00\n        /* \"ReMedi\":6171:6183  access_files */\n      0x02\n        /* \"ReMedi\":6171:6191  access_files[doctor] */\n      0x00\n        /* \"ReMedi\":6184:6190  doctor */\n      dup6\n        /* \"ReMedi\":6171:6191  access_files[doctor] */\n      0xffffffffffffffffffffffffffffffffffffffff\n      and\n      0xffffffffffffffffffffffffffffffffffffffff\n      and\n      dup2\n      mstore\n      0x20\n      add\n      swap1\n      dup2\n      mstore\n      0x20\n      add\n      0x00\n      keccak256\n        /* \"ReMedi\":6171:6198  access_files[doctor].length */\n      dup1\n      sload\n      swap1\n      pop\n        /* \"ReMedi\":6171:6203  access_files[doctor].length == 0 */\n      eq\n        /* \"ReMedi\":6167:6695  if (access_files[doctor].length == 0) revert(\"There is no element\");\r... */\n      iszero\n      tag_212\n      jumpi\n        /* \"ReMedi\":6205:6234  revert(\"There is no element\") */\n      mload(0x40)\n      0x08c379a000000000000000000000000000000000000000000000000000000000\n      dup2\n      mstore\n      0x04\n      add\n      tag_213\n      swap1\n      tag_214\n      jump\t// in\n    tag_213:\n      mload(0x40)\n      dup1\n      swap2\n      sub\n      swap1\n      revert\n        /* \"ReMedi\":6167:6695  if (access_files[doctor].length == 0) revert(\"There is no element\");\r... */\n    tag_212:\n        /* \"ReMedi\":6285:6286  1 */\n      0x01\n        /* \"ReMedi\":6254:6266  access_files */\n      0x02\n        /* \"ReMedi\":6254:6274  access_files[doctor] */\n      0x00\n        /* \"ReMedi\":6267:6273  doctor */\n      dup6\n        /* \"ReMedi\":6254:6274  access_files[doctor] */\n      0xffffffffffffffffffffffffffffffffffffffff\n      and\n      0xffffffffffffffffffffffffffffffffffffffff\n      and\n      dup2\n      mstore\n      0x20\n      add\n      swap1\n      dup2\n      mstore\n      0x20\n      add\n      0x00\n      keccak256\n        /* \"ReMedi\":6254:6281  access_files[doctor].length */\n      dup1\n      sload\n      swap1\n      pop\n        /* \"ReMedi\":6254:6286  access_files[doctor].length == 1 */\n      eq\n        /* \"ReMedi\":6250:6695  if (access_files[doctor].length == 1) {\r... */\n      iszero\n      tag_216\n      jumpi\n        /* \"ReMedi\":6303:6317  uint256 docpos */\n      0x00\n        /* \"ReMedi\":6320:6350  find_doctor_in_patient(doctor) */\n      tag_217\n        /* \"ReMedi\":6343:6349  doctor */\n      dup5\n        /* \"ReMedi\":6320:6342  find_doctor_in_patient */\n      tag_149\n        /* \"ReMedi\":6320:6350  find_doctor_in_patient(doctor) */\n      jump\t// in\n    tag_217:\n        /* \"ReMedi\":6303:6350  uint256 docpos = find_doctor_in_patient(doctor) */\n      swap1\n      pop\n        /* \"ReMedi\":6380:6387  MAX_INT */\n      sload(0x00)\n        /* \"ReMedi\":6369:6375  docpos */\n      dup2\n        /* \"ReMedi\":6369:6388  docpos == (MAX_INT) */\n      eq\n        /* \"ReMedi\":6365:6466  if (docpos == (MAX_INT)) {\r... */\n      iszero\n      tag_218\n      jumpi\n        /* \"ReMedi\":6409:6450  revert(\"Doctor is already not in access\") */\n      mload(0x40)\n      0x08c379a000000000000000000000000000000000000000000000000000000000\n      dup2\n      mstore\n      0x04\n      add\n      tag_219\n      swap1\n      tag_220\n      jump\t// in\n    tag_219:\n      mload(0x40)\n      dup1\n      swap2\n      sub\n      swap1\n      revert\n        /* \"ReMedi\":6365:6466  if (docpos == (MAX_INT)) {\r... */\n    tag_218:\n        /* \"ReMedi\":6526:6534  patients */\n      0x03\n        /* \"ReMedi\":6526:6546  patients[msg.sender] */\n      0x00\n        /* \"ReMedi\":6535:6545  msg.sender */\n      caller\n        /* \"ReMedi\":6526:6546  patients[msg.sender] */\n      0xffffffffffffffffffffffffffffffffffffffff\n      and\n      0xffffffffffffffffffffffffffffffffffffffff\n      and\n      dup2\n      mstore\n      0x20\n      add\n      swap1\n      dup2\n      mstore\n      0x20\n      add\n      0x00\n      keccak256\n        /* \"ReMedi\":6526:6579  patients[msg.sender]\r... */\n      0x02\n      add\n        /* \"ReMedi\":6625:6626  1 */\n      0x01\n        /* \"ReMedi\":6580:6588  patients */\n      0x03\n        /* \"ReMedi\":6580:6600  patients[msg.sender] */\n      0x00\n        /* \"ReMedi\":6589:6599  msg.sender */\n      caller\n        /* \"ReMedi\":6580:6600  patients[msg.sender] */\n      0xffffffffffffffffffffffffffffffffffffffff\n      and\n      0xffffffffffffffffffffffffffffffffffffffff\n      and\n      dup2\n      mstore\n      0x20\n      add\n      swap1\n      dup2\n      mstore\n      0x20\n      add\n      0x00\n      keccak256\n        /* \"ReMedi\":6580:6615  patients[msg.sender].Access_doctors */\n      0x02\n      add\n        /* \"ReMedi\":6580:6622  patients[msg.sender].Access_doctors.length */\n      dup1\n      sload\n      swap1\n      pop\n        /* \"ReMedi\":6580:6626  patients[msg.sender].Access_doctors.length - 1 */\n      tag_221\n      swap2\n      swap1\n      tag_222\n      jump\t// in\n    tag_221:\n        /* \"ReMedi\":6526:6627  patients[msg.sender]\r... */\n      dup2\n      sload\n      dup2\n      lt\n      tag_223\n      jumpi\n      mstore(0x00, 0x4e487b7100000000000000000000000000000000000000000000000000000000)\n      mstore(0x04, 0x32)\n      revert(0x00, 0x24)\n    tag_223:\n      swap1\n      0x00\n      mstore\n      keccak256(0x00, 0x20)\n      add\n      0x00\n      swap1\n      sload\n      swap1\n      0x0100\n      exp\n      swap1\n      div\n      0xffffffffffffffffffffffffffffffffffffffff\n      and\n        /* \"ReMedi\":6480:6488  patients */\n      0x03\n        /* \"ReMedi\":6480:6500  patients[msg.sender] */\n      0x00\n        /* \"ReMedi\":6489:6499  msg.sender */\n      caller\n        /* \"ReMedi\":6480:6500  patients[msg.sender] */\n      0xffffffffffffffffffffffffffffffffffffffff\n      and\n      0xffffffffffffffffffffffffffffffffffffffff\n      and\n      dup2\n      mstore\n      0x20\n      add\n      swap1\n      dup2\n      mstore\n      0x20\n      add\n      0x00\n      keccak256\n        /* \"ReMedi\":6480:6515  patients[msg.sender].Access_doctors */\n      0x02\n      add\n        /* \"ReMedi\":6516:6522  docpos */\n      dup3\n        /* \"ReMedi\":6480:6523  patients[msg.sender].Access_doctors[docpos] */\n      dup2\n      sload\n      dup2\n      lt\n      tag_225\n      jumpi\n      mstore(0x00, 0x4e487b7100000000000000000000000000000000000000000000000000000000)\n      mstore(0x04, 0x32)\n      revert(0x00, 0x24)\n    tag_225:\n      swap1\n      0x00\n      mstore\n      keccak256(0x00, 0x20)\n      add\n      0x00\n        /* \"ReMedi\":6480:6627  patients[msg.sender].Access_doctors[docpos] = patients[msg.sender]\r... */\n      0x0100\n      exp\n      dup2\n      sload\n      dup2\n      0xffffffffffffffffffffffffffffffffffffffff\n      mul\n      not\n      and\n      swap1\n      dup4\n      0xffffffffffffffffffffffffffffffffffffffff\n      and\n      mul\n      or\n      swap1\n      sstore\n      pop\n        /* \"ReMedi\":6642:6650  patients */\n      0x03\n        /* \"ReMedi\":6642:6662  patients[msg.sender] */\n      0x00\n        /* \"ReMedi\":6651:6661  msg.sender */\n      caller\n        /* \"ReMedi\":6642:6662  patients[msg.sender] */\n      0xffffffffffffffffffffffffffffffffffffffff\n      and\n      0xffffffffffffffffffffffffffffffffffffffff\n      and\n      dup2\n      mstore\n      0x20\n      add\n      swap1\n      dup2\n      mstore\n      0x20\n      add\n      0x00\n      keccak256\n        /* \"ReMedi\":6642:6677  patients[msg.sender].Access_doctors */\n      0x02\n      add\n        /* \"ReMedi\":6642:6683  patients[msg.sender].Access_doctors.pop() */\n      dup1\n      sload\n      dup1\n      tag_227\n      jumpi\n      mstore(0x00, 0x4e487b7100000000000000000000000000000000000000000000000000000000)\n      mstore(0x04, 0x31)\n      revert(0x00, 0x24)\n    tag_227:\n      0x01\n      swap1\n      sub\n      dup2\n      dup2\n      swap1\n      0x00\n      mstore\n      keccak256(0x00, 0x20)\n      add\n      exp(0x0100, 0x00)\n      dup2\n      sload\n      swap1\n      0xffffffffffffffffffffffffffffffffffffffff\n      mul\n      not\n      and\n      swap1\n      sstore\n      swap1\n      sstore\n        /* \"ReMedi\":6250:6695  if (access_files[doctor].length == 1) {\r... */\n      pop\n    tag_216:\n        /* \"ReMedi\":6705:6716  uint256 pos */\n      0x00\n        /* \"ReMedi\":6719:6757  find_file_in_doctor(doctor, file_hash) */\n      tag_229\n        /* \"ReMedi\":6739:6745  doctor */\n      dup5\n        /* \"ReMedi\":6747:6756  file_hash */\n      dup5\n        /* \"ReMedi\":6719:6738  find_file_in_doctor */\n      tag_230\n        /* \"ReMedi\":6719:6757  find_file_in_doctor(doctor, file_hash) */\n      jump\t// in\n    tag_229:\n        /* \"ReMedi\":6705:6757  uint256 pos = find_file_in_doctor(doctor, file_hash) */\n      swap1\n      pop\n        /* \"ReMedi\":6780:6787  MAX_INT */\n      sload(0x00)\n        /* \"ReMedi\":6772:6775  pos */\n      dup2\n        /* \"ReMedi\":6772:6788  pos == (MAX_INT) */\n      eq\n        /* \"ReMedi\":6768:6829  if (pos == (MAX_INT)) revert(\"File is already out of access\") */\n      iszero\n      tag_231\n      jumpi\n        /* \"ReMedi\":6790:6829  revert(\"File is already out of access\") */\n      mload(0x40)\n      0x08c379a000000000000000000000000000000000000000000000000000000000\n      dup2\n      mstore\n      0x04\n      add\n      tag_232\n      swap1\n      tag_233\n      jump\t// in\n    tag_232:\n      mload(0x40)\n      dup1\n      swap2\n      sub\n      swap1\n      revert\n        /* \"ReMedi\":6768:6829  if (pos == (MAX_INT)) revert(\"File is already out of access\") */\n    tag_231:\n        /* \"ReMedi\":6868:6880  access_files */\n      0x02\n        /* \"ReMedi\":6868:6888  access_files[doctor] */\n      0x00\n        /* \"ReMedi\":6881:6887  doctor */\n      dup6\n        /* \"ReMedi\":6868:6888  access_files[doctor] */\n      0xffffffffffffffffffffffffffffffffffffffff\n      and\n      0xffffffffffffffffffffffffffffffffffffffff\n      and\n      dup2\n      mstore\n      0x20\n      add\n      swap1\n      dup2\n      mstore\n      0x20\n      add\n      0x00\n      keccak256\n        /* \"ReMedi\":6933:6934  1 */\n      0x01\n        /* \"ReMedi\":6903:6915  access_files */\n      0x02\n        /* \"ReMedi\":6903:6923  access_files[doctor] */\n      0x00\n        /* \"ReMedi\":6916:6922  doctor */\n      dup8\n        /* \"ReMedi\":6903:6923  access_files[doctor] */\n      0xffffffffffffffffffffffffffffffffffffffff\n      and\n      0xffffffffffffffffffffffffffffffffffffffff\n      and\n      dup2\n      mstore\n      0x20\n      add\n      swap1\n      dup2\n      mstore\n      0x20\n      add\n      0x00\n      keccak256\n        /* \"ReMedi\":6903:6930  access_files[doctor].length */\n      dup1\n      sload\n      swap1\n      pop\n        /* \"ReMedi\":6903:6934  access_files[doctor].length - 1 */\n      tag_234\n      swap2\n      swap1\n      tag_222\n      jump\t// in\n    tag_234:\n        /* \"ReMedi\":6868:6945  access_files[doctor][\r... */\n      dup2\n      sload\n      dup2\n      lt\n      tag_235\n      jumpi\n      mstore(0x00, 0x4e487b7100000000000000000000000000000000000000000000000000000000)\n      mstore(0x04, 0x32)\n      revert(0x00, 0x24)\n    tag_235:\n      swap1\n      0x00\n      mstore\n      keccak256(0x00, 0x20)\n      swap1\n      0x04\n      mul\n      add\n        /* \"ReMedi\":6840:6852  access_files */\n      0x02\n        /* \"ReMedi\":6840:6860  access_files[doctor] */\n      0x00\n        /* \"ReMedi\":6853:6859  doctor */\n      dup7\n        /* \"ReMedi\":6840:6860  access_files[doctor] */\n      0xffffffffffffffffffffffffffffffffffffffff\n      and\n      0xffffffffffffffffffffffffffffffffffffffff\n      and\n      dup2\n      mstore\n      0x20\n      add\n      swap1\n      dup2\n      mstore\n      0x20\n      add\n      0x00\n      keccak256\n        /* \"ReMedi\":6861:6864  pos */\n      dup3\n        /* \"ReMedi\":6840:6865  access_files[doctor][pos] */\n      dup2\n      sload\n      dup2\n      lt\n      tag_237\n      jumpi\n      mstore(0x00, 0x4e487b7100000000000000000000000000000000000000000000000000000000)\n      mstore(0x04, 0x32)\n      revert(0x00, 0x24)\n    tag_237:\n      swap1\n      0x00\n      mstore\n      keccak256(0x00, 0x20)\n      swap1\n      0x04\n      mul\n      add\n        /* \"ReMedi\":6840:6945  access_files[doctor][pos] = access_files[doctor][\r... */\n      0x00\n      dup3\n      add\n      dup2\n      0x00\n      add\n      swap1\n      dup1\n      sload\n      tag_239\n      swap1\n      tag_53\n      jump\t// in\n    tag_239:\n      tag_240\n      swap3\n      swap2\n      swap1\n      tag_154\n      jump\t// in\n    tag_240:\n      pop\n      0x01\n      dup3\n      add\n      0x00\n      swap1\n      sload\n      swap1\n      0x0100\n      exp\n      swap1\n      div\n      0xffffffffffffffffffffffffffffffffffffffff\n      and\n      dup2\n      0x01\n      add\n      exp(0x0100, 0x00)\n      dup2\n      sload\n      dup2\n      0xffffffffffffffffffffffffffffffffffffffff\n      mul\n      not\n      and\n      swap1\n      dup4\n      0xffffffffffffffffffffffffffffffffffffffff\n      and\n      mul\n      or\n      swap1\n      sstore\n      pop\n      0x02\n      dup3\n      add\n      dup2\n      0x02\n      add\n      swap1\n      dup1\n      sload\n      tag_241\n      swap1\n      tag_53\n      jump\t// in\n    tag_241:\n      tag_242\n      swap3\n      swap2\n      swap1\n      tag_154\n      jump\t// in\n    tag_242:\n      pop\n      0x03\n      dup3\n      add\n      dup2\n      0x03\n      add\n      swap1\n      dup1\n      sload\n      tag_243\n      swap1\n      tag_53\n      jump\t// in\n    tag_243:\n      tag_244\n      swap3\n      swap2\n      swap1\n      tag_154\n      jump\t// in\n    tag_244:\n      pop\n      swap1\n      pop\n      pop\n        /* \"ReMedi\":6956:6968  access_files */\n      0x02\n        /* \"ReMedi\":6956:6976  access_files[doctor] */\n      0x00\n        /* \"ReMedi\":6969:6975  doctor */\n      dup6\n        /* \"ReMedi\":6956:6976  access_files[doctor] */\n      0xffffffffffffffffffffffffffffffffffffffff\n      and\n      0xffffffffffffffffffffffffffffffffffffffff\n      and\n      dup2\n      mstore\n      0x20\n      add\n      swap1\n      dup2\n      mstore\n      0x20\n      add\n      0x00\n      keccak256\n        /* \"ReMedi\":6956:6982  access_files[doctor].pop() */\n      dup1\n      sload\n      dup1\n      tag_245\n      jumpi\n      mstore(0x00, 0x4e487b7100000000000000000000000000000000000000000000000000000000)\n      mstore(0x04, 0x31)\n      revert(0x00, 0x24)\n    tag_245:\n      0x01\n      swap1\n      sub\n      dup2\n      dup2\n      swap1\n      0x00\n      mstore\n      keccak256(0x00, 0x20)\n      swap1\n      0x04\n      mul\n      add\n      0x00\n      dup1\n      dup3\n      add\n      0x00\n      tag_247\n      swap2\n      swap1\n      tag_248\n      jump\t// in\n    tag_247:\n      0x01\n      dup3\n      add\n      exp(0x0100, 0x00)\n      dup2\n      sload\n      swap1\n      0xffffffffffffffffffffffffffffffffffffffff\n      mul\n      not\n      and\n      swap1\n      sstore\n      0x02\n      dup3\n      add\n      0x00\n      tag_249\n      swap2\n      swap1\n      tag_248\n      jump\t// in\n    tag_249:\n      0x03\n      dup3\n      add\n      0x00\n      tag_250\n      swap2\n      swap1\n      tag_248\n      jump\t// in\n    tag_250:\n      pop\n      pop\n      swap1\n      sstore\n        /* \"ReMedi\":867:868  _ */\n      pop\n        /* \"ReMedi\":5973:6990  function denied_FileAccess(address doctor, string memory file_hash)\r... */\n      pop\n      pop\n      pop\n      jump\t// out\n        /* \"ReMedi\":4330:4808  function find_doctor_in_patient(address doctor)\r... */\n    tag_149:\n        /* \"ReMedi\":4427:4434  uint256 */\n      0x00\n        /* \"ReMedi\":4477:4480  0x0 */\n      dup1\n        /* \"ReMedi\":4460:4481  doctor > address(0x0) */\n      0xffffffffffffffffffffffffffffffffffffffff\n      and\n        /* \"ReMedi\":4460:4466  doctor */\n      dup3\n        /* \"ReMedi\":4460:4481  doctor > address(0x0) */\n      0xffffffffffffffffffffffffffffffffffffffff\n      and\n      gt\n        /* \"ReMedi\":4452:4482  require(doctor > address(0x0)) */\n      tag_252\n      jumpi\n      0x00\n      dup1\n      revert\n    tag_252:\n        /* \"ReMedi\":4493:4504  uint256 len */\n      0x00\n        /* \"ReMedi\":4507:4515  patients */\n      0x03\n        /* \"ReMedi\":4507:4527  patients[msg.sender] */\n      0x00\n        /* \"ReMedi\":4516:4526  msg.sender */\n      caller\n        /* \"ReMedi\":4507:4527  patients[msg.sender] */\n      0xffffffffffffffffffffffffffffffffffffffff\n      and\n      0xffffffffffffffffffffffffffffffffffffffff\n      and\n      dup2\n      mstore\n      0x20\n      add\n      swap1\n      dup2\n      mstore\n      0x20\n      add\n      0x00\n      keccak256\n        /* \"ReMedi\":4507:4542  patients[msg.sender].Access_doctors */\n      0x02\n      add\n        /* \"ReMedi\":4507:4549  patients[msg.sender].Access_doctors.length */\n      dup1\n      sload\n      swap1\n      pop\n        /* \"ReMedi\":4493:4549  uint256 len = patients[msg.sender].Access_doctors.length */\n      swap1\n      pop\n        /* \"ReMedi\":4565:4574  uint256 i */\n      0x00\n        /* \"ReMedi\":4560:4717  for (uint256 i = 0; i < len; i++) {\r... */\n    tag_253:\n        /* \"ReMedi\":4584:4587  len */\n      dup2\n        /* \"ReMedi\":4580:4581  i */\n      dup2\n        /* \"ReMedi\":4580:4587  i < len */\n      lt\n        /* \"ReMedi\":4560:4717  for (uint256 i = 0; i < len; i++) {\r... */\n      iszero\n      tag_254\n      jumpi\n        /* \"ReMedi\":4655:4661  doctor */\n      dup4\n        /* \"ReMedi\":4613:4661  patients[msg.sender].Access_doctors[i] == doctor */\n      0xffffffffffffffffffffffffffffffffffffffff\n      and\n        /* \"ReMedi\":4613:4621  patients */\n      0x03\n        /* \"ReMedi\":4613:4633  patients[msg.sender] */\n      0x00\n        /* \"ReMedi\":4622:4632  msg.sender */\n      caller\n        /* \"ReMedi\":4613:4633  patients[msg.sender] */\n      0xffffffffffffffffffffffffffffffffffffffff\n      and\n      0xffffffffffffffffffffffffffffffffffffffff\n      and\n      dup2\n      mstore\n      0x20\n      add\n      swap1\n      dup2\n      mstore\n      0x20\n      add\n      0x00\n      keccak256\n        /* \"ReMedi\":4613:4648  patients[msg.sender].Access_doctors */\n      0x02\n      add\n        /* \"ReMedi\":4649:4650  i */\n      dup3\n        /* \"ReMedi\":4613:4651  patients[msg.sender].Access_doctors[i] */\n      dup2\n      sload\n      dup2\n      lt\n      tag_256\n      jumpi\n      mstore(0x00, 0x4e487b7100000000000000000000000000000000000000000000000000000000)\n      mstore(0x04, 0x32)\n      revert(0x00, 0x24)\n    tag_256:\n      swap1\n      0x00\n      mstore\n      keccak256(0x00, 0x20)\n      add\n      0x00\n      swap1\n      sload\n      swap1\n      0x0100\n      exp\n      swap1\n      div\n      0xffffffffffffffffffffffffffffffffffffffff\n      and\n        /* \"ReMedi\":4613:4661  patients[msg.sender].Access_doctors[i] == doctor */\n      0xffffffffffffffffffffffffffffffffffffffff\n      and\n      eq\n        /* \"ReMedi\":4609:4706  if (patients[msg.sender].Access_doctors[i] == doctor) {\r... */\n      iszero\n      tag_258\n      jumpi\n        /* \"ReMedi\":4689:4690  i */\n      dup1\n        /* \"ReMedi\":4682:4690  return i */\n      swap3\n      pop\n      pop\n      pop\n      jump(tag_251)\n        /* \"ReMedi\":4609:4706  if (patients[msg.sender].Access_doctors[i] == doctor) {\r... */\n    tag_258:\n        /* \"ReMedi\":4589:4592  i++ */\n      dup1\n      dup1\n      tag_259\n      swap1\n      tag_197\n      jump\t// in\n    tag_259:\n      swap2\n      pop\n      pop\n        /* \"ReMedi\":4560:4717  for (uint256 i = 0; i < len; i++) {\r... */\n      jump(tag_253)\n    tag_254:\n      pop\n        /* \"ReMedi\":4735:4742  MAX_INT */\n      sload(0x00)\n        /* \"ReMedi\":4727:4743  return (MAX_INT) */\n      swap2\n      pop\n      pop\n        /* \"ReMedi\":4330:4808  function find_doctor_in_patient(address doctor)\r... */\n    tag_251:\n      swap2\n      swap1\n      pop\n      jump\t// out\n        /* \"ReMedi\":3192:3763  function find_file_in_patient(string memory file_hash)\r... */\n    tag_158:\n        /* \"ReMedi\":3297:3304  uint256 */\n      0x00\n        /* \"ReMedi\":3372:3385  keccak256(\"\") */\n      0xc5d2460186f7233c927e7db2dcc703c0e500b653ca82273b7bfad8045d85a470\n        /* \"ReMedi\":3357:3366  file_hash */\n      dup3\n        /* \"ReMedi\":3340:3367  abi.encodePacked(file_hash) */\n      add(0x20, mload(0x40))\n      tag_261\n      swap2\n      swap1\n      tag_85\n      jump\t// in\n    tag_261:\n      mload(0x40)\n      0x20\n      dup2\n      dup4\n      sub\n      sub\n      dup2\n      mstore\n      swap1\n      0x40\n      mstore\n        /* \"ReMedi\":3330:3368  keccak256(abi.encodePacked(file_hash)) */\n      dup1\n      mload\n      swap1\n      0x20\n      add\n      keccak256\n        /* \"ReMedi\":3330:3385  keccak256(abi.encodePacked(file_hash)) != keccak256(\"\") */\n      eq\n      iszero\n        /* \"ReMedi\":3322:3386  require(keccak256(abi.encodePacked(file_hash)) != keccak256(\"\")) */\n      tag_262\n      jumpi\n      0x00\n      dup1\n      revert\n    tag_262:\n        /* \"ReMedi\":3397:3421  File[] storage lib_files */\n      0x00\n        /* \"ReMedi\":3424:3438  patientToFiles */\n      0x01\n        /* \"ReMedi\":3424:3450  patientToFiles[msg.sender] */\n      0x00\n        /* \"ReMedi\":3439:3449  msg.sender */\n      caller\n        /* \"ReMedi\":3424:3450  patientToFiles[msg.sender] */\n      0xffffffffffffffffffffffffffffffffffffffff\n      and\n      0xffffffffffffffffffffffffffffffffffffffff\n      and\n      dup2\n      mstore\n      0x20\n      add\n      swap1\n      dup2\n      mstore\n      0x20\n      add\n      0x00\n      keccak256\n        /* \"ReMedi\":3397:3450  File[] storage lib_files = patientToFiles[msg.sender] */\n      swap1\n      pop\n        /* \"ReMedi\":3466:3475  uint256 i */\n      0x00\n        /* \"ReMedi\":3461:3729  for (uint256 i = 0; i < lib_files.length; i++) {\r... */\n    tag_263:\n        /* \"ReMedi\":3485:3494  lib_files */\n      dup2\n        /* \"ReMedi\":3485:3501  lib_files.length */\n      dup1\n      sload\n      swap1\n      pop\n        /* \"ReMedi\":3481:3482  i */\n      dup2\n        /* \"ReMedi\":3481:3501  i < lib_files.length */\n      lt\n        /* \"ReMedi\":3461:3729  for (uint256 i = 0; i < lib_files.length; i++) {\r... */\n      iszero\n      tag_264\n      jumpi\n        /* \"ReMedi\":3682:3691  file_hash */\n      dup4\n        /* \"ReMedi\":3665:3692  abi.encodePacked(file_hash) */\n      add(0x20, mload(0x40))\n      tag_266\n      swap2\n      swap1\n      tag_85\n      jump\t// in\n    tag_266:\n      mload(0x40)\n      0x20\n      dup2\n      dup4\n      sub\n      sub\n      dup2\n      mstore\n      swap1\n      0x40\n      mstore\n        /* \"ReMedi\":3655:3693  keccak256(abi.encodePacked(file_hash)) */\n      dup1\n      mload\n      swap1\n      0x20\n      add\n      keccak256\n        /* \"ReMedi\":3594:3608  patientToFiles */\n      0x01\n        /* \"ReMedi\":3594:3620  patientToFiles[msg.sender] */\n      0x00\n        /* \"ReMedi\":3609:3619  msg.sender */\n      caller\n        /* \"ReMedi\":3594:3620  patientToFiles[msg.sender] */\n      0xffffffffffffffffffffffffffffffffffffffff\n      and\n      0xffffffffffffffffffffffffffffffffffffffff\n      and\n      dup2\n      mstore\n      0x20\n      add\n      swap1\n      dup2\n      mstore\n      0x20\n      add\n      0x00\n      keccak256\n        /* \"ReMedi\":3621:3622  i */\n      dup3\n        /* \"ReMedi\":3594:3623  patientToFiles[msg.sender][i] */\n      dup2\n      sload\n      dup2\n      lt\n      tag_267\n      jumpi\n      mstore(0x00, 0x4e487b7100000000000000000000000000000000000000000000000000000000)\n      mstore(0x04, 0x32)\n      revert(0x00, 0x24)\n    tag_267:\n      swap1\n      0x00\n      mstore\n      keccak256(0x00, 0x20)\n      swap1\n      0x04\n      mul\n      add\n        /* \"ReMedi\":3594:3631  patientToFiles[msg.sender][i].File_id */\n      0x00\n      add\n        /* \"ReMedi\":3577:3632  abi.encodePacked(patientToFiles[msg.sender][i].File_id) */\n      add(0x20, mload(0x40))\n      tag_269\n      swap2\n      swap1\n      tag_270\n      jump\t// in\n    tag_269:\n      mload(0x40)\n      0x20\n      dup2\n      dup4\n      sub\n      sub\n      dup2\n      mstore\n      swap1\n      0x40\n      mstore\n        /* \"ReMedi\":3545:3651  keccak256(\r... */\n      dup1\n      mload\n      swap1\n      0x20\n      add\n      keccak256\n        /* \"ReMedi\":3545:3693  keccak256(\r... */\n      eq\n        /* \"ReMedi\":3523:3717  if (\r... */\n      iszero\n      tag_271\n      jumpi\n        /* \"ReMedi\":3716:3717  i */\n      dup1\n        /* \"ReMedi\":3709:3717  return i */\n      swap3\n      pop\n      pop\n      pop\n      jump(tag_260)\n        /* \"ReMedi\":3523:3717  if (\r... */\n    tag_271:\n        /* \"ReMedi\":3503:3506  i++ */\n      dup1\n      dup1\n      tag_272\n      swap1\n      tag_197\n      jump\t// in\n    tag_272:\n      swap2\n      pop\n      pop\n        /* \"ReMedi\":3461:3729  for (uint256 i = 0; i < lib_files.length; i++) {\r... */\n      jump(tag_263)\n    tag_264:\n      pop\n        /* \"ReMedi\":3747:3754  MAX_INT */\n      sload(0x00)\n        /* \"ReMedi\":3739:3755  return (MAX_INT) */\n      swap2\n      pop\n      pop\n        /* \"ReMedi\":3192:3763  function find_file_in_patient(string memory file_hash)\r... */\n    tag_260:\n      swap2\n      swap1\n      pop\n      jump\t// out\n        /* \"ReMedi\":3771:4322  function find_file_in_doctor(address doctor, string memory file_hash)\r... */\n    tag_230:\n        /* \"ReMedi\":3891:3898  uint256 */\n      0x00\n        /* \"ReMedi\":3966:3979  keccak256(\"\") */\n      0xc5d2460186f7233c927e7db2dcc703c0e500b653ca82273b7bfad8045d85a470\n        /* \"ReMedi\":3951:3960  file_hash */\n      dup3\n        /* \"ReMedi\":3934:3961  abi.encodePacked(file_hash) */\n      add(0x20, mload(0x40))\n      tag_274\n      swap2\n      swap1\n      tag_85\n      jump\t// in\n    tag_274:\n      mload(0x40)\n      0x20\n      dup2\n      dup4\n      sub\n      sub\n      dup2\n      mstore\n      swap1\n      0x40\n      mstore\n        /* \"ReMedi\":3924:3962  keccak256(abi.encodePacked(file_hash)) */\n      dup1\n      mload\n      swap1\n      0x20\n      add\n      keccak256\n        /* \"ReMedi\":3924:3979  keccak256(abi.encodePacked(file_hash)) != keccak256(\"\") */\n      eq\n      iszero\n        /* \"ReMedi\":3916:3980  require(keccak256(abi.encodePacked(file_hash)) != keccak256(\"\")) */\n      tag_275\n      jumpi\n      0x00\n      dup1\n      revert\n    tag_275:\n        /* \"ReMedi\":3991:4015  File[] storage lib_files */\n      0x00\n        /* \"ReMedi\":4018:4030  access_files */\n      0x02\n        /* \"ReMedi\":4018:4038  access_files[doctor] */\n      0x00\n        /* \"ReMedi\":4031:4037  doctor */\n      dup6\n        /* \"ReMedi\":4018:4038  access_files[doctor] */\n      0xffffffffffffffffffffffffffffffffffffffff\n      and\n      0xffffffffffffffffffffffffffffffffffffffff\n      and\n      dup2\n      mstore\n      0x20\n      add\n      swap1\n      dup2\n      mstore\n      0x20\n      add\n      0x00\n      keccak256\n        /* \"ReMedi\":3991:4038  File[] storage lib_files = access_files[doctor] */\n      swap1\n      pop\n        /* \"ReMedi\":4054:4063  uint256 i */\n      0x00\n        /* \"ReMedi\":4049:4288  for (uint256 i = 0; i < lib_files.length; i++) {\r... */\n    tag_276:\n        /* \"ReMedi\":4073:4082  lib_files */\n      dup2\n        /* \"ReMedi\":4073:4089  lib_files.length */\n      dup1\n      sload\n      swap1\n      pop\n        /* \"ReMedi\":4069:4070  i */\n      dup2\n        /* \"ReMedi\":4069:4089  i < lib_files.length */\n      lt\n        /* \"ReMedi\":4049:4288  for (uint256 i = 0; i < lib_files.length; i++) {\r... */\n      iszero\n      tag_277\n      jumpi\n        /* \"ReMedi\":4241:4250  file_hash */\n      dup4\n        /* \"ReMedi\":4224:4251  abi.encodePacked(file_hash) */\n      add(0x20, mload(0x40))\n      tag_279\n      swap2\n      swap1\n      tag_85\n      jump\t// in\n    tag_279:\n      mload(0x40)\n      0x20\n      dup2\n      dup4\n      sub\n      sub\n      dup2\n      mstore\n      swap1\n      0x40\n      mstore\n        /* \"ReMedi\":4214:4252  keccak256(abi.encodePacked(file_hash)) */\n      dup1\n      mload\n      swap1\n      0x20\n      add\n      keccak256\n        /* \"ReMedi\":4160:4172  access_files */\n      0x02\n        /* \"ReMedi\":4160:4180  access_files[doctor] */\n      0x00\n        /* \"ReMedi\":4173:4179  doctor */\n      dup8\n        /* \"ReMedi\":4160:4180  access_files[doctor] */\n      0xffffffffffffffffffffffffffffffffffffffff\n      and\n      0xffffffffffffffffffffffffffffffffffffffff\n      and\n      dup2\n      mstore\n      0x20\n      add\n      swap1\n      dup2\n      mstore\n      0x20\n      add\n      0x00\n      keccak256\n        /* \"ReMedi\":4181:4182  i */\n      dup3\n        /* \"ReMedi\":4160:4183  access_files[doctor][i] */\n      dup2\n      sload\n      dup2\n      lt\n      tag_280\n      jumpi\n      mstore(0x00, 0x4e487b7100000000000000000000000000000000000000000000000000000000)\n      mstore(0x04, 0x32)\n      revert(0x00, 0x24)\n    tag_280:\n      swap1\n      0x00\n      mstore\n      keccak256(0x00, 0x20)\n      swap1\n      0x04\n      mul\n      add\n        /* \"ReMedi\":4160:4191  access_files[doctor][i].File_id */\n      0x00\n      add\n        /* \"ReMedi\":4143:4192  abi.encodePacked(access_files[doctor][i].File_id) */\n      add(0x20, mload(0x40))\n      tag_282\n      swap2\n      swap1\n      tag_270\n      jump\t// in\n    tag_282:\n      mload(0x40)\n      0x20\n      dup2\n      dup4\n      sub\n      sub\n      dup2\n      mstore\n      swap1\n      0x40\n      mstore\n        /* \"ReMedi\":4133:4193  keccak256(abi.encodePacked(access_files[doctor][i].File_id)) */\n      dup1\n      mload\n      swap1\n      0x20\n      add\n      keccak256\n        /* \"ReMedi\":4133:4252  keccak256(abi.encodePacked(access_files[doctor][i].File_id)) ==\r... */\n      eq\n        /* \"ReMedi\":4111:4276  if (\r... */\n      iszero\n      tag_283\n      jumpi\n        /* \"ReMedi\":4275:4276  i */\n      dup1\n        /* \"ReMedi\":4268:4276  return i */\n      swap3\n      pop\n      pop\n      pop\n      jump(tag_273)\n        /* \"ReMedi\":4111:4276  if (\r... */\n    tag_283:\n        /* \"ReMedi\":4091:4094  i++ */\n      dup1\n      dup1\n      tag_284\n      swap1\n      tag_197\n      jump\t// in\n    tag_284:\n      swap2\n      pop\n      pop\n        /* \"ReMedi\":4049:4288  for (uint256 i = 0; i < lib_files.length; i++) {\r... */\n      jump(tag_276)\n    tag_277:\n      pop\n        /* \"ReMedi\":4306:4313  MAX_INT */\n      sload(0x00)\n        /* \"ReMedi\":4298:4314  return (MAX_INT) */\n      swap2\n      pop\n      pop\n        /* \"ReMedi\":3771:4322  function find_file_in_doctor(address doctor, string memory file_hash)\r... */\n    tag_273:\n      swap3\n      swap2\n      pop\n      pop\n      jump\t// out\n    tag_89:\n      dup3\n      dup1\n      sload\n      tag_285\n      swap1\n      tag_53\n      jump\t// in\n    tag_285:\n      swap1\n      0x00\n      mstore\n      keccak256(0x00, 0x20)\n      swap1\n      0x1f\n      add\n      0x20\n      swap1\n      div\n      dup2\n      add\n      swap3\n      dup3\n      tag_287\n      jumpi\n      0x00\n      dup6\n      sstore\n      jump(tag_286)\n    tag_287:\n      dup3\n      0x1f\n      lt\n      tag_288\n      jumpi\n      dup1\n      mload\n      not(0xff)\n      and\n      dup4\n      dup1\n      add\n      or\n      dup6\n      sstore\n      jump(tag_286)\n    tag_288:\n      dup3\n      dup1\n      add\n      0x01\n      add\n      dup6\n      sstore\n      dup3\n      iszero\n      tag_286\n      jumpi\n      swap2\n      dup3\n      add\n    tag_289:\n      dup3\n      dup2\n      gt\n      iszero\n      tag_290\n      jumpi\n      dup3\n      mload\n      dup3\n      sstore\n      swap2\n      0x20\n      add\n      swap2\n      swap1\n      0x01\n      add\n      swap1\n      jump(tag_289)\n    tag_290:\n    tag_286:\n      pop\n      swap1\n      pop\n      tag_291\n      swap2\n      swap1\n      tag_292\n      jump\t// in\n    tag_291:\n      pop\n      swap1\n      jump\t// out\n    tag_133:\n      dup3\n      dup1\n      sload\n      dup3\n      dup3\n      sstore\n      swap1\n      0x00\n      mstore\n      keccak256(0x00, 0x20)\n      swap1\n      dup2\n      add\n      swap3\n      dup3\n      iszero\n      tag_293\n      jumpi\n      swap2\n      0x20\n      mul\n      dup3\n      add\n    tag_294:\n      dup3\n      dup2\n      gt\n      iszero\n      tag_295\n      jumpi\n      dup3\n      mload\n      dup3\n      exp(0x0100, 0x00)\n      dup2\n      sload\n      dup2\n      0xffffffffffffffffffffffffffffffffffffffff\n      mul\n      not\n      and\n      swap1\n      dup4\n      0xffffffffffffffffffffffffffffffffffffffff\n      and\n      mul\n      or\n      swap1\n      sstore\n      pop\n      swap2\n      0x20\n      add\n      swap2\n      swap1\n      0x01\n      add\n      swap1\n      jump(tag_294)\n    tag_295:\n    tag_293:\n      pop\n      swap1\n      pop\n      tag_296\n      swap2\n      swap1\n      tag_292\n      jump\t// in\n    tag_296:\n      pop\n      swap1\n      jump\t// out\n    tag_154:\n      dup3\n      dup1\n      sload\n      tag_297\n      swap1\n      tag_53\n      jump\t// in\n    tag_297:\n      swap1\n      0x00\n      mstore\n      keccak256(0x00, 0x20)\n      swap1\n      0x1f\n      add\n      0x20\n      swap1\n      div\n      dup2\n      add\n      swap3\n      dup3\n      tag_299\n      jumpi\n      0x00\n      dup6\n      sstore\n      jump(tag_298)\n    tag_299:\n      dup3\n      0x1f\n      lt\n      tag_300\n      jumpi\n      dup1\n      sload\n      dup6\n      sstore\n      jump(tag_298)\n    tag_300:\n      dup3\n      dup1\n      add\n      0x01\n      add\n      dup6\n      sstore\n      dup3\n      iszero\n      tag_298\n      jumpi\n      0x00\n      mstore\n      keccak256(0x00, 0x20)\n      swap2\n      0x1f\n      add\n      0x20\n      swap1\n      div\n      dup3\n      add\n    tag_301:\n      dup3\n      dup2\n      gt\n      iszero\n      tag_302\n      jumpi\n      dup3\n      sload\n      dup3\n      sstore\n      swap2\n      0x01\n      add\n      swap2\n      swap1\n      0x01\n      add\n      swap1\n      jump(tag_301)\n    tag_302:\n    tag_298:\n      pop\n      swap1\n      pop\n      tag_303\n      swap2\n      swap1\n      tag_292\n      jump\t// in\n    tag_303:\n      pop\n      swap1\n      jump\t// out\n    tag_156:\n      dup3\n      dup1\n      sload\n      dup3\n      dup3\n      sstore\n      swap1\n      0x00\n      mstore\n      keccak256(0x00, 0x20)\n      swap1\n      dup2\n      add\n      swap3\n      dup3\n      iszero\n      tag_304\n      jumpi\n      0x00\n      mstore\n      keccak256(0x00, 0x20)\n      swap2\n      dup3\n      add\n    tag_305:\n      dup3\n      dup2\n      gt\n      iszero\n      tag_306\n      jumpi\n      dup3\n      sload\n      dup3\n      sstore\n      swap2\n      0x01\n      add\n      swap2\n      swap1\n      0x01\n      add\n      swap1\n      jump(tag_305)\n    tag_306:\n    tag_304:\n      pop\n      swap1\n      pop\n      tag_307\n      swap2\n      swap1\n      tag_292\n      jump\t// in\n    tag_307:\n      pop\n      swap1\n      jump\t// out\n    tag_248:\n      pop\n      dup1\n      sload\n      tag_308\n      swap1\n      tag_53\n      jump\t// in\n    tag_308:\n      0x00\n      dup3\n      sstore\n      dup1\n      0x1f\n      lt\n      tag_310\n      jumpi\n      pop\n      jump(tag_309)\n    tag_310:\n      0x1f\n      add\n      0x20\n      swap1\n      div\n      swap1\n      0x00\n      mstore\n      keccak256(0x00, 0x20)\n      swap1\n      dup2\n      add\n      swap1\n      tag_311\n      swap2\n      swap1\n      tag_292\n      jump\t// in\n    tag_311:\n    tag_309:\n      pop\n      jump\t// out\n    tag_292:\n    tag_312:\n      dup1\n      dup3\n      gt\n      iszero\n      tag_313\n      jumpi\n      0x00\n      dup2\n      0x00\n      swap1\n      sstore\n      pop\n      0x01\n      add\n      jump(tag_312)\n    tag_313:\n      pop\n      swap1\n      jump\t// out\n        /* \"#utility.yul\":7:352   */\n    tag_315:\n      0x00\n        /* \"#utility.yul\":110:176   */\n      tag_317\n        /* \"#utility.yul\":126:175   */\n      tag_318\n        /* \"#utility.yul\":168:174   */\n      dup5\n        /* \"#utility.yul\":126:175   */\n      tag_319\n      jump\t// in\n    tag_318:\n        /* \"#utility.yul\":110:176   */\n      tag_320\n      jump\t// in\n    tag_317:\n        /* \"#utility.yul\":101:176   */\n      swap1\n      pop\n        /* \"#utility.yul\":199:205   */\n      dup3\n        /* \"#utility.yul\":192:197   */\n      dup2\n        /* \"#utility.yul\":185:206   */\n      mstore\n        /* \"#utility.yul\":237:241   */\n      0x20\n        /* \"#utility.yul\":230:235   */\n      dup2\n        /* \"#utility.yul\":226:242   */\n      add\n        /* \"#utility.yul\":275:278   */\n      dup5\n        /* \"#utility.yul\":266:272   */\n      dup5\n        /* \"#utility.yul\":261:264   */\n      dup5\n        /* \"#utility.yul\":257:273   */\n      add\n        /* \"#utility.yul\":254:279   */\n      gt\n        /* \"#utility.yul\":251:253   */\n      iszero\n      tag_321\n      jumpi\n        /* \"#utility.yul\":292:293   */\n      0x00\n        /* \"#utility.yul\":289:290   */\n      dup1\n        /* \"#utility.yul\":282:294   */\n      revert\n        /* \"#utility.yul\":251:253   */\n    tag_321:\n        /* \"#utility.yul\":305:346   */\n      tag_322\n        /* \"#utility.yul\":339:345   */\n      dup5\n        /* \"#utility.yul\":334:337   */\n      dup3\n        /* \"#utility.yul\":329:332   */\n      dup6\n        /* \"#utility.yul\":305:346   */\n      tag_323\n      jump\t// in\n    tag_322:\n        /* \"#utility.yul\":91:352   */\n      pop\n      swap4\n      swap3\n      pop\n      pop\n      pop\n      jump\t// out\n        /* \"#utility.yul\":358:497   */\n    tag_324:\n      0x00\n        /* \"#utility.yul\":442:448   */\n      dup2\n        /* \"#utility.yul\":429:449   */\n      calldataload\n        /* \"#utility.yul\":420:449   */\n      swap1\n      pop\n        /* \"#utility.yul\":458:491   */\n      tag_326\n        /* \"#utility.yul\":485:490   */\n      dup2\n        /* \"#utility.yul\":458:491   */\n      tag_327\n      jump\t// in\n    tag_326:\n        /* \"#utility.yul\":410:497   */\n      swap3\n      swap2\n      pop\n      pop\n      jump\t// out\n        /* \"#utility.yul\":517:790   */\n    tag_328:\n      0x00\n        /* \"#utility.yul\":622:625   */\n      dup3\n        /* \"#utility.yul\":615:619   */\n      0x1f\n        /* \"#utility.yul\":607:613   */\n      dup4\n        /* \"#utility.yul\":603:620   */\n      add\n        /* \"#utility.yul\":599:626   */\n      slt\n        /* \"#utility.yul\":589:591   */\n      tag_330\n      jumpi\n        /* \"#utility.yul\":640:641   */\n      0x00\n        /* \"#utility.yul\":637:638   */\n      dup1\n        /* \"#utility.yul\":630:642   */\n      revert\n        /* \"#utility.yul\":589:591   */\n    tag_330:\n        /* \"#utility.yul\":680:686   */\n      dup2\n        /* \"#utility.yul\":667:687   */\n      calldataload\n        /* \"#utility.yul\":705:784   */\n      tag_331\n        /* \"#utility.yul\":780:783   */\n      dup5\n        /* \"#utility.yul\":772:778   */\n      dup3\n        /* \"#utility.yul\":765:769   */\n      0x20\n        /* \"#utility.yul\":757:763   */\n      dup7\n        /* \"#utility.yul\":753:770   */\n      add\n        /* \"#utility.yul\":705:784   */\n      tag_315\n      jump\t// in\n    tag_331:\n        /* \"#utility.yul\":696:784   */\n      swap2\n      pop\n        /* \"#utility.yul\":579:790   */\n      pop\n      swap3\n      swap2\n      pop\n      pop\n      jump\t// out\n        /* \"#utility.yul\":796:1316   */\n    tag_41:\n      0x00\n      dup1\n        /* \"#utility.yul\":931:933   */\n      0x40\n        /* \"#utility.yul\":919:928   */\n      dup4\n        /* \"#utility.yul\":910:917   */\n      dup6\n        /* \"#utility.yul\":906:929   */\n      sub\n        /* \"#utility.yul\":902:934   */\n      slt\n        /* \"#utility.yul\":899:901   */\n      iszero\n      tag_333\n      jumpi\n        /* \"#utility.yul\":947:948   */\n      0x00\n        /* \"#utility.yul\":944:945   */\n      dup1\n        /* \"#utility.yul\":937:949   */\n      revert\n        /* \"#utility.yul\":899:901   */\n    tag_333:\n        /* \"#utility.yul\":990:991   */\n      0x00\n        /* \"#utility.yul\":1015:1068   */\n      tag_334\n        /* \"#utility.yul\":1060:1067   */\n      dup6\n        /* \"#utility.yul\":1051:1057   */\n      dup3\n        /* \"#utility.yul\":1040:1049   */\n      dup7\n        /* \"#utility.yul\":1036:1058   */\n      add\n        /* \"#utility.yul\":1015:1068   */\n      tag_324\n      jump\t// in\n    tag_334:\n        /* \"#utility.yul\":1005:1068   */\n      swap3\n      pop\n        /* \"#utility.yul\":961:1078   */\n      pop\n        /* \"#utility.yul\":1145:1147   */\n      0x20\n        /* \"#utility.yul\":1134:1143   */\n      dup4\n        /* \"#utility.yul\":1130:1148   */\n      add\n        /* \"#utility.yul\":1117:1149   */\n      calldataload\n        /* \"#utility.yul\":1176:1194   */\n      0xffffffffffffffff\n        /* \"#utility.yul\":1168:1174   */\n      dup2\n        /* \"#utility.yul\":1165:1195   */\n      gt\n        /* \"#utility.yul\":1162:1164   */\n      iszero\n      tag_335\n      jumpi\n        /* \"#utility.yul\":1208:1209   */\n      0x00\n        /* \"#utility.yul\":1205:1206   */\n      dup1\n        /* \"#utility.yul\":1198:1210   */\n      revert\n        /* \"#utility.yul\":1162:1164   */\n    tag_335:\n        /* \"#utility.yul\":1236:1299   */\n      tag_336\n        /* \"#utility.yul\":1291:1298   */\n      dup6\n        /* \"#utility.yul\":1282:1288   */\n      dup3\n        /* \"#utility.yul\":1271:1280   */\n      dup7\n        /* \"#utility.yul\":1267:1289   */\n      add\n        /* \"#utility.yul\":1236:1299   */\n      tag_328\n      jump\t// in\n    tag_336:\n        /* \"#utility.yul\":1226:1299   */\n      swap2\n      pop\n        /* \"#utility.yul\":1088:1309   */\n      pop\n        /* \"#utility.yul\":889:1316   */\n      swap3\n      pop\n      swap3\n      swap1\n      pop\n      jump\t// out\n        /* \"#utility.yul\":1322:1697   */\n    tag_23:\n      0x00\n        /* \"#utility.yul\":1440:1442   */\n      0x20\n        /* \"#utility.yul\":1428:1437   */\n      dup3\n        /* \"#utility.yul\":1419:1426   */\n      dup5\n        /* \"#utility.yul\":1415:1438   */\n      sub\n        /* \"#utility.yul\":1411:1443   */\n      slt\n        /* \"#utility.yul\":1408:1410   */\n      iszero\n      tag_338\n      jumpi\n        /* \"#utility.yul\":1456:1457   */\n      0x00\n        /* \"#utility.yul\":1453:1454   */\n      dup1\n        /* \"#utility.yul\":1446:1458   */\n      revert\n        /* \"#utility.yul\":1408:1410   */\n    tag_338:\n        /* \"#utility.yul\":1527:1528   */\n      0x00\n        /* \"#utility.yul\":1516:1525   */\n      dup3\n        /* \"#utility.yul\":1512:1529   */\n      add\n        /* \"#utility.yul\":1499:1530   */\n      calldataload\n        /* \"#utility.yul\":1557:1575   */\n      0xffffffffffffffff\n        /* \"#utility.yul\":1549:1555   */\n      dup2\n        /* \"#utility.yul\":1546:1576   */\n      gt\n        /* \"#utility.yul\":1543:1545   */\n      iszero\n      tag_339\n      jumpi\n        /* \"#utility.yul\":1589:1590   */\n      0x00\n        /* \"#utility.yul\":1586:1587   */\n      dup1\n        /* \"#utility.yul\":1579:1591   */\n      revert\n        /* \"#utility.yul\":1543:1545   */\n    tag_339:\n        /* \"#utility.yul\":1617:1680   */\n      tag_340\n        /* \"#utility.yul\":1672:1679   */\n      dup5\n        /* \"#utility.yul\":1663:1669   */\n      dup3\n        /* \"#utility.yul\":1652:1661   */\n      dup6\n        /* \"#utility.yul\":1648:1670   */\n      add\n        /* \"#utility.yul\":1617:1680   */\n      tag_328\n      jump\t// in\n    tag_340:\n        /* \"#utility.yul\":1607:1680   */\n      swap2\n      pop\n        /* \"#utility.yul\":1470:1690   */\n      pop\n        /* \"#utility.yul\":1398:1697   */\n      swap3\n      swap2\n      pop\n      pop\n      jump\t// out\n        /* \"#utility.yul\":1703:2594   */\n    tag_30:\n      0x00\n      dup1\n      0x00\n        /* \"#utility.yul\":1875:1877   */\n      0x60\n        /* \"#utility.yul\":1863:1872   */\n      dup5\n        /* \"#utility.yul\":1854:1861   */\n      dup7\n        /* \"#utility.yul\":1850:1873   */\n      sub\n        /* \"#utility.yul\":1846:1878   */\n      slt\n        /* \"#utility.yul\":1843:1845   */\n      iszero\n      tag_342\n      jumpi\n        /* \"#utility.yul\":1891:1892   */\n      0x00\n        /* \"#utility.yul\":1888:1889   */\n      dup1\n        /* \"#utility.yul\":1881:1893   */\n      revert\n        /* \"#utility.yul\":1843:1845   */\n    tag_342:\n        /* \"#utility.yul\":1962:1963   */\n      0x00\n        /* \"#utility.yul\":1951:1960   */\n      dup5\n        /* \"#utility.yul\":1947:1964   */\n      add\n        /* \"#utility.yul\":1934:1965   */\n      calldataload\n        /* \"#utility.yul\":1992:2010   */\n      0xffffffffffffffff\n        /* \"#utility.yul\":1984:1990   */\n      dup2\n        /* \"#utility.yul\":1981:2011   */\n      gt\n        /* \"#utility.yul\":1978:1980   */\n      iszero\n      tag_343\n      jumpi\n        /* \"#utility.yul\":2024:2025   */\n      0x00\n        /* \"#utility.yul\":2021:2022   */\n      dup1\n        /* \"#utility.yul\":2014:2026   */\n      revert\n        /* \"#utility.yul\":1978:1980   */\n    tag_343:\n        /* \"#utility.yul\":2052:2115   */\n      tag_344\n        /* \"#utility.yul\":2107:2114   */\n      dup7\n        /* \"#utility.yul\":2098:2104   */\n      dup3\n        /* \"#utility.yul\":2087:2096   */\n      dup8\n        /* \"#utility.yul\":2083:2105   */\n      add\n        /* \"#utility.yul\":2052:2115   */\n      tag_328\n      jump\t// in\n    tag_344:\n        /* \"#utility.yul\":2042:2115   */\n      swap4\n      pop\n        /* \"#utility.yul\":1905:2125   */\n      pop\n        /* \"#utility.yul\":2192:2194   */\n      0x20\n        /* \"#utility.yul\":2181:2190   */\n      dup5\n        /* \"#utility.yul\":2177:2195   */\n      add\n        /* \"#utility.yul\":2164:2196   */\n      calldataload\n        /* \"#utility.yul\":2223:2241   */\n      0xffffffffffffffff\n        /* \"#utility.yul\":2215:2221   */\n      dup2\n        /* \"#utility.yul\":2212:2242   */\n      gt\n        /* \"#utility.yul\":2209:2211   */\n      iszero\n      tag_345\n      jumpi\n        /* \"#utility.yul\":2255:2256   */\n      0x00\n        /* \"#utility.yul\":2252:2253   */\n      dup1\n        /* \"#utility.yul\":2245:2257   */\n      revert\n        /* \"#utility.yul\":2209:2211   */\n    tag_345:\n        /* \"#utility.yul\":2283:2346   */\n      tag_346\n        /* \"#utility.yul\":2338:2345   */\n      dup7\n        /* \"#utility.yul\":2329:2335   */\n      dup3\n        /* \"#utility.yul\":2318:2327   */\n      dup8\n        /* \"#utility.yul\":2314:2336   */\n      add\n        /* \"#utility.yul\":2283:2346   */\n      tag_328\n      jump\t// in\n    tag_346:\n        /* \"#utility.yul\":2273:2346   */\n      swap3\n      pop\n        /* \"#utility.yul\":2135:2356   */\n      pop\n        /* \"#utility.yul\":2423:2425   */\n      0x40\n        /* \"#utility.yul\":2412:2421   */\n      dup5\n        /* \"#utility.yul\":2408:2426   */\n      add\n        /* \"#utility.yul\":2395:2427   */\n      calldataload\n        /* \"#utility.yul\":2454:2472   */\n      0xffffffffffffffff\n        /* \"#utility.yul\":2446:2452   */\n      dup2\n        /* \"#utility.yul\":2443:2473   */\n      gt\n        /* \"#utility.yul\":2440:2442   */\n      iszero\n      tag_347\n      jumpi\n        /* \"#utility.yul\":2486:2487   */\n      0x00\n        /* \"#utility.yul\":2483:2484   */\n      dup1\n        /* \"#utility.yul\":2476:2488   */\n      revert\n        /* \"#utility.yul\":2440:2442   */\n    tag_347:\n        /* \"#utility.yul\":2514:2577   */\n      tag_348\n        /* \"#utility.yul\":2569:2576   */\n      dup7\n        /* \"#utility.yul\":2560:2566   */\n      dup3\n        /* \"#utility.yul\":2549:2558   */\n      dup8\n        /* \"#utility.yul\":2545:2567   */\n      add\n        /* \"#utility.yul\":2514:2577   */\n      tag_328\n      jump\t// in\n    tag_348:\n        /* \"#utility.yul\":2504:2577   */\n      swap2\n      pop\n        /* \"#utility.yul\":2366:2587   */\n      pop\n        /* \"#utility.yul\":1833:2594   */\n      swap3\n      pop\n      swap3\n      pop\n      swap3\n      jump\t// out\n        /* \"#utility.yul\":2600:2779   */\n    tag_349:\n      0x00\n        /* \"#utility.yul\":2690:2736   */\n      tag_351\n        /* \"#utility.yul\":2732:2735   */\n      dup4\n        /* \"#utility.yul\":2724:2730   */\n      dup4\n        /* \"#utility.yul\":2690:2736   */\n      tag_352\n      jump\t// in\n    tag_351:\n        /* \"#utility.yul\":2768:2772   */\n      0x20\n        /* \"#utility.yul\":2763:2766   */\n      dup4\n        /* \"#utility.yul\":2759:2773   */\n      add\n        /* \"#utility.yul\":2745:2773   */\n      swap1\n      pop\n        /* \"#utility.yul\":2680:2779   */\n      swap3\n      swap2\n      pop\n      pop\n      jump\t// out\n        /* \"#utility.yul\":2785:3021   */\n    tag_353:\n      0x00\n        /* \"#utility.yul\":2929:3015   */\n      tag_355\n        /* \"#utility.yul\":3011:3014   */\n      dup4\n        /* \"#utility.yul\":3003:3009   */\n      dup4\n        /* \"#utility.yul\":2929:3015   */\n      tag_356\n      jump\t// in\n    tag_355:\n        /* \"#utility.yul\":2915:3015   */\n      swap1\n      pop\n        /* \"#utility.yul\":2905:3021   */\n      swap3\n      swap2\n      pop\n      pop\n      jump\t// out\n        /* \"#utility.yul\":3027:3135   */\n    tag_352:\n        /* \"#utility.yul\":3104:3128   */\n      tag_358\n        /* \"#utility.yul\":3122:3127   */\n      dup2\n        /* \"#utility.yul\":3104:3128   */\n      tag_359\n      jump\t// in\n    tag_358:\n        /* \"#utility.yul\":3099:3102   */\n      dup3\n        /* \"#utility.yul\":3092:3129   */\n      mstore\n        /* \"#utility.yul\":3082:3135   */\n      pop\n      pop\n      jump\t// out\n        /* \"#utility.yul\":3141:3259   */\n    tag_360:\n        /* \"#utility.yul\":3228:3252   */\n      tag_362\n        /* \"#utility.yul\":3246:3251   */\n      dup2\n        /* \"#utility.yul\":3228:3252   */\n      tag_359\n      jump\t// in\n    tag_362:\n        /* \"#utility.yul\":3223:3226   */\n      dup3\n        /* \"#utility.yul\":3216:3253   */\n      mstore\n        /* \"#utility.yul\":3206:3259   */\n      pop\n      pop\n      jump\t// out\n        /* \"#utility.yul\":3295:4027   */\n    tag_363:\n      0x00\n        /* \"#utility.yul\":3443:3497   */\n      tag_365\n        /* \"#utility.yul\":3491:3496   */\n      dup3\n        /* \"#utility.yul\":3443:3497   */\n      tag_366\n      jump\t// in\n    tag_365:\n        /* \"#utility.yul\":3513:3599   */\n      tag_367\n        /* \"#utility.yul\":3592:3598   */\n      dup2\n        /* \"#utility.yul\":3587:3590   */\n      dup6\n        /* \"#utility.yul\":3513:3599   */\n      tag_368\n      jump\t// in\n    tag_367:\n        /* \"#utility.yul\":3506:3599   */\n      swap4\n      pop\n        /* \"#utility.yul\":3623:3679   */\n      tag_369\n        /* \"#utility.yul\":3673:3678   */\n      dup4\n        /* \"#utility.yul\":3623:3679   */\n      tag_370\n      jump\t// in\n    tag_369:\n        /* \"#utility.yul\":3702:3709   */\n      dup1\n        /* \"#utility.yul\":3733:3734   */\n      0x00\n        /* \"#utility.yul\":3718:4002   */\n    tag_371:\n        /* \"#utility.yul\":3743:3749   */\n      dup4\n        /* \"#utility.yul\":3740:3741   */\n      dup2\n        /* \"#utility.yul\":3737:3750   */\n      lt\n        /* \"#utility.yul\":3718:4002   */\n      iszero\n      tag_373\n      jumpi\n        /* \"#utility.yul\":3819:3825   */\n      dup2\n        /* \"#utility.yul\":3813:3826   */\n      mload\n        /* \"#utility.yul\":3846:3909   */\n      tag_374\n        /* \"#utility.yul\":3905:3908   */\n      dup9\n        /* \"#utility.yul\":3890:3903   */\n      dup3\n        /* \"#utility.yul\":3846:3909   */\n      tag_349\n      jump\t// in\n    tag_374:\n        /* \"#utility.yul\":3839:3909   */\n      swap8\n      pop\n        /* \"#utility.yul\":3932:3992   */\n      tag_375\n        /* \"#utility.yul\":3985:3991   */\n      dup4\n        /* \"#utility.yul\":3932:3992   */\n      tag_376\n      jump\t// in\n    tag_375:\n        /* \"#utility.yul\":3922:3992   */\n      swap3\n      pop\n        /* \"#utility.yul\":3778:4002   */\n      pop\n        /* \"#utility.yul\":3765:3766   */\n      0x01\n        /* \"#utility.yul\":3762:3763   */\n      dup2\n        /* \"#utility.yul\":3758:3767   */\n      add\n        /* \"#utility.yul\":3753:3767   */\n      swap1\n      pop\n        /* \"#utility.yul\":3718:4002   */\n      jump(tag_371)\n    tag_373:\n        /* \"#utility.yul\":3722:3736   */\n      pop\n        /* \"#utility.yul\":4018:4021   */\n      dup6\n        /* \"#utility.yul\":4011:4021   */\n      swap4\n      pop\n        /* \"#utility.yul\":3419:4027   */\n      pop\n      pop\n      pop\n      swap3\n      swap2\n      pop\n      pop\n      jump\t// out\n        /* \"#utility.yul\":4085:5156   */\n    tag_377:\n      0x00\n        /* \"#utility.yul\":4273:4347   */\n      tag_379\n        /* \"#utility.yul\":4341:4346   */\n      dup3\n        /* \"#utility.yul\":4273:4347   */\n      tag_380\n      jump\t// in\n    tag_379:\n        /* \"#utility.yul\":4363:4469   */\n      tag_381\n        /* \"#utility.yul\":4462:4468   */\n      dup2\n        /* \"#utility.yul\":4457:4460   */\n      dup6\n        /* \"#utility.yul\":4363:4469   */\n      tag_382\n      jump\t// in\n    tag_381:\n        /* \"#utility.yul\":4356:4469   */\n      swap4\n      pop\n        /* \"#utility.yul\":4495:4498   */\n      dup4\n        /* \"#utility.yul\":4540:4544   */\n      0x20\n        /* \"#utility.yul\":4532:4538   */\n      dup3\n        /* \"#utility.yul\":4528:4545   */\n      mul\n        /* \"#utility.yul\":4523:4526   */\n      dup6\n        /* \"#utility.yul\":4519:4546   */\n      add\n        /* \"#utility.yul\":4570:4646   */\n      tag_383\n        /* \"#utility.yul\":4640:4645   */\n      dup6\n        /* \"#utility.yul\":4570:4646   */\n      tag_384\n      jump\t// in\n    tag_383:\n        /* \"#utility.yul\":4669:4676   */\n      dup1\n        /* \"#utility.yul\":4700:4701   */\n      0x00\n        /* \"#utility.yul\":4685:5111   */\n    tag_385:\n        /* \"#utility.yul\":4710:4716   */\n      dup6\n        /* \"#utility.yul\":4707:4708   */\n      dup2\n        /* \"#utility.yul\":4704:4717   */\n      lt\n        /* \"#utility.yul\":4685:5111   */\n      iszero\n      tag_387\n      jumpi\n        /* \"#utility.yul\":4781:4790   */\n      dup5\n        /* \"#utility.yul\":4775:4779   */\n      dup5\n        /* \"#utility.yul\":4771:4791   */\n      sub\n        /* \"#utility.yul\":4766:4769   */\n      dup10\n        /* \"#utility.yul\":4759:4792   */\n      mstore\n        /* \"#utility.yul\":4832:4838   */\n      dup2\n        /* \"#utility.yul\":4826:4839   */\n      mload\n        /* \"#utility.yul\":4860:4964   */\n      tag_388\n        /* \"#utility.yul\":4959:4963   */\n      dup6\n        /* \"#utility.yul\":4944:4957   */\n      dup3\n        /* \"#utility.yul\":4860:4964   */\n      tag_353\n      jump\t// in\n    tag_388:\n        /* \"#utility.yul\":4852:4964   */\n      swap5\n      pop\n        /* \"#utility.yul\":4987:5067   */\n      tag_389\n        /* \"#utility.yul\":5060:5066   */\n      dup4\n        /* \"#utility.yul\":4987:5067   */\n      tag_390\n      jump\t// in\n    tag_389:\n        /* \"#utility.yul\":4977:5067   */\n      swap3\n      pop\n        /* \"#utility.yul\":5096:5100   */\n      0x20\n        /* \"#utility.yul\":5091:5094   */\n      dup11\n        /* \"#utility.yul\":5087:5101   */\n      add\n        /* \"#utility.yul\":5080:5101   */\n      swap10\n      pop\n        /* \"#utility.yul\":4745:5111   */\n      pop\n        /* \"#utility.yul\":4732:4733   */\n      0x01\n        /* \"#utility.yul\":4729:4730   */\n      dup2\n        /* \"#utility.yul\":4725:4734   */\n      add\n        /* \"#utility.yul\":4720:4734   */\n      swap1\n      pop\n        /* \"#utility.yul\":4685:5111   */\n      jump(tag_385)\n    tag_387:\n        /* \"#utility.yul\":4689:4703   */\n      pop\n        /* \"#utility.yul\":5127:5131   */\n      dup3\n        /* \"#utility.yul\":5120:5131   */\n      swap8\n      pop\n        /* \"#utility.yul\":5147:5150   */\n      dup8\n        /* \"#utility.yul\":5140:5150   */\n      swap6\n      pop\n        /* \"#utility.yul\":4249:5156   */\n      pop\n      pop\n      pop\n      pop\n      pop\n      swap3\n      swap2\n      pop\n      pop\n      jump\t// out\n        /* \"#utility.yul\":5162:5506   */\n    tag_391:\n      0x00\n        /* \"#utility.yul\":5268:5307   */\n      tag_393\n        /* \"#utility.yul\":5301:5306   */\n      dup3\n        /* \"#utility.yul\":5268:5307   */\n      tag_394\n      jump\t// in\n    tag_393:\n        /* \"#utility.yul\":5323:5384   */\n      tag_395\n        /* \"#utility.yul\":5377:5383   */\n      dup2\n        /* \"#utility.yul\":5372:5375   */\n      dup6\n        /* \"#utility.yul\":5323:5384   */\n      tag_396\n      jump\t// in\n    tag_395:\n        /* \"#utility.yul\":5316:5384   */\n      swap4\n      pop\n        /* \"#utility.yul\":5393:5445   */\n      tag_397\n        /* \"#utility.yul\":5438:5444   */\n      dup2\n        /* \"#utility.yul\":5433:5436   */\n      dup6\n        /* \"#utility.yul\":5426:5430   */\n      0x20\n        /* \"#utility.yul\":5419:5424   */\n      dup7\n        /* \"#utility.yul\":5415:5431   */\n      add\n        /* \"#utility.yul\":5393:5445   */\n      tag_398\n      jump\t// in\n    tag_397:\n        /* \"#utility.yul\":5470:5499   */\n      tag_399\n        /* \"#utility.yul\":5492:5498   */\n      dup2\n        /* \"#utility.yul\":5470:5499   */\n      tag_400\n      jump\t// in\n    tag_399:\n        /* \"#utility.yul\":5465:5468   */\n      dup5\n        /* \"#utility.yul\":5461:5500   */\n      add\n        /* \"#utility.yul\":5454:5500   */\n      swap2\n      pop\n        /* \"#utility.yul\":5244:5506   */\n      pop\n      swap3\n      swap2\n      pop\n      pop\n      jump\t// out\n        /* \"#utility.yul\":5512:5876   */\n    tag_401:\n      0x00\n        /* \"#utility.yul\":5628:5667   */\n      tag_403\n        /* \"#utility.yul\":5661:5666   */\n      dup3\n        /* \"#utility.yul\":5628:5667   */\n      tag_394\n      jump\t// in\n    tag_403:\n        /* \"#utility.yul\":5683:5754   */\n      tag_404\n        /* \"#utility.yul\":5747:5753   */\n      dup2\n        /* \"#utility.yul\":5742:5745   */\n      dup6\n        /* \"#utility.yul\":5683:5754   */\n      tag_405\n      jump\t// in\n    tag_404:\n        /* \"#utility.yul\":5676:5754   */\n      swap4\n      pop\n        /* \"#utility.yul\":5763:5815   */\n      tag_406\n        /* \"#utility.yul\":5808:5814   */\n      dup2\n        /* \"#utility.yul\":5803:5806   */\n      dup6\n        /* \"#utility.yul\":5796:5800   */\n      0x20\n        /* \"#utility.yul\":5789:5794   */\n      dup7\n        /* \"#utility.yul\":5785:5801   */\n      add\n        /* \"#utility.yul\":5763:5815   */\n      tag_398\n      jump\t// in\n    tag_406:\n        /* \"#utility.yul\":5840:5869   */\n      tag_407\n        /* \"#utility.yul\":5862:5868   */\n      dup2\n        /* \"#utility.yul\":5840:5869   */\n      tag_400\n      jump\t// in\n    tag_407:\n        /* \"#utility.yul\":5835:5838   */\n      dup5\n        /* \"#utility.yul\":5831:5870   */\n      add\n        /* \"#utility.yul\":5824:5870   */\n      swap2\n      pop\n        /* \"#utility.yul\":5604:5876   */\n      pop\n      swap3\n      swap2\n      pop\n      pop\n      jump\t// out\n        /* \"#utility.yul\":5882:6259   */\n    tag_408:\n      0x00\n        /* \"#utility.yul\":6016:6055   */\n      tag_410\n        /* \"#utility.yul\":6049:6054   */\n      dup3\n        /* \"#utility.yul\":6016:6055   */\n      tag_394\n      jump\t// in\n    tag_410:\n        /* \"#utility.yul\":6071:6160   */\n      tag_411\n        /* \"#utility.yul\":6153:6159   */\n      dup2\n        /* \"#utility.yul\":6148:6151   */\n      dup6\n        /* \"#utility.yul\":6071:6160   */\n      tag_412\n      jump\t// in\n    tag_411:\n        /* \"#utility.yul\":6064:6160   */\n      swap4\n      pop\n        /* \"#utility.yul\":6169:6221   */\n      tag_413\n        /* \"#utility.yul\":6214:6220   */\n      dup2\n        /* \"#utility.yul\":6209:6212   */\n      dup6\n        /* \"#utility.yul\":6202:6206   */\n      0x20\n        /* \"#utility.yul\":6195:6200   */\n      dup7\n        /* \"#utility.yul\":6191:6207   */\n      add\n        /* \"#utility.yul\":6169:6221   */\n      tag_398\n      jump\t// in\n    tag_413:\n        /* \"#utility.yul\":6246:6252   */\n      dup1\n        /* \"#utility.yul\":6241:6244   */\n      dup5\n        /* \"#utility.yul\":6237:6253   */\n      add\n        /* \"#utility.yul\":6230:6253   */\n      swap2\n      pop\n        /* \"#utility.yul\":5992:6259   */\n      pop\n      swap3\n      swap2\n      pop\n      pop\n      jump\t// out\n        /* \"#utility.yul\":6289:7134   */\n    tag_414:\n      0x00\n        /* \"#utility.yul\":6429:6434   */\n      dup2\n        /* \"#utility.yul\":6423:6435   */\n      sload\n        /* \"#utility.yul\":6458:6494   */\n      tag_416\n        /* \"#utility.yul\":6484:6493   */\n      dup2\n        /* \"#utility.yul\":6458:6494   */\n      tag_53\n      jump\t// in\n    tag_416:\n        /* \"#utility.yul\":6510:6599   */\n      tag_417\n        /* \"#utility.yul\":6592:6598   */\n      dup2\n        /* \"#utility.yul\":6587:6590   */\n      dup7\n        /* \"#utility.yul\":6510:6599   */\n      tag_412\n      jump\t// in\n    tag_417:\n        /* \"#utility.yul\":6503:6599   */\n      swap5\n      pop\n        /* \"#utility.yul\":6630:6631   */\n      0x01\n        /* \"#utility.yul\":6619:6628   */\n      dup3\n        /* \"#utility.yul\":6615:6632   */\n      and\n        /* \"#utility.yul\":6646:6647   */\n      0x00\n        /* \"#utility.yul\":6641:6778   */\n      dup2\n      eq\n      tag_419\n      jumpi\n        /* \"#utility.yul\":6792:6793   */\n      0x01\n        /* \"#utility.yul\":6787:7128   */\n      dup2\n      eq\n      tag_420\n      jumpi\n        /* \"#utility.yul\":6608:7128   */\n      jump(tag_418)\n        /* \"#utility.yul\":6641:6778   */\n    tag_419:\n        /* \"#utility.yul\":6725:6729   */\n      0xff\n        /* \"#utility.yul\":6721:6730   */\n      not\n        /* \"#utility.yul\":6710:6719   */\n      dup4\n        /* \"#utility.yul\":6706:6731   */\n      and\n        /* \"#utility.yul\":6701:6704   */\n      dup7\n        /* \"#utility.yul\":6694:6732   */\n      mstore\n        /* \"#utility.yul\":6761:6767   */\n      dup2\n        /* \"#utility.yul\":6756:6759   */\n      dup7\n        /* \"#utility.yul\":6752:6768   */\n      add\n        /* \"#utility.yul\":6745:6768   */\n      swap4\n      pop\n        /* \"#utility.yul\":6641:6778   */\n      jump(tag_418)\n        /* \"#utility.yul\":6787:7128   */\n    tag_420:\n        /* \"#utility.yul\":6854:6892   */\n      tag_421\n        /* \"#utility.yul\":6886:6891   */\n      dup6\n        /* \"#utility.yul\":6854:6892   */\n      tag_422\n      jump\t// in\n    tag_421:\n        /* \"#utility.yul\":6914:6915   */\n      0x00\n        /* \"#utility.yul\":6928:7082   */\n    tag_423:\n        /* \"#utility.yul\":6942:6948   */\n      dup4\n        /* \"#utility.yul\":6939:6940   */\n      dup2\n        /* \"#utility.yul\":6936:6949   */\n      lt\n        /* \"#utility.yul\":6928:7082   */\n      iszero\n      tag_425\n      jumpi\n        /* \"#utility.yul\":7016:7023   */\n      dup2\n        /* \"#utility.yul\":7010:7024   */\n      sload\n        /* \"#utility.yul\":7006:7007   */\n      dup2\n        /* \"#utility.yul\":7001:7004   */\n      dup10\n        /* \"#utility.yul\":6997:7008   */\n      add\n        /* \"#utility.yul\":6990:7025   */\n      mstore\n        /* \"#utility.yul\":7066:7067   */\n      0x01\n        /* \"#utility.yul\":7057:7064   */\n      dup3\n        /* \"#utility.yul\":7053:7068   */\n      add\n        /* \"#utility.yul\":7042:7068   */\n      swap2\n      pop\n        /* \"#utility.yul\":6964:6968   */\n      0x20\n        /* \"#utility.yul\":6961:6962   */\n      dup2\n        /* \"#utility.yul\":6957:6969   */\n      add\n        /* \"#utility.yul\":6952:6969   */\n      swap1\n      pop\n        /* \"#utility.yul\":6928:7082   */\n      jump(tag_423)\n    tag_425:\n        /* \"#utility.yul\":7111:7117   */\n      dup4\n        /* \"#utility.yul\":7106:7109   */\n      dup9\n        /* \"#utility.yul\":7102:7118   */\n      add\n        /* \"#utility.yul\":7095:7118   */\n      swap6\n      pop\n        /* \"#utility.yul\":6794:7128   */\n      pop\n      pop\n        /* \"#utility.yul\":6608:7128   */\n    tag_418:\n      pop\n        /* \"#utility.yul\":6396:7134   */\n      pop\n      pop\n      swap3\n      swap2\n      pop\n      pop\n      jump\t// out\n        /* \"#utility.yul\":7140:7506   */\n    tag_426:\n      0x00\n        /* \"#utility.yul\":7303:7370   */\n      tag_428\n        /* \"#utility.yul\":7367:7369   */\n      0x1f\n        /* \"#utility.yul\":7362:7365   */\n      dup4\n        /* \"#utility.yul\":7303:7370   */\n      tag_405\n      jump\t// in\n    tag_428:\n        /* \"#utility.yul\":7296:7370   */\n      swap2\n      pop\n        /* \"#utility.yul\":7379:7472   */\n      tag_429\n        /* \"#utility.yul\":7468:7471   */\n      dup3\n        /* \"#utility.yul\":7379:7472   */\n      tag_430\n      jump\t// in\n    tag_429:\n        /* \"#utility.yul\":7497:7499   */\n      0x20\n        /* \"#utility.yul\":7492:7495   */\n      dup3\n        /* \"#utility.yul\":7488:7500   */\n      add\n        /* \"#utility.yul\":7481:7500   */\n      swap1\n      pop\n        /* \"#utility.yul\":7286:7506   */\n      swap2\n      swap1\n      pop\n      jump\t// out\n        /* \"#utility.yul\":7512:7878   */\n    tag_431:\n      0x00\n        /* \"#utility.yul\":7675:7742   */\n      tag_433\n        /* \"#utility.yul\":7739:7741   */\n      0x18\n        /* \"#utility.yul\":7734:7737   */\n      dup4\n        /* \"#utility.yul\":7675:7742   */\n      tag_405\n      jump\t// in\n    tag_433:\n        /* \"#utility.yul\":7668:7742   */\n      swap2\n      pop\n        /* \"#utility.yul\":7751:7844   */\n      tag_434\n        /* \"#utility.yul\":7840:7843   */\n      dup3\n        /* \"#utility.yul\":7751:7844   */\n      tag_435\n      jump\t// in\n    tag_434:\n        /* \"#utility.yul\":7869:7871   */\n      0x20\n        /* \"#utility.yul\":7864:7867   */\n      dup3\n        /* \"#utility.yul\":7860:7872   */\n      add\n        /* \"#utility.yul\":7853:7872   */\n      swap1\n      pop\n        /* \"#utility.yul\":7658:7878   */\n      swap2\n      swap1\n      pop\n      jump\t// out\n        /* \"#utility.yul\":7884:8250   */\n    tag_436:\n      0x00\n        /* \"#utility.yul\":8047:8114   */\n      tag_438\n        /* \"#utility.yul\":8111:8113   */\n      0x1d\n        /* \"#utility.yul\":8106:8109   */\n      dup4\n        /* \"#utility.yul\":8047:8114   */\n      tag_405\n      jump\t// in\n    tag_438:\n        /* \"#utility.yul\":8040:8114   */\n      swap2\n      pop\n        /* \"#utility.yul\":8123:8216   */\n      tag_439\n        /* \"#utility.yul\":8212:8215   */\n      dup3\n        /* \"#utility.yul\":8123:8216   */\n      tag_440\n      jump\t// in\n    tag_439:\n        /* \"#utility.yul\":8241:8243   */\n      0x20\n        /* \"#utility.yul\":8236:8239   */\n      dup3\n        /* \"#utility.yul\":8232:8244   */\n      add\n        /* \"#utility.yul\":8225:8244   */\n      swap1\n      pop\n        /* \"#utility.yul\":8030:8250   */\n      swap2\n      swap1\n      pop\n      jump\t// out\n        /* \"#utility.yul\":8256:8622   */\n    tag_441:\n      0x00\n        /* \"#utility.yul\":8419:8486   */\n      tag_443\n        /* \"#utility.yul\":8483:8485   */\n      0x13\n        /* \"#utility.yul\":8478:8481   */\n      dup4\n        /* \"#utility.yul\":8419:8486   */\n      tag_405\n      jump\t// in\n    tag_443:\n        /* \"#utility.yul\":8412:8486   */\n      swap2\n      pop\n        /* \"#utility.yul\":8495:8588   */\n      tag_444\n        /* \"#utility.yul\":8584:8587   */\n      dup3\n        /* \"#utility.yul\":8495:8588   */\n      tag_445\n      jump\t// in\n    tag_444:\n        /* \"#utility.yul\":8613:8615   */\n      0x20\n        /* \"#utility.yul\":8608:8611   */\n      dup3\n        /* \"#utility.yul\":8604:8616   */\n      add\n        /* \"#utility.yul\":8597:8616   */\n      swap1\n      pop\n        /* \"#utility.yul\":8402:8622   */\n      swap2\n      swap1\n      pop\n      jump\t// out\n        /* \"#utility.yul\":8676:9773   */\n    tag_356:\n      0x00\n        /* \"#utility.yul\":8811:8815   */\n      0x80\n        /* \"#utility.yul\":8806:8809   */\n      dup4\n        /* \"#utility.yul\":8802:8816   */\n      add\n        /* \"#utility.yul\":8901:8905   */\n      0x00\n        /* \"#utility.yul\":8894:8899   */\n      dup4\n        /* \"#utility.yul\":8890:8906   */\n      add\n        /* \"#utility.yul\":8884:8907   */\n      mload\n        /* \"#utility.yul\":8954:8957   */\n      dup5\n        /* \"#utility.yul\":8948:8952   */\n      dup3\n        /* \"#utility.yul\":8944:8958   */\n      sub\n        /* \"#utility.yul\":8937:8941   */\n      0x00\n        /* \"#utility.yul\":8932:8935   */\n      dup7\n        /* \"#utility.yul\":8928:8942   */\n      add\n        /* \"#utility.yul\":8921:8959   */\n      mstore\n        /* \"#utility.yul\":8980:9053   */\n      tag_447\n        /* \"#utility.yul\":9048:9052   */\n      dup3\n        /* \"#utility.yul\":9034:9046   */\n      dup3\n        /* \"#utility.yul\":8980:9053   */\n      tag_391\n      jump\t// in\n    tag_447:\n        /* \"#utility.yul\":8972:9053   */\n      swap2\n      pop\n        /* \"#utility.yul\":8826:9064   */\n      pop\n        /* \"#utility.yul\":9152:9156   */\n      0x20\n        /* \"#utility.yul\":9145:9150   */\n      dup4\n        /* \"#utility.yul\":9141:9157   */\n      add\n        /* \"#utility.yul\":9135:9158   */\n      mload\n        /* \"#utility.yul\":9171:9234   */\n      tag_448\n        /* \"#utility.yul\":9228:9232   */\n      0x20\n        /* \"#utility.yul\":9223:9226   */\n      dup7\n        /* \"#utility.yul\":9219:9233   */\n      add\n        /* \"#utility.yul\":9205:9217   */\n      dup3\n        /* \"#utility.yul\":9171:9234   */\n      tag_352\n      jump\t// in\n    tag_448:\n        /* \"#utility.yul\":9074:9244   */\n      pop\n        /* \"#utility.yul\":9331:9335   */\n      0x40\n        /* \"#utility.yul\":9324:9329   */\n      dup4\n        /* \"#utility.yul\":9320:9336   */\n      add\n        /* \"#utility.yul\":9314:9337   */\n      mload\n        /* \"#utility.yul\":9384:9387   */\n      dup5\n        /* \"#utility.yul\":9378:9382   */\n      dup3\n        /* \"#utility.yul\":9374:9388   */\n      sub\n        /* \"#utility.yul\":9367:9371   */\n      0x40\n        /* \"#utility.yul\":9362:9365   */\n      dup7\n        /* \"#utility.yul\":9358:9372   */\n      add\n        /* \"#utility.yul\":9351:9389   */\n      mstore\n        /* \"#utility.yul\":9410:9483   */\n      tag_449\n        /* \"#utility.yul\":9478:9482   */\n      dup3\n        /* \"#utility.yul\":9464:9476   */\n      dup3\n        /* \"#utility.yul\":9410:9483   */\n      tag_391\n      jump\t// in\n    tag_449:\n        /* \"#utility.yul\":9402:9483   */\n      swap2\n      pop\n        /* \"#utility.yul\":9254:9494   */\n      pop\n        /* \"#utility.yul\":9583:9587   */\n      0x60\n        /* \"#utility.yul\":9576:9581   */\n      dup4\n        /* \"#utility.yul\":9572:9588   */\n      add\n        /* \"#utility.yul\":9566:9589   */\n      mload\n        /* \"#utility.yul\":9636:9639   */\n      dup5\n        /* \"#utility.yul\":9630:9634   */\n      dup3\n        /* \"#utility.yul\":9626:9640   */\n      sub\n        /* \"#utility.yul\":9619:9623   */\n      0x60\n        /* \"#utility.yul\":9614:9617   */\n      dup7\n        /* \"#utility.yul\":9610:9624   */\n      add\n        /* \"#utility.yul\":9603:9641   */\n      mstore\n        /* \"#utility.yul\":9662:9735   */\n      tag_450\n        /* \"#utility.yul\":9730:9734   */\n      dup3\n        /* \"#utility.yul\":9716:9728   */\n      dup3\n        /* \"#utility.yul\":9662:9735   */\n      tag_391\n      jump\t// in\n    tag_450:\n        /* \"#utility.yul\":9654:9735   */\n      swap2\n      pop\n        /* \"#utility.yul\":9504:9746   */\n      pop\n        /* \"#utility.yul\":9763:9767   */\n      dup1\n        /* \"#utility.yul\":9756:9767   */\n      swap2\n      pop\n        /* \"#utility.yul\":8780:9773   */\n      pop\n      swap3\n      swap2\n      pop\n      pop\n      jump\t// out\n        /* \"#utility.yul\":9779:10054   */\n    tag_85:\n      0x00\n        /* \"#utility.yul\":9933:10028   */\n      tag_452\n        /* \"#utility.yul\":10024:10027   */\n      dup3\n        /* \"#utility.yul\":10015:10021   */\n      dup5\n        /* \"#utility.yul\":9933:10028   */\n      tag_408\n      jump\t// in\n    tag_452:\n        /* \"#utility.yul\":9926:10028   */\n      swap2\n      pop\n        /* \"#utility.yul\":10045:10048   */\n      dup2\n        /* \"#utility.yul\":10038:10048   */\n      swap1\n      pop\n        /* \"#utility.yul\":9915:10054   */\n      swap3\n      swap2\n      pop\n      pop\n      jump\t// out\n        /* \"#utility.yul\":10060:10329   */\n    tag_270:\n      0x00\n        /* \"#utility.yul\":10211:10303   */\n      tag_454\n        /* \"#utility.yul\":10299:10302   */\n      dup3\n        /* \"#utility.yul\":10290:10296   */\n      dup5\n        /* \"#utility.yul\":10211:10303   */\n      tag_414\n      jump\t// in\n    tag_454:\n        /* \"#utility.yul\":10204:10303   */\n      swap2\n      pop\n        /* \"#utility.yul\":10320:10323   */\n      dup2\n        /* \"#utility.yul\":10313:10323   */\n      swap1\n      pop\n        /* \"#utility.yul\":10193:10329   */\n      swap3\n      swap2\n      pop\n      pop\n      jump\t// out\n        /* \"#utility.yul\":10335:10758   */\n    tag_38:\n      0x00\n        /* \"#utility.yul\":10514:10516   */\n      0x40\n        /* \"#utility.yul\":10503:10512   */\n      dup3\n        /* \"#utility.yul\":10499:10517   */\n      add\n        /* \"#utility.yul\":10491:10517   */\n      swap1\n      pop\n        /* \"#utility.yul\":10527:10598   */\n      tag_456\n        /* \"#utility.yul\":10595:10596   */\n      0x00\n        /* \"#utility.yul\":10584:10593   */\n      dup4\n        /* \"#utility.yul\":10580:10597   */\n      add\n        /* \"#utility.yul\":10571:10577   */\n      dup6\n        /* \"#utility.yul\":10527:10598   */\n      tag_360\n      jump\t// in\n    tag_456:\n        /* \"#utility.yul\":10645:10654   */\n      dup2\n        /* \"#utility.yul\":10639:10643   */\n      dup2\n        /* \"#utility.yul\":10635:10655   */\n      sub\n        /* \"#utility.yul\":10630:10632   */\n      0x20\n        /* \"#utility.yul\":10619:10628   */\n      dup4\n        /* \"#utility.yul\":10615:10633   */\n      add\n        /* \"#utility.yul\":10608:10656   */\n      mstore\n        /* \"#utility.yul\":10673:10751   */\n      tag_457\n        /* \"#utility.yul\":10746:10750   */\n      dup2\n        /* \"#utility.yul\":10737:10743   */\n      dup5\n        /* \"#utility.yul\":10673:10751   */\n      tag_401\n      jump\t// in\n    tag_457:\n        /* \"#utility.yul\":10665:10751   */\n      swap1\n      pop\n        /* \"#utility.yul\":10481:10758   */\n      swap4\n      swap3\n      pop\n      pop\n      pop\n      jump\t// out\n        /* \"#utility.yul\":10764:11448   */\n    tag_20:\n      0x00\n        /* \"#utility.yul\":11021:11023   */\n      0x60\n        /* \"#utility.yul\":11010:11019   */\n      dup3\n        /* \"#utility.yul\":11006:11024   */\n      add\n        /* \"#utility.yul\":10998:11024   */\n      swap1\n      pop\n        /* \"#utility.yul\":11034:11105   */\n      tag_459\n        /* \"#utility.yul\":11102:11103   */\n      0x00\n        /* \"#utility.yul\":11091:11100   */\n      dup4\n        /* \"#utility.yul\":11087:11104   */\n      add\n        /* \"#utility.yul\":11078:11084   */\n      dup7\n        /* \"#utility.yul\":11034:11105   */\n      tag_360\n      jump\t// in\n    tag_459:\n        /* \"#utility.yul\":11152:11161   */\n      dup2\n        /* \"#utility.yul\":11146:11150   */\n      dup2\n        /* \"#utility.yul\":11142:11162   */\n      sub\n        /* \"#utility.yul\":11137:11139   */\n      0x20\n        /* \"#utility.yul\":11126:11135   */\n      dup4\n        /* \"#utility.yul\":11122:11140   */\n      add\n        /* \"#utility.yul\":11115:11163   */\n      mstore\n        /* \"#utility.yul\":11180:11258   */\n      tag_460\n        /* \"#utility.yul\":11253:11257   */\n      dup2\n        /* \"#utility.yul\":11244:11250   */\n      dup6\n        /* \"#utility.yul\":11180:11258   */\n      tag_401\n      jump\t// in\n    tag_460:\n        /* \"#utility.yul\":11172:11258   */\n      swap1\n      pop\n        /* \"#utility.yul\":11305:11314   */\n      dup2\n        /* \"#utility.yul\":11299:11303   */\n      dup2\n        /* \"#utility.yul\":11295:11315   */\n      sub\n        /* \"#utility.yul\":11290:11292   */\n      0x40\n        /* \"#utility.yul\":11279:11288   */\n      dup4\n        /* \"#utility.yul\":11275:11293   */\n      add\n        /* \"#utility.yul\":11268:11316   */\n      mstore\n        /* \"#utility.yul\":11333:11441   */\n      tag_461\n        /* \"#utility.yul\":11436:11440   */\n      dup2\n        /* \"#utility.yul\":11427:11433   */\n      dup5\n        /* \"#utility.yul\":11333:11441   */\n      tag_363\n      jump\t// in\n    tag_461:\n        /* \"#utility.yul\":11325:11441   */\n      swap1\n      pop\n        /* \"#utility.yul\":10988:11448   */\n      swap5\n      swap4\n      pop\n      pop\n      pop\n      pop\n      jump\t// out\n        /* \"#utility.yul\":11454:11907   */\n    tag_16:\n      0x00\n        /* \"#utility.yul\":11675:11677   */\n      0x20\n        /* \"#utility.yul\":11664:11673   */\n      dup3\n        /* \"#utility.yul\":11660:11678   */\n      add\n        /* \"#utility.yul\":11652:11678   */\n      swap1\n      pop\n        /* \"#utility.yul\":11724:11733   */\n      dup2\n        /* \"#utility.yul\":11718:11722   */\n      dup2\n        /* \"#utility.yul\":11714:11734   */\n      sub\n        /* \"#utility.yul\":11710:11711   */\n      0x00\n        /* \"#utility.yul\":11699:11708   */\n      dup4\n        /* \"#utility.yul\":11695:11712   */\n      add\n        /* \"#utility.yul\":11688:11735   */\n      mstore\n        /* \"#utility.yul\":11752:11900   */\n      tag_463\n        /* \"#utility.yul\":11895:11899   */\n      dup2\n        /* \"#utility.yul\":11886:11892   */\n      dup5\n        /* \"#utility.yul\":11752:11900   */\n      tag_377\n      jump\t// in\n    tag_463:\n        /* \"#utility.yul\":11744:11900   */\n      swap1\n      pop\n        /* \"#utility.yul\":11642:11907   */\n      swap3\n      swap2\n      pop\n      pop\n      jump\t// out\n        /* \"#utility.yul\":11913:12332   */\n    tag_220:\n      0x00\n        /* \"#utility.yul\":12117:12119   */\n      0x20\n        /* \"#utility.yul\":12106:12115   */\n      dup3\n        /* \"#utility.yul\":12102:12120   */\n      add\n        /* \"#utility.yul\":12094:12120   */\n      swap1\n      pop\n        /* \"#utility.yul\":12166:12175   */\n      dup2\n        /* \"#utility.yul\":12160:12164   */\n      dup2\n        /* \"#utility.yul\":12156:12176   */\n      sub\n        /* \"#utility.yul\":12152:12153   */\n      0x00\n        /* \"#utility.yul\":12141:12150   */\n      dup4\n        /* \"#utility.yul\":12137:12154   */\n      add\n        /* \"#utility.yul\":12130:12177   */\n      mstore\n        /* \"#utility.yul\":12194:12325   */\n      tag_465\n        /* \"#utility.yul\":12320:12324   */\n      dup2\n        /* \"#utility.yul\":12194:12325   */\n      tag_426\n      jump\t// in\n    tag_465:\n        /* \"#utility.yul\":12186:12325   */\n      swap1\n      pop\n        /* \"#utility.yul\":12084:12332   */\n      swap2\n      swap1\n      pop\n      jump\t// out\n        /* \"#utility.yul\":12338:12757   */\n    tag_195:\n      0x00\n        /* \"#utility.yul\":12542:12544   */\n      0x20\n        /* \"#utility.yul\":12531:12540   */\n      dup3\n        /* \"#utility.yul\":12527:12545   */\n      add\n        /* \"#utility.yul\":12519:12545   */\n      swap1\n      pop\n        /* \"#utility.yul\":12591:12600   */\n      dup2\n        /* \"#utility.yul\":12585:12589   */\n      dup2\n        /* \"#utility.yul\":12581:12601   */\n      sub\n        /* \"#utility.yul\":12577:12578   */\n      0x00\n        /* \"#utility.yul\":12566:12575   */\n      dup4\n        /* \"#utility.yul\":12562:12579   */\n      add\n        /* \"#utility.yul\":12555:12602   */\n      mstore\n        /* \"#utility.yul\":12619:12750   */\n      tag_467\n        /* \"#utility.yul\":12745:12749   */\n      dup2\n        /* \"#utility.yul\":12619:12750   */\n      tag_431\n      jump\t// in\n    tag_467:\n        /* \"#utility.yul\":12611:12750   */\n      swap1\n      pop\n        /* \"#utility.yul\":12509:12757   */\n      swap2\n      swap1\n      pop\n      jump\t// out\n        /* \"#utility.yul\":12763:13182   */\n    tag_233:\n      0x00\n        /* \"#utility.yul\":12967:12969   */\n      0x20\n        /* \"#utility.yul\":12956:12965   */\n      dup3\n        /* \"#utility.yul\":12952:12970   */\n      add\n        /* \"#utility.yul\":12944:12970   */\n      swap1\n      pop\n        /* \"#utility.yul\":13016:13025   */\n      dup2\n        /* \"#utility.yul\":13010:13014   */\n      dup2\n        /* \"#utility.yul\":13006:13026   */\n      sub\n        /* \"#utility.yul\":13002:13003   */\n      0x00\n        /* \"#utility.yul\":12991:13000   */\n      dup4\n        /* \"#utility.yul\":12987:13004   */\n      add\n        /* \"#utility.yul\":12980:13027   */\n      mstore\n        /* \"#utility.yul\":13044:13175   */\n      tag_469\n        /* \"#utility.yul\":13170:13174   */\n      dup2\n        /* \"#utility.yul\":13044:13175   */\n      tag_436\n      jump\t// in\n    tag_469:\n        /* \"#utility.yul\":13036:13175   */\n      swap1\n      pop\n        /* \"#utility.yul\":12934:13182   */\n      swap2\n      swap1\n      pop\n      jump\t// out\n        /* \"#utility.yul\":13188:13607   */\n    tag_214:\n      0x00\n        /* \"#utility.yul\":13392:13394   */\n      0x20\n        /* \"#utility.yul\":13381:13390   */\n      dup3\n        /* \"#utility.yul\":13377:13395   */\n      add\n        /* \"#utility.yul\":13369:13395   */\n      swap1\n      pop\n        /* \"#utility.yul\":13441:13450   */\n      dup2\n        /* \"#utility.yul\":13435:13439   */\n      dup2\n        /* \"#utility.yul\":13431:13451   */\n      sub\n        /* \"#utility.yul\":13427:13428   */\n      0x00\n        /* \"#utility.yul\":13416:13425   */\n      dup4\n        /* \"#utility.yul\":13412:13429   */\n      add\n        /* \"#utility.yul\":13405:13452   */\n      mstore\n        /* \"#utility.yul\":13469:13600   */\n      tag_471\n        /* \"#utility.yul\":13595:13599   */\n      dup2\n        /* \"#utility.yul\":13469:13600   */\n      tag_441\n      jump\t// in\n    tag_471:\n        /* \"#utility.yul\":13461:13600   */\n      swap1\n      pop\n        /* \"#utility.yul\":13359:13607   */\n      swap2\n      swap1\n      pop\n      jump\t// out\n        /* \"#utility.yul\":13613:13742   */\n    tag_320:\n      0x00\n        /* \"#utility.yul\":13674:13694   */\n      tag_473\n      tag_474\n      jump\t// in\n    tag_473:\n        /* \"#utility.yul\":13664:13694   */\n      swap1\n      pop\n        /* \"#utility.yul\":13703:13736   */\n      tag_475\n        /* \"#utility.yul\":13731:13735   */\n      dup3\n        /* \"#utility.yul\":13723:13729   */\n      dup3\n        /* \"#utility.yul\":13703:13736   */\n      tag_476\n      jump\t// in\n    tag_475:\n        /* \"#utility.yul\":13654:13742   */\n      swap2\n      swap1\n      pop\n      jump\t// out\n        /* \"#utility.yul\":13748:13823   */\n    tag_474:\n      0x00\n        /* \"#utility.yul\":13814:13816   */\n      0x40\n        /* \"#utility.yul\":13808:13817   */\n      mload\n        /* \"#utility.yul\":13798:13817   */\n      swap1\n      pop\n        /* \"#utility.yul\":13788:13823   */\n      swap1\n      jump\t// out\n        /* \"#utility.yul\":13829:14137   */\n    tag_319:\n      0x00\n        /* \"#utility.yul\":13981:13999   */\n      0xffffffffffffffff\n        /* \"#utility.yul\":13973:13979   */\n      dup3\n        /* \"#utility.yul\":13970:14000   */\n      gt\n        /* \"#utility.yul\":13967:13969   */\n      iszero\n      tag_479\n      jumpi\n        /* \"#utility.yul\":14003:14021   */\n      tag_480\n      tag_481\n      jump\t// in\n    tag_480:\n        /* \"#utility.yul\":13967:13969   */\n    tag_479:\n        /* \"#utility.yul\":14041:14070   */\n      tag_482\n        /* \"#utility.yul\":14063:14069   */\n      dup3\n        /* \"#utility.yul\":14041:14070   */\n      tag_400\n      jump\t// in\n    tag_482:\n        /* \"#utility.yul\":14033:14070   */\n      swap1\n      pop\n        /* \"#utility.yul\":14125:14129   */\n      0x20\n        /* \"#utility.yul\":14119:14123   */\n      dup2\n        /* \"#utility.yul\":14115:14130   */\n      add\n        /* \"#utility.yul\":14107:14130   */\n      swap1\n      pop\n        /* \"#utility.yul\":13896:14137   */\n      swap2\n      swap1\n      pop\n      jump\t// out\n        /* \"#utility.yul\":14143:14275   */\n    tag_370:\n      0x00\n        /* \"#utility.yul\":14233:14236   */\n      dup2\n        /* \"#utility.yul\":14225:14236   */\n      swap1\n      pop\n        /* \"#utility.yul\":14263:14267   */\n      0x20\n        /* \"#utility.yul\":14258:14261   */\n      dup3\n        /* \"#utility.yul\":14254:14268   */\n      add\n        /* \"#utility.yul\":14246:14268   */\n      swap1\n      pop\n        /* \"#utility.yul\":14215:14275   */\n      swap2\n      swap1\n      pop\n      jump\t// out\n        /* \"#utility.yul\":14281:14433   */\n    tag_384:\n      0x00\n        /* \"#utility.yul\":14391:14394   */\n      dup2\n        /* \"#utility.yul\":14383:14394   */\n      swap1\n      pop\n        /* \"#utility.yul\":14421:14425   */\n      0x20\n        /* \"#utility.yul\":14416:14419   */\n      dup3\n        /* \"#utility.yul\":14412:14426   */\n      add\n        /* \"#utility.yul\":14404:14426   */\n      swap1\n      pop\n        /* \"#utility.yul\":14373:14433   */\n      swap2\n      swap1\n      pop\n      jump\t// out\n        /* \"#utility.yul\":14439:14580   */\n    tag_422:\n      0x00\n        /* \"#utility.yul\":14511:14514   */\n      dup2\n        /* \"#utility.yul\":14503:14514   */\n      swap1\n      pop\n        /* \"#utility.yul\":14534:14537   */\n      dup2\n        /* \"#utility.yul\":14531:14532   */\n      0x00\n        /* \"#utility.yul\":14524:14538   */\n      mstore\n        /* \"#utility.yul\":14568:14572   */\n      0x20\n        /* \"#utility.yul\":14565:14566   */\n      0x00\n        /* \"#utility.yul\":14555:14573   */\n      keccak256\n        /* \"#utility.yul\":14547:14573   */\n      swap1\n      pop\n        /* \"#utility.yul\":14493:14580   */\n      swap2\n      swap1\n      pop\n      jump\t// out\n        /* \"#utility.yul\":14586:14700   */\n    tag_366:\n      0x00\n        /* \"#utility.yul\":14687:14692   */\n      dup2\n        /* \"#utility.yul\":14681:14693   */\n      mload\n        /* \"#utility.yul\":14671:14693   */\n      swap1\n      pop\n        /* \"#utility.yul\":14660:14700   */\n      swap2\n      swap1\n      pop\n      jump\t// out\n        /* \"#utility.yul\":14706:14840   */\n    tag_380:\n      0x00\n        /* \"#utility.yul\":14827:14832   */\n      dup2\n        /* \"#utility.yul\":14821:14833   */\n      mload\n        /* \"#utility.yul\":14811:14833   */\n      swap1\n      pop\n        /* \"#utility.yul\":14800:14840   */\n      swap2\n      swap1\n      pop\n      jump\t// out\n        /* \"#utility.yul\":14846:14945   */\n    tag_394:\n      0x00\n        /* \"#utility.yul\":14932:14937   */\n      dup2\n        /* \"#utility.yul\":14926:14938   */\n      mload\n        /* \"#utility.yul\":14916:14938   */\n      swap1\n      pop\n        /* \"#utility.yul\":14905:14945   */\n      swap2\n      swap1\n      pop\n      jump\t// out\n        /* \"#utility.yul\":14951:15064   */\n    tag_376:\n      0x00\n        /* \"#utility.yul\":15053:15057   */\n      0x20\n        /* \"#utility.yul\":15048:15051   */\n      dup3\n        /* \"#utility.yul\":15044:15058   */\n      add\n        /* \"#utility.yul\":15036:15058   */\n      swap1\n      pop\n        /* \"#utility.yul\":15026:15064   */\n      swap2\n      swap1\n      pop\n      jump\t// out\n        /* \"#utility.yul\":15070:15203   */\n    tag_390:\n      0x00\n        /* \"#utility.yul\":15192:15196   */\n      0x20\n        /* \"#utility.yul\":15187:15190   */\n      dup3\n        /* \"#utility.yul\":15183:15197   */\n      add\n        /* \"#utility.yul\":15175:15197   */\n      swap1\n      pop\n        /* \"#utility.yul\":15165:15203   */\n      swap2\n      swap1\n      pop\n      jump\t// out\n        /* \"#utility.yul\":15209:15393   */\n    tag_368:\n      0x00\n        /* \"#utility.yul\":15342:15348   */\n      dup3\n        /* \"#utility.yul\":15337:15340   */\n      dup3\n        /* \"#utility.yul\":15330:15349   */\n      mstore\n        /* \"#utility.yul\":15382:15386   */\n      0x20\n        /* \"#utility.yul\":15377:15380   */\n      dup3\n        /* \"#utility.yul\":15373:15387   */\n      add\n        /* \"#utility.yul\":15358:15387   */\n      swap1\n      pop\n        /* \"#utility.yul\":15320:15393   */\n      swap3\n      swap2\n      pop\n      pop\n      jump\t// out\n        /* \"#utility.yul\":15399:15603   */\n    tag_382:\n      0x00\n        /* \"#utility.yul\":15552:15558   */\n      dup3\n        /* \"#utility.yul\":15547:15550   */\n      dup3\n        /* \"#utility.yul\":15540:15559   */\n      mstore\n        /* \"#utility.yul\":15592:15596   */\n      0x20\n        /* \"#utility.yul\":15587:15590   */\n      dup3\n        /* \"#utility.yul\":15583:15597   */\n      add\n        /* \"#utility.yul\":15568:15597   */\n      swap1\n      pop\n        /* \"#utility.yul\":15530:15603   */\n      swap3\n      swap2\n      pop\n      pop\n      jump\t// out\n        /* \"#utility.yul\":15609:15768   */\n    tag_396:\n      0x00\n        /* \"#utility.yul\":15717:15723   */\n      dup3\n        /* \"#utility.yul\":15712:15715   */\n      dup3\n        /* \"#utility.yul\":15705:15724   */\n      mstore\n        /* \"#utility.yul\":15757:15761   */\n      0x20\n        /* \"#utility.yul\":15752:15755   */\n      dup3\n        /* \"#utility.yul\":15748:15762   */\n      add\n        /* \"#utility.yul\":15733:15762   */\n      swap1\n      pop\n        /* \"#utility.yul\":15695:15768   */\n      swap3\n      swap2\n      pop\n      pop\n      jump\t// out\n        /* \"#utility.yul\":15774:15943   */\n    tag_405:\n      0x00\n        /* \"#utility.yul\":15892:15898   */\n      dup3\n        /* \"#utility.yul\":15887:15890   */\n      dup3\n        /* \"#utility.yul\":15880:15899   */\n      mstore\n        /* \"#utility.yul\":15932:15936   */\n      0x20\n        /* \"#utility.yul\":15927:15930   */\n      dup3\n        /* \"#utility.yul\":15923:15937   */\n      add\n        /* \"#utility.yul\":15908:15937   */\n      swap1\n      pop\n        /* \"#utility.yul\":15870:15943   */\n      swap3\n      swap2\n      pop\n      pop\n      jump\t// out\n        /* \"#utility.yul\":15949:16097   */\n    tag_412:\n      0x00\n        /* \"#utility.yul\":16088:16091   */\n      dup2\n        /* \"#utility.yul\":16073:16091   */\n      swap1\n      pop\n        /* \"#utility.yul\":16063:16097   */\n      swap3\n      swap2\n      pop\n      pop\n      jump\t// out\n        /* \"#utility.yul\":16103:16294   */\n    tag_222:\n      0x00\n        /* \"#utility.yul\":16163:16183   */\n      tag_497\n        /* \"#utility.yul\":16181:16182   */\n      dup3\n        /* \"#utility.yul\":16163:16183   */\n      tag_498\n      jump\t// in\n    tag_497:\n        /* \"#utility.yul\":16158:16183   */\n      swap2\n      pop\n        /* \"#utility.yul\":16197:16217   */\n      tag_499\n        /* \"#utility.yul\":16215:16216   */\n      dup4\n        /* \"#utility.yul\":16197:16217   */\n      tag_498\n      jump\t// in\n    tag_499:\n        /* \"#utility.yul\":16192:16217   */\n      swap3\n      pop\n        /* \"#utility.yul\":16236:16237   */\n      dup3\n        /* \"#utility.yul\":16233:16234   */\n      dup3\n        /* \"#utility.yul\":16230:16238   */\n      lt\n        /* \"#utility.yul\":16227:16229   */\n      iszero\n      tag_500\n      jumpi\n        /* \"#utility.yul\":16241:16259   */\n      tag_501\n      tag_502\n      jump\t// in\n    tag_501:\n        /* \"#utility.yul\":16227:16229   */\n    tag_500:\n        /* \"#utility.yul\":16286:16287   */\n      dup3\n        /* \"#utility.yul\":16283:16284   */\n      dup3\n        /* \"#utility.yul\":16279:16288   */\n      sub\n        /* \"#utility.yul\":16271:16288   */\n      swap1\n      pop\n        /* \"#utility.yul\":16148:16294   */\n      swap3\n      swap2\n      pop\n      pop\n      jump\t// out\n        /* \"#utility.yul\":16300:16396   */\n    tag_359:\n      0x00\n        /* \"#utility.yul\":16366:16390   */\n      tag_504\n        /* \"#utility.yul\":16384:16389   */\n      dup3\n        /* \"#utility.yul\":16366:16390   */\n      tag_505\n      jump\t// in\n    tag_504:\n        /* \"#utility.yul\":16355:16390   */\n      swap1\n      pop\n        /* \"#utility.yul\":16345:16396   */\n      swap2\n      swap1\n      pop\n      jump\t// out\n        /* \"#utility.yul\":16402:16528   */\n    tag_505:\n      0x00\n        /* \"#utility.yul\":16479:16521   */\n      0xffffffffffffffffffffffffffffffffffffffff\n        /* \"#utility.yul\":16472:16477   */\n      dup3\n        /* \"#utility.yul\":16468:16522   */\n      and\n        /* \"#utility.yul\":16457:16522   */\n      swap1\n      pop\n        /* \"#utility.yul\":16447:16528   */\n      swap2\n      swap1\n      pop\n      jump\t// out\n        /* \"#utility.yul\":16534:16611   */\n    tag_498:\n      0x00\n        /* \"#utility.yul\":16600:16605   */\n      dup2\n        /* \"#utility.yul\":16589:16605   */\n      swap1\n      pop\n        /* \"#utility.yul\":16579:16611   */\n      swap2\n      swap1\n      pop\n      jump\t// out\n        /* \"#utility.yul\":16617:16771   */\n    tag_323:\n        /* \"#utility.yul\":16701:16707   */\n      dup3\n        /* \"#utility.yul\":16696:16699   */\n      dup2\n        /* \"#utility.yul\":16691:16694   */\n      dup4\n        /* \"#utility.yul\":16678:16708   */\n      calldatacopy\n        /* \"#utility.yul\":16763:16764   */\n      0x00\n        /* \"#utility.yul\":16754:16760   */\n      dup4\n        /* \"#utility.yul\":16749:16752   */\n      dup4\n        /* \"#utility.yul\":16745:16761   */\n      add\n        /* \"#utility.yul\":16738:16765   */\n      mstore\n        /* \"#utility.yul\":16668:16771   */\n      pop\n      pop\n      pop\n      jump\t// out\n        /* \"#utility.yul\":16777:17084   */\n    tag_398:\n        /* \"#utility.yul\":16845:16846   */\n      0x00\n        /* \"#utility.yul\":16855:16968   */\n    tag_510:\n        /* \"#utility.yul\":16869:16875   */\n      dup4\n        /* \"#utility.yul\":16866:16867   */\n      dup2\n        /* \"#utility.yul\":16863:16876   */\n      lt\n        /* \"#utility.yul\":16855:16968   */\n      iszero\n      tag_512\n      jumpi\n        /* \"#utility.yul\":16954:16955   */\n      dup1\n        /* \"#utility.yul\":16949:16952   */\n      dup3\n        /* \"#utility.yul\":16945:16956   */\n      add\n        /* \"#utility.yul\":16939:16957   */\n      mload\n        /* \"#utility.yul\":16935:16936   */\n      dup2\n        /* \"#utility.yul\":16930:16933   */\n      dup5\n        /* \"#utility.yul\":16926:16937   */\n      add\n        /* \"#utility.yul\":16919:16958   */\n      mstore\n        /* \"#utility.yul\":16891:16893   */\n      0x20\n        /* \"#utility.yul\":16888:16889   */\n      dup2\n        /* \"#utility.yul\":16884:16894   */\n      add\n        /* \"#utility.yul\":16879:16894   */\n      swap1\n      pop\n        /* \"#utility.yul\":16855:16968   */\n      jump(tag_510)\n    tag_512:\n        /* \"#utility.yul\":16986:16992   */\n      dup4\n        /* \"#utility.yul\":16983:16984   */\n      dup2\n        /* \"#utility.yul\":16980:16993   */\n      gt\n        /* \"#utility.yul\":16977:16979   */\n      iszero\n      tag_513\n      jumpi\n        /* \"#utility.yul\":17066:17067   */\n      0x00\n        /* \"#utility.yul\":17057:17063   */\n      dup5\n        /* \"#utility.yul\":17052:17055   */\n      dup5\n        /* \"#utility.yul\":17048:17064   */\n      add\n        /* \"#utility.yul\":17041:17068   */\n      mstore\n        /* \"#utility.yul\":16977:16979   */\n    tag_513:\n        /* \"#utility.yul\":16826:17084   */\n      pop\n      pop\n      pop\n      pop\n      jump\t// out\n        /* \"#utility.yul\":17090:17410   */\n    tag_53:\n      0x00\n        /* \"#utility.yul\":17171:17172   */\n      0x02\n        /* \"#utility.yul\":17165:17169   */\n      dup3\n        /* \"#utility.yul\":17161:17173   */\n      div\n        /* \"#utility.yul\":17151:17173   */\n      swap1\n      pop\n        /* \"#utility.yul\":17218:17219   */\n      0x01\n        /* \"#utility.yul\":17212:17216   */\n      dup3\n        /* \"#utility.yul\":17208:17220   */\n      and\n        /* \"#utility.yul\":17239:17257   */\n      dup1\n        /* \"#utility.yul\":17229:17231   */\n      tag_515\n      jumpi\n        /* \"#utility.yul\":17295:17299   */\n      0x7f\n        /* \"#utility.yul\":17287:17293   */\n      dup3\n        /* \"#utility.yul\":17283:17300   */\n      and\n        /* \"#utility.yul\":17273:17300   */\n      swap2\n      pop\n        /* \"#utility.yul\":17229:17231   */\n    tag_515:\n        /* \"#utility.yul\":17357:17359   */\n      0x20\n        /* \"#utility.yul\":17349:17355   */\n      dup3\n        /* \"#utility.yul\":17346:17360   */\n      lt\n        /* \"#utility.yul\":17326:17344   */\n      dup2\n        /* \"#utility.yul\":17323:17361   */\n      eq\n        /* \"#utility.yul\":17320:17322   */\n      iszero\n      tag_516\n      jumpi\n        /* \"#utility.yul\":17376:17394   */\n      tag_517\n      tag_518\n      jump\t// in\n    tag_517:\n        /* \"#utility.yul\":17320:17322   */\n    tag_516:\n        /* \"#utility.yul\":17141:17410   */\n      pop\n      swap2\n      swap1\n      pop\n      jump\t// out\n        /* \"#utility.yul\":17416:17697   */\n    tag_476:\n        /* \"#utility.yul\":17499:17526   */\n      tag_520\n        /* \"#utility.yul\":17521:17525   */\n      dup3\n        /* \"#utility.yul\":17499:17526   */\n      tag_400\n      jump\t// in\n    tag_520:\n        /* \"#utility.yul\":17491:17497   */\n      dup2\n        /* \"#utility.yul\":17487:17527   */\n      add\n        /* \"#utility.yul\":17629:17635   */\n      dup2\n        /* \"#utility.yul\":17617:17627   */\n      dup2\n        /* \"#utility.yul\":17614:17636   */\n      lt\n        /* \"#utility.yul\":17593:17611   */\n      0xffffffffffffffff\n        /* \"#utility.yul\":17581:17591   */\n      dup3\n        /* \"#utility.yul\":17578:17612   */\n      gt\n        /* \"#utility.yul\":17575:17637   */\n      or\n        /* \"#utility.yul\":17572:17574   */\n      iszero\n      tag_521\n      jumpi\n        /* \"#utility.yul\":17640:17658   */\n      tag_522\n      tag_481\n      jump\t// in\n    tag_522:\n        /* \"#utility.yul\":17572:17574   */\n    tag_521:\n        /* \"#utility.yul\":17680:17690   */\n      dup1\n        /* \"#utility.yul\":17676:17678   */\n      0x40\n        /* \"#utility.yul\":17669:17691   */\n      mstore\n        /* \"#utility.yul\":17459:17697   */\n      pop\n      pop\n      pop\n      jump\t// out\n        /* \"#utility.yul\":17703:17936   */\n    tag_197:\n      0x00\n        /* \"#utility.yul\":17765:17789   */\n      tag_524\n        /* \"#utility.yul\":17783:17788   */\n      dup3\n        /* \"#utility.yul\":17765:17789   */\n      tag_498\n      jump\t// in\n    tag_524:\n        /* \"#utility.yul\":17756:17789   */\n      swap2\n      pop\n        /* \"#utility.yul\":17811:17877   */\n      0xffffffffffffffffffffffffffffffffffffffffffffffffffffffffffffffff\n        /* \"#utility.yul\":17804:17809   */\n      dup3\n        /* \"#utility.yul\":17801:17878   */\n      eq\n        /* \"#utility.yul\":17798:17800   */\n      iszero\n      tag_525\n      jumpi\n        /* \"#utility.yul\":17881:17899   */\n      tag_526\n      tag_502\n      jump\t// in\n    tag_526:\n        /* \"#utility.yul\":17798:17800   */\n    tag_525:\n        /* \"#utility.yul\":17928:17929   */\n      0x01\n        /* \"#utility.yul\":17921:17926   */\n      dup3\n        /* \"#utility.yul\":17917:17930   */\n      add\n        /* \"#utility.yul\":17910:17930   */\n      swap1\n      pop\n        /* \"#utility.yul\":17746:17936   */\n      swap2\n      swap1\n      pop\n      jump\t// out\n        /* \"#utility.yul\":17942:18122   */\n    tag_502:\n        /* \"#utility.yul\":17990:18067   */\n      0x4e487b7100000000000000000000000000000000000000000000000000000000\n        /* \"#utility.yul\":17987:17988   */\n      0x00\n        /* \"#utility.yul\":17980:18068   */\n      mstore\n        /* \"#utility.yul\":18087:18091   */\n      0x11\n        /* \"#utility.yul\":18084:18085   */\n      0x04\n        /* \"#utility.yul\":18077:18092   */\n      mstore\n        /* \"#utility.yul\":18111:18115   */\n      0x24\n        /* \"#utility.yul\":18108:18109   */\n      0x00\n        /* \"#utility.yul\":18101:18116   */\n      revert\n        /* \"#utility.yul\":18128:18308   */\n    tag_518:\n        /* \"#utility.yul\":18176:18253   */\n      0x4e487b7100000000000000000000000000000000000000000000000000000000\n        /* \"#utility.yul\":18173:18174   */\n      0x00\n        /* \"#utility.yul\":18166:18254   */\n      mstore\n        /* \"#utility.yul\":18273:18277   */\n      0x22\n        /* \"#utility.yul\":18270:18271   */\n      0x04\n        /* \"#utility.yul\":18263:18278   */\n      mstore\n        /* \"#utility.yul\":18297:18301   */\n      0x24\n        /* \"#utility.yul\":18294:18295   */\n      0x00\n        /* \"#utility.yul\":18287:18302   */\n      revert\n        /* \"#utility.yul\":18314:18494   */\n    tag_481:\n        /* \"#utility.yul\":18362:18439   */\n      0x4e487b7100000000000000000000000000000000000000000000000000000000\n        /* \"#utility.yul\":18359:18360   */\n      0x00\n        /* \"#utility.yul\":18352:18440   */\n      mstore\n        /* \"#utility.yul\":18459:18463   */\n      0x41\n        /* \"#utility.yul\":18456:18457   */\n      0x04\n        /* \"#utility.yul\":18449:18464   */\n      mstore\n        /* \"#utility.yul\":18483:18487   */\n      0x24\n        /* \"#utility.yul\":18480:18481   */\n      0x00\n        /* \"#utility.yul\":18473:18488   */\n      revert\n        /* \"#utility.yul\":18500:18602   */\n    tag_400:\n      0x00\n        /* \"#utility.yul\":18592:18594   */\n      0x1f\n        /* \"#utility.yul\":18588:18595   */\n      not\n        /* \"#utility.yul\":18583:18585   */\n      0x1f\n        /* \"#utility.yul\":18576:18581   */\n      dup4\n        /* \"#utility.yul\":18572:18586   */\n      add\n        /* \"#utility.yul\":18568:18596   */\n      and\n        /* \"#utility.yul\":18558:18596   */\n      swap1\n      pop\n        /* \"#utility.yul\":18548:18602   */\n      swap2\n      swap1\n      pop\n      jump\t// out\n        /* \"#utility.yul\":18608:18789   */\n    tag_430:\n        /* \"#utility.yul\":18748:18781   */\n      0x446f63746f7220697320616c7265616479206e6f7420696e2061636365737300\n        /* \"#utility.yul\":18744:18745   */\n      0x00\n        /* \"#utility.yul\":18736:18742   */\n      dup3\n        /* \"#utility.yul\":18732:18746   */\n      add\n        /* \"#utility.yul\":18725:18782   */\n      mstore\n        /* \"#utility.yul\":18714:18789   */\n      pop\n      jump\t// out\n        /* \"#utility.yul\":18795:18969   */\n    tag_435:\n        /* \"#utility.yul\":18935:18961   */\n      0x616c726561647920676976656e20746865206163636573730000000000000000\n        /* \"#utility.yul\":18931:18932   */\n      0x00\n        /* \"#utility.yul\":18923:18929   */\n      dup3\n        /* \"#utility.yul\":18919:18933   */\n      add\n        /* \"#utility.yul\":18912:18962   */\n      mstore\n        /* \"#utility.yul\":18901:18969   */\n      pop\n      jump\t// out\n        /* \"#utility.yul\":18975:19154   */\n    tag_440:\n        /* \"#utility.yul\":19115:19146   */\n      0x46696c6520697320616c7265616479206f7574206f6620616363657373000000\n        /* \"#utility.yul\":19111:19112   */\n      0x00\n        /* \"#utility.yul\":19103:19109   */\n      dup3\n        /* \"#utility.yul\":19099:19113   */\n      add\n        /* \"#utility.yul\":19092:19147   */\n      mstore\n        /* \"#utility.yul\":19081:19154   */\n      pop\n      jump\t// out\n        /* \"#utility.yul\":19160:19329   */\n    tag_445:\n        /* \"#utility.yul\":19300:19321   */\n      0x5468657265206973206e6f20656c656d656e7400000000000000000000000000\n        /* \"#utility.yul\":19296:19297   */\n      0x00\n        /* \"#utility.yul\":19288:19294   */\n      dup3\n        /* \"#utility.yul\":19284:19298   */\n      add\n        /* \"#utility.yul\":19277:19322   */\n      mstore\n        /* \"#utility.yul\":19266:19329   */\n      pop\n      jump\t// out\n        /* \"#utility.yul\":19335:19457   */\n    tag_327:\n        /* \"#utility.yul\":19408:19432   */\n      tag_536\n        /* \"#utility.yul\":19426:19431   */\n      dup2\n        /* \"#utility.yul\":19408:19432   */\n      tag_359\n      jump\t// in\n    tag_536:\n        /* \"#utility.yul\":19401:19406   */\n      dup2\n        /* \"#utility.yul\":19398:19433   */\n      eq\n        /* \"#utility.yul\":19388:19390   */\n      tag_537\n      jumpi\n        /* \"#utility.yul\":19447:19448   */\n      0x00\n        /* \"#utility.yul\":19444:19445   */\n      dup1\n        /* \"#utility.yul\":19437:19449   */\n      revert\n        /* \"#utility.yul\":19388:19390   */\n    tag_537:\n        /* \"#utility.yul\":19378:19457   */\n      pop\n      jump\t// out\n\n    auxdata: 0xa2646970667358221220a0e21d96fca7455b6cb8bcca109ec866c8119dead6e7ddabfbedee4af8422d5964736f6c63430008030033\n}\n","bytecode":{"linkReferences":{},"object":"60806040527fffffffffffffffffffffffffffffffffffffffffffffffffffffffffffffffff60005534801561003457600080fd5b50613850806100446000396000f3fe608060405234801561001057600080fd5b50600436106100935760003560e01c80638d0981c2116100665780638d0981c214610110578063ab519d1f1461012c578063b380f5c614610148578063cf5ce49414610167578063d18950351461018357610093565b80632da96d7314610098578063326df664146100b657806332ec9375146100d65780638be9312d146100f2575b600080fd5b6100a061019f565b6040516100ad91906133ac565b60405180910390f35b6100be6104e4565b6040516100cd93929190613367565b60405180910390f35b6100f060048036038101906100eb9190612ef5565b610765565b005b6100fa610a01565b60405161010791906133ac565b60405180910390f35b61012a60048036038101906101259190612f36565b610ca9565b005b61014660048036038101906101419190612ef5565b610ee3565b005b61015061129f565b60405161015e929190613337565b60405180910390f35b610181600480360381019061017c9190612ea1565b611489565b005b61019d60048036038101906101989190612ea1565b611ece565b005b606033600073ffffffffffffffffffffffffffffffffffffffff16600360008373ffffffffffffffffffffffffffffffffffffffff1673ffffffffffffffffffffffffffffffffffffffff16815260200190815260200160002060000160009054906101000a900473ffffffffffffffffffffffffffffffffffffffff1673ffffffffffffffffffffffffffffffffffffffff161161023d57600080fd5b600160003373ffffffffffffffffffffffffffffffffffffffff1673ffffffffffffffffffffffffffffffffffffffff168152602001908152602001600020805480602002602001604051908101604052809291908181526020016000905b828210156104da57838290600052602060002090600402016040518060800160405290816000820180546102cf90613615565b80601f01602080910402602001604051908101604052809291908181526020018280546102fb90613615565b80156103485780601f1061031d57610100808354040283529160200191610348565b820191906000526020600020905b81548152906001019060200180831161032b57829003601f168201915b505050505081526020016001820160009054906101000a900473ffffffffffffffffffffffffffffffffffffffff1673ffffffffffffffffffffffffffffffffffffffff1673ffffffffffffffffffffffffffffffffffffffff1681526020016002820180546103b790613615565b80601f01602080910402602001604051908101604052809291908181526020018280546103e390613615565b80156104305780601f1061040557610100808354040283529160200191610430565b820191906000526020600020905b81548152906001019060200180831161041357829003601f168201915b5050505050815260200160038201805461044990613615565b80601f016020809104026020016040519081016040528092919081815260200182805461047590613615565b80156104c25780601f10610497576101008083540402835291602001916104c2565b820191906000526020600020905b8154815290600101906020018083116104a557829003601f168201915b5050505050815250508152602001906001019061029c565b5050505091505090565b600060608033600073ffffffffffffffffffffffffffffffffffffffff16600360008373ffffffffffffffffffffffffffffffffffffffff1673ffffffffffffffffffffffffffffffffffffffff16815260200190815260200160002060000160009054906101000a900473ffffffffffffffffffffffffffffffffffffffff1673ffffffffffffffffffffffffffffffffffffffff161161058557600080fd5b6000600360003373ffffffffffffffffffffffffffffffffffffffff1673ffffffffffffffffffffffffffffffffffffffff1681526020019081526020016000206040518060600160405290816000820160009054906101000a900473ffffffffffffffffffffffffffffffffffffffff1673ffffffffffffffffffffffffffffffffffffffff1673ffffffffffffffffffffffffffffffffffffffff16815260200160018201805461063790613615565b80601f016020809104026020016040519081016040528092919081815260200182805461066390613615565b80156106b05780601f10610685576101008083540402835291602001916106b0565b820191906000526020600020905b81548152906001019060200180831161069357829003601f168201915b505050505081526020016002820180548060200260200160405190810160405280929190818152602001828054801561073e57602002820191906000526020600020905b8160009054906101000a900473ffffffffffffffffffffffffffffffffffffffff1673ffffffffffffffffffffffffffffffffffffffff16815260200190600101908083116106f4575b50505050508152505090508060000151816020015182604001519450945094505050909192565b6000600460003373ffffffffffffffffffffffffffffffffffffffff1673ffffffffffffffffffffffffffffffffffffffff1681526020019081526020016000206040518060400160405290816000820160009054906101000a900473ffffffffffffffffffffffffffffffffffffffff1673ffffffffffffffffffffffffffffffffffffffff1673ffffffffffffffffffffffffffffffffffffffff16815260200160018201805461081790613615565b80601f016020809104026020016040519081016040528092919081815260200182805461084390613615565b80156108905780601f1061086557610100808354040283529160200191610890565b820191906000526020600020905b81548152906001019060200180831161087357829003601f168201915b50505050508152505090507fc5d2460186f7233c927e7db2dcc703c0e500b653ca82273b7bfad8045d85a470826040516020016108cd9190613309565b6040516020818303038152906040528051906020012014156108ee57600080fd5b600073ffffffffffffffffffffffffffffffffffffffff16816000015173ffffffffffffffffffffffffffffffffffffffff16111561092c57600080fd5b60405180604001604052803373ffffffffffffffffffffffffffffffffffffffff16815260200183815250600460003373ffffffffffffffffffffffffffffffffffffffff1673ffffffffffffffffffffffffffffffffffffffff16815260200190815260200160002060008201518160000160006101000a81548173ffffffffffffffffffffffffffffffffffffffff021916908373ffffffffffffffffffffffffffffffffffffffff16021790555060208201518160010190805190602001906109f9929190612bd8565b509050505050565b6060600260003373ffffffffffffffffffffffffffffffffffffffff1673ffffffffffffffffffffffffffffffffffffffff168152602001908152602001600020805480602002602001604051908101604052809291908181526020016000905b82821015610ca05783829060005260206000209060040201604051806080016040529081600082018054610a9590613615565b80601f0160208091040260200160405190810160405280929190818152602001828054610ac190613615565b8015610b0e5780601f10610ae357610100808354040283529160200191610b0e565b820191906000526020600020905b815481529060010190602001808311610af157829003601f168201915b505050505081526020016001820160009054906101000a900473ffffffffffffffffffffffffffffffffffffffff1673ffffffffffffffffffffffffffffffffffffffff1673ffffffffffffffffffffffffffffffffffffffff168152602001600282018054610b7d90613615565b80601f0160208091040260200160405190810160405280929190818152602001828054610ba990613615565b8015610bf65780601f10610bcb57610100808354040283529160200191610bf6565b820191906000526020600020905b815481529060010190602001808311610bd957829003601f168201915b50505050508152602001600382018054610c0f90613615565b80601f0160208091040260200160405190810160405280929190818152602001828054610c3b90613615565b8015610c885780601f10610c5d57610100808354040283529160200191610c88565b820191906000526020600020905b815481529060010190602001808311610c6b57829003601f168201915b50505050508152505081526020019060010190610a62565b50505050905090565b33600073ffffffffffffffffffffffffffffffffffffffff16600360008373ffffffffffffffffffffffffffffffffffffffff1673ffffffffffffffffffffffffffffffffffffffff16815260200190815260200160002060000160009054906101000a900473ffffffffffffffffffffffffffffffffffffffff1673ffffffffffffffffffffffffffffffffffffffff1611610d4557600080fd5b7fc5d2460186f7233c927e7db2dcc703c0e500b653ca82273b7bfad8045d85a47084604051602001610d779190613309565b604051602081830303815290604052805190602001201415610d9857600080fd5b600060405180608001604052808681526020013373ffffffffffffffffffffffffffffffffffffffff168152602001848152602001858152509050600160003373ffffffffffffffffffffffffffffffffffffffff1673ffffffffffffffffffffffffffffffffffffffff1681526020019081526020016000208190806001815401808255809150506001900390600052602060002090600402016000909190919091506000820151816000019080519060200190610e58929190612bd8565b5060208201518160010160006101000a81548173ffffffffffffffffffffffffffffffffffffffff021916908373ffffffffffffffffffffffffffffffffffffffff1602179055506040820151816002019080519060200190610ebc929190612bd8565b506060820151816003019080519060200190610ed9929190612bd8565b5050505050505050565b6000600360003373ffffffffffffffffffffffffffffffffffffffff1673ffffffffffffffffffffffffffffffffffffffff1681526020019081526020016000206040518060600160405290816000820160009054906101000a900473ffffffffffffffffffffffffffffffffffffffff1673ffffffffffffffffffffffffffffffffffffffff1673ffffffffffffffffffffffffffffffffffffffff168152602001600182018054610f9590613615565b80601f0160208091040260200160405190810160405280929190818152602001828054610fc190613615565b801561100e5780601f10610fe35761010080835404028352916020019161100e565b820191906000526020600020905b815481529060010190602001808311610ff157829003601f168201915b505050505081526020016002820180548060200260200160405190810160405280929190818152602001828054801561109c57602002820191906000526020600020905b8160009054906101000a900473ffffffffffffffffffffffffffffffffffffffff1673ffffffffffffffffffffffffffffffffffffffff1681526020019060010190808311611052575b50505050508152505090507fc5d2460186f7233c927e7db2dcc703c0e500b653ca82273b7bfad8045d85a470826040516020016110d99190613309565b6040516020818303038152906040528051906020012014156110fa57600080fd5b600073ffffffffffffffffffffffffffffffffffffffff16816000015173ffffffffffffffffffffffffffffffffffffffff16111561113857600080fd5b60405180606001604052803373ffffffffffffffffffffffffffffffffffffffff168152602001838152602001600067ffffffffffffffff8111156111a6577f4e487b7100000000000000000000000000000000000000000000000000000000600052604160045260246000fd5b6040519080825280602002602001820160405280156111d45781602001602082028036833780820191505090505b50815250600360003373ffffffffffffffffffffffffffffffffffffffff1673ffffffffffffffffffffffffffffffffffffffff16815260200190815260200160002060008201518160000160006101000a81548173ffffffffffffffffffffffffffffffffffffffff021916908373ffffffffffffffffffffffffffffffffffffffff160217905550602082015181600101908051906020019061127a929190612bd8565b506040820151816002019080519060200190611297929190612c5e565b509050505050565b6000606033600073ffffffffffffffffffffffffffffffffffffffff16600460008373ffffffffffffffffffffffffffffffffffffffff1673ffffffffffffffffffffffffffffffffffffffff16815260200190815260200160002060000160009054906101000a900473ffffffffffffffffffffffffffffffffffffffff1673ffffffffffffffffffffffffffffffffffffffff161161133f57600080fd5b6000600460003373ffffffffffffffffffffffffffffffffffffffff1673ffffffffffffffffffffffffffffffffffffffff1681526020019081526020016000206040518060400160405290816000820160009054906101000a900473ffffffffffffffffffffffffffffffffffffffff1673ffffffffffffffffffffffffffffffffffffffff1673ffffffffffffffffffffffffffffffffffffffff1681526020016001820180546113f190613615565b80601f016020809104026020016040519081016040528092919081815260200182805461141d90613615565b801561146a5780601f1061143f5761010080835404028352916020019161146a565b820191906000526020600020905b81548152906001019060200180831161144d57829003601f168201915b5050505050815250509050806000015181602001519350935050509091565b33600073ffffffffffffffffffffffffffffffffffffffff16600360008373ffffffffffffffffffffffffffffffffffffffff1673ffffffffffffffffffffffffffffffffffffffff16815260200190815260200160002060000160009054906101000a900473ffffffffffffffffffffffffffffffffffffffff1673ffffffffffffffffffffffffffffffffffffffff161161152557600080fd5b7fc5d2460186f7233c927e7db2dcc703c0e500b653ca82273b7bfad8045d85a470826040516020016115579190613309565b60405160208183030381529060405280519060200120141561157857600080fd5b8273ffffffffffffffffffffffffffffffffffffffff16600460008573ffffffffffffffffffffffffffffffffffffffff1673ffffffffffffffffffffffffffffffffffffffff16815260200190815260200160002060000160009054906101000a900473ffffffffffffffffffffffffffffffffffffffff1673ffffffffffffffffffffffffffffffffffffffff161461161257600080fd5b60005461161e846126ee565b1415611971576000600360003373ffffffffffffffffffffffffffffffffffffffff1673ffffffffffffffffffffffffffffffffffffffff168152602001908152602001600020905080600201849080600181540180825580915050600190039060005260206000200160009091909190916101000a81548173ffffffffffffffffffffffffffffffffffffffff021916908373ffffffffffffffffffffffffffffffffffffffff16021790555080600360003373ffffffffffffffffffffffffffffffffffffffff1673ffffffffffffffffffffffffffffffffffffffff1681526020019081526020016000206000820160009054906101000a900473ffffffffffffffffffffffffffffffffffffffff168160000160006101000a81548173ffffffffffffffffffffffffffffffffffffffff021916908373ffffffffffffffffffffffffffffffffffffffff160217905550600182018160010190805461178790613615565b611792929190612ce8565b5060028201816002019080546117a9929190612d75565b50905050600260008573ffffffffffffffffffffffffffffffffffffffff1673ffffffffffffffffffffffffffffffffffffffff168152602001908152602001600020600160003373ffffffffffffffffffffffffffffffffffffffff1673ffffffffffffffffffffffffffffffffffffffff1681526020019081526020016000206118348561287f565b8154811061186b577f4e487b7100000000000000000000000000000000000000000000000000000000600052603260045260246000fd5b9060005260206000209060040201908060018154018082558091505060019003906000526020600020906004020160009091909190915060008201816000019080546118b690613615565b6118c1929190612ce8565b506001820160009054906101000a900473ffffffffffffffffffffffffffffffffffffffff168160010160006101000a81548173ffffffffffffffffffffffffffffffffffffffff021916908373ffffffffffffffffffffffffffffffffffffffff160217905550600282018160020190805461193d90613615565b611948929190612ce8565b50600382018160030190805461195d90613615565b611968929190612ce8565b50505050611ec9565b6000600260008573ffffffffffffffffffffffffffffffffffffffff1673ffffffffffffffffffffffffffffffffffffffff168152602001908152602001600020805480602002602001604051908101604052809291908181526020016000905b82821015611c105783829060005260206000209060040201604051806080016040529081600082018054611a0590613615565b80601f0160208091040260200160405190810160405280929190818152602001828054611a3190613615565b8015611a7e5780601f10611a5357610100808354040283529160200191611a7e565b820191906000526020600020905b815481529060010190602001808311611a6157829003601f168201915b505050505081526020016001820160009054906101000a900473ffffffffffffffffffffffffffffffffffffffff1673ffffffffffffffffffffffffffffffffffffffff1673ffffffffffffffffffffffffffffffffffffffff168152602001600282018054611aed90613615565b80601f0160208091040260200160405190810160405280929190818152602001828054611b1990613615565b8015611b665780601f10611b3b57610100808354040283529160200191611b66565b820191906000526020600020905b815481529060010190602001808311611b4957829003601f168201915b50505050508152602001600382018054611b7f90613615565b80601f0160208091040260200160405190810160405280929190818152602001828054611bab90613615565b8015611bf85780601f10611bcd57610100808354040283529160200191611bf8565b820191906000526020600020905b815481529060010190602001808311611bdb57829003601f168201915b505050505081525050815260200190600101906119d2565b50505050905060005b8151811015611d085783604051602001611c339190613309565b60405160208183030381529060405280519060200120828281518110611c82577f4e487b7100000000000000000000000000000000000000000000000000000000600052603260045260246000fd5b602002602001015160000151604051602001611c9e9190613309565b604051602081830303815290604052805190602001201415611cf5576040517f08c379a0000000000000000000000000000000000000000000000000000000008152600401611cec906133ee565b60405180910390fd5b8080611d0090613678565b915050611c19565b50600260008573ffffffffffffffffffffffffffffffffffffffff1673ffffffffffffffffffffffffffffffffffffffff168152602001908152602001600020600160003373ffffffffffffffffffffffffffffffffffffffff1673ffffffffffffffffffffffffffffffffffffffff168152602001908152602001600020611d908561287f565b81548110611dc7577f4e487b7100000000000000000000000000000000000000000000000000000000600052603260045260246000fd5b906000526020600020906004020190806001815401808255809150506001900390600052602060002090600402016000909190919091506000820181600001908054611e1290613615565b611e1d929190612ce8565b506001820160009054906101000a900473ffffffffffffffffffffffffffffffffffffffff168160010160006101000a81548173ffffffffffffffffffffffffffffffffffffffff021916908373ffffffffffffffffffffffffffffffffffffffff1602179055506002820181600201908054611e9990613615565b611ea4929190612ce8565b506003820181600301908054611eb990613615565b611ec4929190612ce8565b505050505b505050565b33600073ffffffffffffffffffffffffffffffffffffffff16600360008373ffffffffffffffffffffffffffffffffffffffff1673ffffffffffffffffffffffffffffffffffffffff16815260200190815260200160002060000160009054906101000a900473ffffffffffffffffffffffffffffffffffffffff1673ffffffffffffffffffffffffffffffffffffffff1611611f6a57600080fd5b8273ffffffffffffffffffffffffffffffffffffffff16600460008573ffffffffffffffffffffffffffffffffffffffff1673ffffffffffffffffffffffffffffffffffffffff16815260200190815260200160002060000160009054906101000a900473ffffffffffffffffffffffffffffffffffffffff1673ffffffffffffffffffffffffffffffffffffffff161461200457600080fd5b6000600260008573ffffffffffffffffffffffffffffffffffffffff1673ffffffffffffffffffffffffffffffffffffffff16815260200190815260200160002080549050141561208a576040517f08c379a00000000000000000000000000000000000000000000000000000000081526004016120819061342e565b60405180910390fd5b6001600260008573ffffffffffffffffffffffffffffffffffffffff1673ffffffffffffffffffffffffffffffffffffffff16815260200190815260200160002080549050141561238e5760006120e0846126ee565b9050600054811415612127576040517f08c379a000000000000000000000000000000000000000000000000000000000815260040161211e906133ce565b60405180910390fd5b600360003373ffffffffffffffffffffffffffffffffffffffff1673ffffffffffffffffffffffffffffffffffffffff1681526020019081526020016000206002016001600360003373ffffffffffffffffffffffffffffffffffffffff1673ffffffffffffffffffffffffffffffffffffffff168152602001908152602001600020600201805490506121bb9190613563565b815481106121f2577f4e487b7100000000000000000000000000000000000000000000000000000000600052603260045260246000fd5b9060005260206000200160009054906101000a900473ffffffffffffffffffffffffffffffffffffffff16600360003373ffffffffffffffffffffffffffffffffffffffff1673ffffffffffffffffffffffffffffffffffffffff1681526020019081526020016000206002018281548110612297577f4e487b7100000000000000000000000000000000000000000000000000000000600052603260045260246000fd5b9060005260206000200160006101000a81548173ffffffffffffffffffffffffffffffffffffffff021916908373ffffffffffffffffffffffffffffffffffffffff160217905550600360003373ffffffffffffffffffffffffffffffffffffffff1673ffffffffffffffffffffffffffffffffffffffff168152602001908152602001600020600201805480612357577f4e487b7100000000000000000000000000000000000000000000000000000000600052603160045260246000fd5b6001900381819060005260206000200160006101000a81549073ffffffffffffffffffffffffffffffffffffffff02191690559055505b600061239a8484612a2b565b90506000548114156123e1576040517f08c379a00000000000000000000000000000000000000000000000000000000081526004016123d89061340e565b60405180910390fd5b600260008573ffffffffffffffffffffffffffffffffffffffff1673ffffffffffffffffffffffffffffffffffffffff1681526020019081526020016000206001600260008773ffffffffffffffffffffffffffffffffffffffff1673ffffffffffffffffffffffffffffffffffffffff1681526020019081526020016000208054905061246f9190613563565b815481106124a6577f4e487b7100000000000000000000000000000000000000000000000000000000600052603260045260246000fd5b9060005260206000209060040201600260008673ffffffffffffffffffffffffffffffffffffffff1673ffffffffffffffffffffffffffffffffffffffff168152602001908152602001600020828154811061252b577f4e487b7100000000000000000000000000000000000000000000000000000000600052603260045260246000fd5b9060005260206000209060040201600082018160000190805461254d90613615565b612558929190612ce8565b506001820160009054906101000a900473ffffffffffffffffffffffffffffffffffffffff168160010160006101000a81548173ffffffffffffffffffffffffffffffffffffffff021916908373ffffffffffffffffffffffffffffffffffffffff16021790555060028201816002019080546125d490613615565b6125df929190612ce8565b5060038201816003019080546125f490613615565b6125ff929190612ce8565b50905050600260008573ffffffffffffffffffffffffffffffffffffffff1673ffffffffffffffffffffffffffffffffffffffff168152602001908152602001600020805480612678577f4e487b7100000000000000000000000000000000000000000000000000000000600052603160045260246000fd5b60019003818190600052602060002090600402016000808201600061269d9190612dc7565b6001820160006101000a81549073ffffffffffffffffffffffffffffffffffffffff02191690556002820160006126d49190612dc7565b6003820160006126e49190612dc7565b5050905550505050565b60008073ffffffffffffffffffffffffffffffffffffffff168273ffffffffffffffffffffffffffffffffffffffff161161272857600080fd5b6000600360003373ffffffffffffffffffffffffffffffffffffffff1673ffffffffffffffffffffffffffffffffffffffff16815260200190815260200160002060020180549050905060005b81811015612872578373ffffffffffffffffffffffffffffffffffffffff16600360003373ffffffffffffffffffffffffffffffffffffffff1673ffffffffffffffffffffffffffffffffffffffff168152602001908152602001600020600201828154811061280e577f4e487b7100000000000000000000000000000000000000000000000000000000600052603260045260246000fd5b9060005260206000200160009054906101000a900473ffffffffffffffffffffffffffffffffffffffff1673ffffffffffffffffffffffffffffffffffffffff16141561285f57809250505061287a565b808061286a90613678565b915050612775565b506000549150505b919050565b60007fc5d2460186f7233c927e7db2dcc703c0e500b653ca82273b7bfad8045d85a470826040516020016128b39190613309565b6040516020818303038152906040528051906020012014156128d457600080fd5b6000600160003373ffffffffffffffffffffffffffffffffffffffff1673ffffffffffffffffffffffffffffffffffffffff168152602001908152602001600020905060005b8180549050811015612a1e57836040516020016129379190613309565b60405160208183030381529060405280519060200120600160003373ffffffffffffffffffffffffffffffffffffffff1673ffffffffffffffffffffffffffffffffffffffff16815260200190815260200160002082815481106129c4577f4e487b7100000000000000000000000000000000000000000000000000000000600052603260045260246000fd5b90600052602060002090600402016000016040516020016129e59190613320565b604051602081830303815290604052805190602001201415612a0b578092505050612a26565b8080612a1690613678565b91505061291a565b506000549150505b919050565b60007fc5d2460186f7233c927e7db2dcc703c0e500b653ca82273b7bfad8045d85a47082604051602001612a5f9190613309565b604051602081830303815290604052805190602001201415612a8057600080fd5b6000600260008573ffffffffffffffffffffffffffffffffffffffff1673ffffffffffffffffffffffffffffffffffffffff168152602001908152602001600020905060005b8180549050811015612bca5783604051602001612ae39190613309565b60405160208183030381529060405280519060200120600260008773ffffffffffffffffffffffffffffffffffffffff1673ffffffffffffffffffffffffffffffffffffffff1681526020019081526020016000208281548110612b70577f4e487b7100000000000000000000000000000000000000000000000000000000600052603260045260246000fd5b9060005260206000209060040201600001604051602001612b919190613320565b604051602081830303815290604052805190602001201415612bb7578092505050612bd2565b8080612bc290613678565b915050612ac6565b506000549150505b92915050565b828054612be490613615565b90600052602060002090601f016020900481019282612c065760008555612c4d565b82601f10612c1f57805160ff1916838001178555612c4d565b82800160010185558215612c4d579182015b82811115612c4c578251825591602001919060010190612c31565b5b509050612c5a9190612e07565b5090565b828054828255906000526020600020908101928215612cd7579160200282015b82811115612cd65782518260006101000a81548173ffffffffffffffffffffffffffffffffffffffff021916908373ffffffffffffffffffffffffffffffffffffffff16021790555091602001919060010190612c7e565b5b509050612ce49190612e07565b5090565b828054612cf490613615565b90600052602060002090601f016020900481019282612d165760008555612d64565b82601f10612d275780548555612d64565b82800160010185558215612d6457600052602060002091601f016020900482015b82811115612d63578254825591600101919060010190612d48565b5b509050612d719190612e07565b5090565b828054828255906000526020600020908101928215612db65760005260206000209182015b82811115612db5578254825591600101919060010190612d9a565b5b509050612dc39190612e07565b5090565b508054612dd390613615565b6000825580601f10612de55750612e04565b601f016020900490600052602060002090810190612e039190612e07565b5b50565b5b80821115612e20576000816000905550600101612e08565b5090565b6000612e37612e3284613473565b61344e565b905082815260208101848484011115612e4f57600080fd5b612e5a8482856135d3565b509392505050565b600081359050612e7181613803565b92915050565b600082601f830112612e8857600080fd5b8135612e98848260208601612e24565b91505092915050565b60008060408385031215612eb457600080fd5b6000612ec285828601612e62565b925050602083013567ffffffffffffffff811115612edf57600080fd5b612eeb85828601612e77565b9150509250929050565b600060208284031215612f0757600080fd5b600082013567ffffffffffffffff811115612f2157600080fd5b612f2d84828501612e77565b91505092915050565b600080600060608486031215612f4b57600080fd5b600084013567ffffffffffffffff811115612f6557600080fd5b612f7186828701612e77565b935050602084013567ffffffffffffffff811115612f8e57600080fd5b612f9a86828701612e77565b925050604084013567ffffffffffffffff811115612fb757600080fd5b612fc386828701612e77565b9150509250925092565b6000612fd98383612ff9565b60208301905092915050565b6000612ff18383613298565b905092915050565b61300281613597565b82525050565b61301181613597565b82525050565b6000613022826134d9565b61302c8185613514565b9350613037836134a4565b8060005b8381101561306857815161304f8882612fcd565b975061305a836134fa565b92505060018101905061303b565b5085935050505092915050565b6000613080826134e4565b61308a8185613525565b93508360208202850161309c856134b4565b8060005b858110156130d857848403895281516130b98582612fe5565b94506130c483613507565b925060208a019950506001810190506130a0565b50829750879550505050505092915050565b60006130f5826134ef565b6130ff8185613536565b935061310f8185602086016135e2565b6131188161374e565b840191505092915050565b600061312e826134ef565b6131388185613547565b93506131488185602086016135e2565b6131518161374e565b840191505092915050565b6000613167826134ef565b6131718185613558565b93506131818185602086016135e2565b80840191505092915050565b6000815461319a81613615565b6131a48186613558565b945060018216600081146131bf57600181146131d057613203565b60ff19831686528186019350613203565b6131d9856134c4565b60005b838110156131fb578154818901526001820191506020810190506131dc565b838801955050505b50505092915050565b6000613219601f83613547565b91506132248261375f565b602082019050919050565b600061323c601883613547565b915061324782613788565b602082019050919050565b600061325f601d83613547565b915061326a826137b1565b602082019050919050565b6000613282601383613547565b915061328d826137da565b602082019050919050565b600060808301600083015184820360008601526132b582826130ea565b91505060208301516132ca6020860182612ff9565b50604083015184820360408601526132e282826130ea565b915050606083015184820360608601526132fc82826130ea565b9150508091505092915050565b6000613315828461315c565b915081905092915050565b600061332c828461318d565b915081905092915050565b600060408201905061334c6000830185613008565b818103602083015261335e8184613123565b90509392505050565b600060608201905061337c6000830186613008565b818103602083015261338e8185613123565b905081810360408301526133a28184613017565b9050949350505050565b600060208201905081810360008301526133c68184613075565b905092915050565b600060208201905081810360008301526133e78161320c565b9050919050565b600060208201905081810360008301526134078161322f565b9050919050565b6000602082019050818103600083015261342781613252565b9050919050565b6000602082019050818103600083015261344781613275565b9050919050565b6000613458613469565b90506134648282613647565b919050565b6000604051905090565b600067ffffffffffffffff82111561348e5761348d61371f565b5b6134978261374e565b9050602081019050919050565b6000819050602082019050919050565b6000819050602082019050919050565b60008190508160005260206000209050919050565b600081519050919050565b600081519050919050565b600081519050919050565b6000602082019050919050565b6000602082019050919050565b600082825260208201905092915050565b600082825260208201905092915050565b600082825260208201905092915050565b600082825260208201905092915050565b600081905092915050565b600061356e826135c9565b9150613579836135c9565b92508282101561358c5761358b6136c1565b5b828203905092915050565b60006135a2826135a9565b9050919050565b600073ffffffffffffffffffffffffffffffffffffffff82169050919050565b6000819050919050565b82818337600083830152505050565b60005b838110156136005780820151818401526020810190506135e5565b8381111561360f576000848401525b50505050565b6000600282049050600182168061362d57607f821691505b60208210811415613641576136406136f0565b5b50919050565b6136508261374e565b810181811067ffffffffffffffff8211171561366f5761366e61371f565b5b80604052505050565b6000613683826135c9565b91507fffffffffffffffffffffffffffffffffffffffffffffffffffffffffffffffff8214156136b6576136b56136c1565b5b600182019050919050565b7f4e487b7100000000000000000000000000000000000000000000000000000000600052601160045260246000fd5b7f4e487b7100000000000000000000000000000000000000000000000000000000600052602260045260246000fd5b7f4e487b7100000000000000000000000000000000000000000000000000000000600052604160045260246000fd5b6000601f19601f8301169050919050565b7f446f63746f7220697320616c7265616479206e6f7420696e2061636365737300600082015250565b7f616c726561647920676976656e20746865206163636573730000000000000000600082015250565b7f46696c6520697320616c7265616479206f7574206f6620616363657373000000600082015250565b7f5468657265206973206e6f20656c656d656e7400000000000000000000000000600082015250565b61380c81613597565b811461381757600080fd5b5056fea2646970667358221220a0e21d96fca7455b6cb8bcca109ec866c8119dead6e7ddabfbedee4af8422d5964736f6c63430008030033","opcodes":"PUSH1 0x80 PUSH1 0x40 MSTORE PUSH32 0xFFFFFFFFFFFFFFFFFFFFFFFFFFFFFFFFFFFFFFFFFFFFFFFFFFFFFFFFFFFFFFFF PUSH1 0x0 SSTORE CALLVALUE DUP1 ISZERO PUSH2 0x34 JUMPI PUSH1 0x0 DUP1 REVERT JUMPDEST POP PUSH2 0x3850 DUP1 PUSH2 0x44 PUSH1 0x0 CODECOPY PUSH1 0x0 RETURN INVALID PUSH1 0x80 PUSH1 0x40 MSTORE CALLVALUE DUP1 ISZERO PUSH2 0x10 JUMPI PUSH1 0x0 DUP1 REVERT JUMPDEST POP PUSH1 0x4 CALLDATASIZE LT PUSH2 0x93 JUMPI PUSH1 0x0 CALLDATALOAD PUSH1 0xE0 SHR DUP1 PUSH4 0x8D0981C2 GT PUSH2 0x66 JUMPI DUP1 PUSH4 0x8D0981C2 EQ PUSH2 0x110 JUMPI DUP1 PUSH4 0xAB519D1F EQ PUSH2 0x12C JUMPI DUP1 PUSH4 0xB380F5C6 EQ PUSH2 0x148 JUMPI DUP1 PUSH4 0xCF5CE494 EQ PUSH2 0x167 JUMPI DUP1 PUSH4 0xD1895035 EQ PUSH2 0x183 JUMPI PUSH2 0x93 JUMP JUMPDEST DUP1 PUSH4 0x2DA96D73 EQ PUSH2 0x98 JUMPI DUP1 PUSH4 0x326DF664 EQ PUSH2 0xB6 JUMPI DUP1 PUSH4 0x32EC9375 EQ PUSH2 0xD6 JUMPI DUP1 PUSH4 0x8BE9312D EQ PUSH2 0xF2 JUMPI JUMPDEST PUSH1 0x0 DUP1 REVERT JUMPDEST PUSH2 0xA0 PUSH2 0x19F JUMP JUMPDEST PUSH1 0x40 MLOAD PUSH2 0xAD SWAP2 SWAP1 PUSH2 0x33AC JUMP JUMPDEST PUSH1 0x40 MLOAD DUP1 SWAP2 SUB SWAP1 RETURN JUMPDEST PUSH2 0xBE PUSH2 0x4E4 JUMP JUMPDEST PUSH1 0x40 MLOAD PUSH2 0xCD SWAP4 SWAP3 SWAP2 SWAP1 PUSH2 0x3367 JUMP JUMPDEST PUSH1 0x40 MLOAD DUP1 SWAP2 SUB SWAP1 RETURN JUMPDEST PUSH2 0xF0 PUSH1 0x4 DUP1 CALLDATASIZE SUB DUP2 ADD SWAP1 PUSH2 0xEB SWAP2 SWAP1 PUSH2 0x2EF5 JUMP JUMPDEST PUSH2 0x765 JUMP JUMPDEST STOP JUMPDEST PUSH2 0xFA PUSH2 0xA01 JUMP JUMPDEST PUSH1 0x40 MLOAD PUSH2 0x107 SWAP2 SWAP1 PUSH2 0x33AC JUMP JUMPDEST PUSH1 0x40 MLOAD DUP1 SWAP2 SUB SWAP1 RETURN JUMPDEST PUSH2 0x12A PUSH1 0x4 DUP1 CALLDATASIZE SUB DUP2 ADD SWAP1 PUSH2 0x125 SWAP2 SWAP1 PUSH2 0x2F36 JUMP JUMPDEST PUSH2 0xCA9 JUMP JUMPDEST STOP JUMPDEST PUSH2 0x146 PUSH1 0x4 DUP1 CALLDATASIZE SUB DUP2 ADD SWAP1 PUSH2 0x141 SWAP2 SWAP1 PUSH2 0x2EF5 JUMP JUMPDEST PUSH2 0xEE3 JUMP JUMPDEST STOP JUMPDEST PUSH2 0x150 PUSH2 0x129F JUMP JUMPDEST PUSH1 0x40 MLOAD PUSH2 0x15E SWAP3 SWAP2 SWAP1 PUSH2 0x3337 JUMP JUMPDEST PUSH1 0x40 MLOAD DUP1 SWAP2 SUB SWAP1 RETURN JUMPDEST PUSH2 0x181 PUSH1 0x4 DUP1 CALLDATASIZE SUB DUP2 ADD SWAP1 PUSH2 0x17C SWAP2 SWAP1 PUSH2 0x2EA1 JUMP JUMPDEST PUSH2 0x1489 JUMP JUMPDEST STOP JUMPDEST PUSH2 0x19D PUSH1 0x4 DUP1 CALLDATASIZE SUB DUP2 ADD SWAP1 PUSH2 0x198 SWAP2 SWAP1 PUSH2 0x2EA1 JUMP JUMPDEST PUSH2 0x1ECE JUMP JUMPDEST STOP JUMPDEST PUSH1 0x60 CALLER PUSH1 0x0 PUSH20 0xFFFFFFFFFFFFFFFFFFFFFFFFFFFFFFFFFFFFFFFF AND PUSH1 0x3 PUSH1 0x0 DUP4 PUSH20 0xFFFFFFFFFFFFFFFFFFFFFFFFFFFFFFFFFFFFFFFF AND PUSH20 0xFFFFFFFFFFFFFFFFFFFFFFFFFFFFFFFFFFFFFFFF AND DUP2 MSTORE PUSH1 0x20 ADD SWAP1 DUP2 MSTORE PUSH1 0x20 ADD PUSH1 0x0 KECCAK256 PUSH1 0x0 ADD PUSH1 0x0 SWAP1 SLOAD SWAP1 PUSH2 0x100 EXP SWAP1 DIV PUSH20 0xFFFFFFFFFFFFFFFFFFFFFFFFFFFFFFFFFFFFFFFF AND PUSH20 0xFFFFFFFFFFFFFFFFFFFFFFFFFFFFFFFFFFFFFFFF AND GT PUSH2 0x23D JUMPI PUSH1 0x0 DUP1 REVERT JUMPDEST PUSH1 0x1 PUSH1 0x0 CALLER PUSH20 0xFFFFFFFFFFFFFFFFFFFFFFFFFFFFFFFFFFFFFFFF AND PUSH20 0xFFFFFFFFFFFFFFFFFFFFFFFFFFFFFFFFFFFFFFFF AND DUP2 MSTORE PUSH1 0x20 ADD SWAP1 DUP2 MSTORE PUSH1 0x20 ADD PUSH1 0x0 KECCAK256 DUP1 SLOAD DUP1 PUSH1 0x20 MUL PUSH1 0x20 ADD PUSH1 0x40 MLOAD SWAP1 DUP2 ADD PUSH1 0x40 MSTORE DUP1 SWAP3 SWAP2 SWAP1 DUP2 DUP2 MSTORE PUSH1 0x20 ADD PUSH1 0x0 SWAP1 JUMPDEST DUP3 DUP3 LT ISZERO PUSH2 0x4DA JUMPI DUP4 DUP3 SWAP1 PUSH1 0x0 MSTORE PUSH1 0x20 PUSH1 0x0 KECCAK256 SWAP1 PUSH1 0x4 MUL ADD PUSH1 0x40 MLOAD DUP1 PUSH1 0x80 ADD PUSH1 0x40 MSTORE SWAP1 DUP2 PUSH1 0x0 DUP3 ADD DUP1 SLOAD PUSH2 0x2CF SWAP1 PUSH2 0x3615 JUMP JUMPDEST DUP1 PUSH1 0x1F ADD PUSH1 0x20 DUP1 SWAP2 DIV MUL PUSH1 0x20 ADD PUSH1 0x40 MLOAD SWAP1 DUP2 ADD PUSH1 0x40 MSTORE DUP1 SWAP3 SWAP2 SWAP1 DUP2 DUP2 MSTORE PUSH1 0x20 ADD DUP3 DUP1 SLOAD PUSH2 0x2FB SWAP1 PUSH2 0x3615 JUMP JUMPDEST DUP1 ISZERO PUSH2 0x348 JUMPI DUP1 PUSH1 0x1F LT PUSH2 0x31D JUMPI PUSH2 0x100 DUP1 DUP4 SLOAD DIV MUL DUP4 MSTORE SWAP2 PUSH1 0x20 ADD SWAP2 PUSH2 0x348 JUMP JUMPDEST DUP3 ADD SWAP2 SWAP1 PUSH1 0x0 MSTORE PUSH1 0x20 PUSH1 0x0 KECCAK256 SWAP1 JUMPDEST DUP2 SLOAD DUP2 MSTORE SWAP1 PUSH1 0x1 ADD SWAP1 PUSH1 0x20 ADD DUP1 DUP4 GT PUSH2 0x32B JUMPI DUP3 SWAP1 SUB PUSH1 0x1F AND DUP3 ADD SWAP2 JUMPDEST POP POP POP POP POP DUP2 MSTORE PUSH1 0x20 ADD PUSH1 0x1 DUP3 ADD PUSH1 0x0 SWAP1 SLOAD SWAP1 PUSH2 0x100 EXP SWAP1 DIV PUSH20 0xFFFFFFFFFFFFFFFFFFFFFFFFFFFFFFFFFFFFFFFF AND PUSH20 0xFFFFFFFFFFFFFFFFFFFFFFFFFFFFFFFFFFFFFFFF AND PUSH20 0xFFFFFFFFFFFFFFFFFFFFFFFFFFFFFFFFFFFFFFFF AND DUP2 MSTORE PUSH1 0x20 ADD PUSH1 0x2 DUP3 ADD DUP1 SLOAD PUSH2 0x3B7 SWAP1 PUSH2 0x3615 JUMP JUMPDEST DUP1 PUSH1 0x1F ADD PUSH1 0x20 DUP1 SWAP2 DIV MUL PUSH1 0x20 ADD PUSH1 0x40 MLOAD SWAP1 DUP2 ADD PUSH1 0x40 MSTORE DUP1 SWAP3 SWAP2 SWAP1 DUP2 DUP2 MSTORE PUSH1 0x20 ADD DUP3 DUP1 SLOAD PUSH2 0x3E3 SWAP1 PUSH2 0x3615 JUMP JUMPDEST DUP1 ISZERO PUSH2 0x430 JUMPI DUP1 PUSH1 0x1F LT PUSH2 0x405 JUMPI PUSH2 0x100 DUP1 DUP4 SLOAD DIV MUL DUP4 MSTORE SWAP2 PUSH1 0x20 ADD SWAP2 PUSH2 0x430 JUMP JUMPDEST DUP3 ADD SWAP2 SWAP1 PUSH1 0x0 MSTORE PUSH1 0x20 PUSH1 0x0 KECCAK256 SWAP1 JUMPDEST DUP2 SLOAD DUP2 MSTORE SWAP1 PUSH1 0x1 ADD SWAP1 PUSH1 0x20 ADD DUP1 DUP4 GT PUSH2 0x413 JUMPI DUP3 SWAP1 SUB PUSH1 0x1F AND DUP3 ADD SWAP2 JUMPDEST POP POP POP POP POP DUP2 MSTORE PUSH1 0x20 ADD PUSH1 0x3 DUP3 ADD DUP1 SLOAD PUSH2 0x449 SWAP1 PUSH2 0x3615 JUMP JUMPDEST DUP1 PUSH1 0x1F ADD PUSH1 0x20 DUP1 SWAP2 DIV MUL PUSH1 0x20 ADD PUSH1 0x40 MLOAD SWAP1 DUP2 ADD PUSH1 0x40 MSTORE DUP1 SWAP3 SWAP2 SWAP1 DUP2 DUP2 MSTORE PUSH1 0x20 ADD DUP3 DUP1 SLOAD PUSH2 0x475 SWAP1 PUSH2 0x3615 JUMP JUMPDEST DUP1 ISZERO PUSH2 0x4C2 JUMPI DUP1 PUSH1 0x1F LT PUSH2 0x497 JUMPI PUSH2 0x100 DUP1 DUP4 SLOAD DIV MUL DUP4 MSTORE SWAP2 PUSH1 0x20 ADD SWAP2 PUSH2 0x4C2 JUMP JUMPDEST DUP3 ADD SWAP2 SWAP1 PUSH1 0x0 MSTORE PUSH1 0x20 PUSH1 0x0 KECCAK256 SWAP1 JUMPDEST DUP2 SLOAD DUP2 MSTORE SWAP1 PUSH1 0x1 ADD SWAP1 PUSH1 0x20 ADD DUP1 DUP4 GT PUSH2 0x4A5 JUMPI DUP3 SWAP1 SUB PUSH1 0x1F AND DUP3 ADD SWAP2 JUMPDEST POP POP POP POP POP DUP2 MSTORE POP POP DUP2 MSTORE PUSH1 0x20 ADD SWAP1 PUSH1 0x1 ADD SWAP1 PUSH2 0x29C JUMP JUMPDEST POP POP POP POP SWAP2 POP POP SWAP1 JUMP JUMPDEST PUSH1 0x0 PUSH1 0x60 DUP1 CALLER PUSH1 0x0 PUSH20 0xFFFFFFFFFFFFFFFFFFFFFFFFFFFFFFFFFFFFFFFF AND PUSH1 0x3 PUSH1 0x0 DUP4 PUSH20 0xFFFFFFFFFFFFFFFFFFFFFFFFFFFFFFFFFFFFFFFF AND PUSH20 0xFFFFFFFFFFFFFFFFFFFFFFFFFFFFFFFFFFFFFFFF AND DUP2 MSTORE PUSH1 0x20 ADD SWAP1 DUP2 MSTORE PUSH1 0x20 ADD PUSH1 0x0 KECCAK256 PUSH1 0x0 ADD PUSH1 0x0 SWAP1 SLOAD SWAP1 PUSH2 0x100 EXP SWAP1 DIV PUSH20 0xFFFFFFFFFFFFFFFFFFFFFFFFFFFFFFFFFFFFFFFF AND PUSH20 0xFFFFFFFFFFFFFFFFFFFFFFFFFFFFFFFFFFFFFFFF AND GT PUSH2 0x585 JUMPI PUSH1 0x0 DUP1 REVERT JUMPDEST PUSH1 0x0 PUSH1 0x3 PUSH1 0x0 CALLER PUSH20 0xFFFFFFFFFFFFFFFFFFFFFFFFFFFFFFFFFFFFFFFF AND PUSH20 0xFFFFFFFFFFFFFFFFFFFFFFFFFFFFFFFFFFFFFFFF AND DUP2 MSTORE PUSH1 0x20 ADD SWAP1 DUP2 MSTORE PUSH1 0x20 ADD PUSH1 0x0 KECCAK256 PUSH1 0x40 MLOAD DUP1 PUSH1 0x60 ADD PUSH1 0x40 MSTORE SWAP1 DUP2 PUSH1 0x0 DUP3 ADD PUSH1 0x0 SWAP1 SLOAD SWAP1 PUSH2 0x100 EXP SWAP1 DIV PUSH20 0xFFFFFFFFFFFFFFFFFFFFFFFFFFFFFFFFFFFFFFFF AND PUSH20 0xFFFFFFFFFFFFFFFFFFFFFFFFFFFFFFFFFFFFFFFF AND PUSH20 0xFFFFFFFFFFFFFFFFFFFFFFFFFFFFFFFFFFFFFFFF AND DUP2 MSTORE PUSH1 0x20 ADD PUSH1 0x1 DUP3 ADD DUP1 SLOAD PUSH2 0x637 SWAP1 PUSH2 0x3615 JUMP JUMPDEST DUP1 PUSH1 0x1F ADD PUSH1 0x20 DUP1 SWAP2 DIV MUL PUSH1 0x20 ADD PUSH1 0x40 MLOAD SWAP1 DUP2 ADD PUSH1 0x40 MSTORE DUP1 SWAP3 SWAP2 SWAP1 DUP2 DUP2 MSTORE PUSH1 0x20 ADD DUP3 DUP1 SLOAD PUSH2 0x663 SWAP1 PUSH2 0x3615 JUMP JUMPDEST DUP1 ISZERO PUSH2 0x6B0 JUMPI DUP1 PUSH1 0x1F LT PUSH2 0x685 JUMPI PUSH2 0x100 DUP1 DUP4 SLOAD DIV MUL DUP4 MSTORE SWAP2 PUSH1 0x20 ADD SWAP2 PUSH2 0x6B0 JUMP JUMPDEST DUP3 ADD SWAP2 SWAP1 PUSH1 0x0 MSTORE PUSH1 0x20 PUSH1 0x0 KECCAK256 SWAP1 JUMPDEST DUP2 SLOAD DUP2 MSTORE SWAP1 PUSH1 0x1 ADD SWAP1 PUSH1 0x20 ADD DUP1 DUP4 GT PUSH2 0x693 JUMPI DUP3 SWAP1 SUB PUSH1 0x1F AND DUP3 ADD SWAP2 JUMPDEST POP POP POP POP POP DUP2 MSTORE PUSH1 0x20 ADD PUSH1 0x2 DUP3 ADD DUP1 SLOAD DUP1 PUSH1 0x20 MUL PUSH1 0x20 ADD PUSH1 0x40 MLOAD SWAP1 DUP2 ADD PUSH1 0x40 MSTORE DUP1 SWAP3 SWAP2 SWAP1 DUP2 DUP2 MSTORE PUSH1 0x20 ADD DUP3 DUP1 SLOAD DUP1 ISZERO PUSH2 0x73E JUMPI PUSH1 0x20 MUL DUP3 ADD SWAP2 SWAP1 PUSH1 0x0 MSTORE PUSH1 0x20 PUSH1 0x0 KECCAK256 SWAP1 JUMPDEST DUP2 PUSH1 0x0 SWAP1 SLOAD SWAP1 PUSH2 0x100 EXP SWAP1 DIV PUSH20 0xFFFFFFFFFFFFFFFFFFFFFFFFFFFFFFFFFFFFFFFF AND PUSH20 0xFFFFFFFFFFFFFFFFFFFFFFFFFFFFFFFFFFFFFFFF AND DUP2 MSTORE PUSH1 0x20 ADD SWAP1 PUSH1 0x1 ADD SWAP1 DUP1 DUP4 GT PUSH2 0x6F4 JUMPI JUMPDEST POP POP POP POP POP DUP2 MSTORE POP POP SWAP1 POP DUP1 PUSH1 0x0 ADD MLOAD DUP2 PUSH1 0x20 ADD MLOAD DUP3 PUSH1 0x40 ADD MLOAD SWAP5 POP SWAP5 POP SWAP5 POP POP POP SWAP1 SWAP2 SWAP3 JUMP JUMPDEST PUSH1 0x0 PUSH1 0x4 PUSH1 0x0 CALLER PUSH20 0xFFFFFFFFFFFFFFFFFFFFFFFFFFFFFFFFFFFFFFFF AND PUSH20 0xFFFFFFFFFFFFFFFFFFFFFFFFFFFFFFFFFFFFFFFF AND DUP2 MSTORE PUSH1 0x20 ADD SWAP1 DUP2 MSTORE PUSH1 0x20 ADD PUSH1 0x0 KECCAK256 PUSH1 0x40 MLOAD DUP1 PUSH1 0x40 ADD PUSH1 0x40 MSTORE SWAP1 DUP2 PUSH1 0x0 DUP3 ADD PUSH1 0x0 SWAP1 SLOAD SWAP1 PUSH2 0x100 EXP SWAP1 DIV PUSH20 0xFFFFFFFFFFFFFFFFFFFFFFFFFFFFFFFFFFFFFFFF AND PUSH20 0xFFFFFFFFFFFFFFFFFFFFFFFFFFFFFFFFFFFFFFFF AND PUSH20 0xFFFFFFFFFFFFFFFFFFFFFFFFFFFFFFFFFFFFFFFF AND DUP2 MSTORE PUSH1 0x20 ADD PUSH1 0x1 DUP3 ADD DUP1 SLOAD PUSH2 0x817 SWAP1 PUSH2 0x3615 JUMP JUMPDEST DUP1 PUSH1 0x1F ADD PUSH1 0x20 DUP1 SWAP2 DIV MUL PUSH1 0x20 ADD PUSH1 0x40 MLOAD SWAP1 DUP2 ADD PUSH1 0x40 MSTORE DUP1 SWAP3 SWAP2 SWAP1 DUP2 DUP2 MSTORE PUSH1 0x20 ADD DUP3 DUP1 SLOAD PUSH2 0x843 SWAP1 PUSH2 0x3615 JUMP JUMPDEST DUP1 ISZERO PUSH2 0x890 JUMPI DUP1 PUSH1 0x1F LT PUSH2 0x865 JUMPI PUSH2 0x100 DUP1 DUP4 SLOAD DIV MUL DUP4 MSTORE SWAP2 PUSH1 0x20 ADD SWAP2 PUSH2 0x890 JUMP JUMPDEST DUP3 ADD SWAP2 SWAP1 PUSH1 0x0 MSTORE PUSH1 0x20 PUSH1 0x0 KECCAK256 SWAP1 JUMPDEST DUP2 SLOAD DUP2 MSTORE SWAP1 PUSH1 0x1 ADD SWAP1 PUSH1 0x20 ADD DUP1 DUP4 GT PUSH2 0x873 JUMPI DUP3 SWAP1 SUB PUSH1 0x1F AND DUP3 ADD SWAP2 JUMPDEST POP POP POP POP POP DUP2 MSTORE POP POP SWAP1 POP PUSH32 0xC5D2460186F7233C927E7DB2DCC703C0E500B653CA82273B7BFAD8045D85A470 DUP3 PUSH1 0x40 MLOAD PUSH1 0x20 ADD PUSH2 0x8CD SWAP2 SWAP1 PUSH2 0x3309 JUMP JUMPDEST PUSH1 0x40 MLOAD PUSH1 0x20 DUP2 DUP4 SUB SUB DUP2 MSTORE SWAP1 PUSH1 0x40 MSTORE DUP1 MLOAD SWAP1 PUSH1 0x20 ADD KECCAK256 EQ ISZERO PUSH2 0x8EE JUMPI PUSH1 0x0 DUP1 REVERT JUMPDEST PUSH1 0x0 PUSH20 0xFFFFFFFFFFFFFFFFFFFFFFFFFFFFFFFFFFFFFFFF AND DUP2 PUSH1 0x0 ADD MLOAD PUSH20 0xFFFFFFFFFFFFFFFFFFFFFFFFFFFFFFFFFFFFFFFF AND GT ISZERO PUSH2 0x92C JUMPI PUSH1 0x0 DUP1 REVERT JUMPDEST PUSH1 0x40 MLOAD DUP1 PUSH1 0x40 ADD PUSH1 0x40 MSTORE DUP1 CALLER PUSH20 0xFFFFFFFFFFFFFFFFFFFFFFFFFFFFFFFFFFFFFFFF AND DUP2 MSTORE PUSH1 0x20 ADD DUP4 DUP2 MSTORE POP PUSH1 0x4 PUSH1 0x0 CALLER PUSH20 0xFFFFFFFFFFFFFFFFFFFFFFFFFFFFFFFFFFFFFFFF AND PUSH20 0xFFFFFFFFFFFFFFFFFFFFFFFFFFFFFFFFFFFFFFFF AND DUP2 MSTORE PUSH1 0x20 ADD SWAP1 DUP2 MSTORE PUSH1 0x20 ADD PUSH1 0x0 KECCAK256 PUSH1 0x0 DUP3 ADD MLOAD DUP2 PUSH1 0x0 ADD PUSH1 0x0 PUSH2 0x100 EXP DUP2 SLOAD DUP2 PUSH20 0xFFFFFFFFFFFFFFFFFFFFFFFFFFFFFFFFFFFFFFFF MUL NOT AND SWAP1 DUP4 PUSH20 0xFFFFFFFFFFFFFFFFFFFFFFFFFFFFFFFFFFFFFFFF AND MUL OR SWAP1 SSTORE POP PUSH1 0x20 DUP3 ADD MLOAD DUP2 PUSH1 0x1 ADD SWAP1 DUP1 MLOAD SWAP1 PUSH1 0x20 ADD SWAP1 PUSH2 0x9F9 SWAP3 SWAP2 SWAP1 PUSH2 0x2BD8 JUMP JUMPDEST POP SWAP1 POP POP POP POP JUMP JUMPDEST PUSH1 0x60 PUSH1 0x2 PUSH1 0x0 CALLER PUSH20 0xFFFFFFFFFFFFFFFFFFFFFFFFFFFFFFFFFFFFFFFF AND PUSH20 0xFFFFFFFFFFFFFFFFFFFFFFFFFFFFFFFFFFFFFFFF AND DUP2 MSTORE PUSH1 0x20 ADD SWAP1 DUP2 MSTORE PUSH1 0x20 ADD PUSH1 0x0 KECCAK256 DUP1 SLOAD DUP1 PUSH1 0x20 MUL PUSH1 0x20 ADD PUSH1 0x40 MLOAD SWAP1 DUP2 ADD PUSH1 0x40 MSTORE DUP1 SWAP3 SWAP2 SWAP1 DUP2 DUP2 MSTORE PUSH1 0x20 ADD PUSH1 0x0 SWAP1 JUMPDEST DUP3 DUP3 LT ISZERO PUSH2 0xCA0 JUMPI DUP4 DUP3 SWAP1 PUSH1 0x0 MSTORE PUSH1 0x20 PUSH1 0x0 KECCAK256 SWAP1 PUSH1 0x4 MUL ADD PUSH1 0x40 MLOAD DUP1 PUSH1 0x80 ADD PUSH1 0x40 MSTORE SWAP1 DUP2 PUSH1 0x0 DUP3 ADD DUP1 SLOAD PUSH2 0xA95 SWAP1 PUSH2 0x3615 JUMP JUMPDEST DUP1 PUSH1 0x1F ADD PUSH1 0x20 DUP1 SWAP2 DIV MUL PUSH1 0x20 ADD PUSH1 0x40 MLOAD SWAP1 DUP2 ADD PUSH1 0x40 MSTORE DUP1 SWAP3 SWAP2 SWAP1 DUP2 DUP2 MSTORE PUSH1 0x20 ADD DUP3 DUP1 SLOAD PUSH2 0xAC1 SWAP1 PUSH2 0x3615 JUMP JUMPDEST DUP1 ISZERO PUSH2 0xB0E JUMPI DUP1 PUSH1 0x1F LT PUSH2 0xAE3 JUMPI PUSH2 0x100 DUP1 DUP4 SLOAD DIV MUL DUP4 MSTORE SWAP2 PUSH1 0x20 ADD SWAP2 PUSH2 0xB0E JUMP JUMPDEST DUP3 ADD SWAP2 SWAP1 PUSH1 0x0 MSTORE PUSH1 0x20 PUSH1 0x0 KECCAK256 SWAP1 JUMPDEST DUP2 SLOAD DUP2 MSTORE SWAP1 PUSH1 0x1 ADD SWAP1 PUSH1 0x20 ADD DUP1 DUP4 GT PUSH2 0xAF1 JUMPI DUP3 SWAP1 SUB PUSH1 0x1F AND DUP3 ADD SWAP2 JUMPDEST POP POP POP POP POP DUP2 MSTORE PUSH1 0x20 ADD PUSH1 0x1 DUP3 ADD PUSH1 0x0 SWAP1 SLOAD SWAP1 PUSH2 0x100 EXP SWAP1 DIV PUSH20 0xFFFFFFFFFFFFFFFFFFFFFFFFFFFFFFFFFFFFFFFF AND PUSH20 0xFFFFFFFFFFFFFFFFFFFFFFFFFFFFFFFFFFFFFFFF AND PUSH20 0xFFFFFFFFFFFFFFFFFFFFFFFFFFFFFFFFFFFFFFFF AND DUP2 MSTORE PUSH1 0x20 ADD PUSH1 0x2 DUP3 ADD DUP1 SLOAD PUSH2 0xB7D SWAP1 PUSH2 0x3615 JUMP JUMPDEST DUP1 PUSH1 0x1F ADD PUSH1 0x20 DUP1 SWAP2 DIV MUL PUSH1 0x20 ADD PUSH1 0x40 MLOAD SWAP1 DUP2 ADD PUSH1 0x40 MSTORE DUP1 SWAP3 SWAP2 SWAP1 DUP2 DUP2 MSTORE PUSH1 0x20 ADD DUP3 DUP1 SLOAD PUSH2 0xBA9 SWAP1 PUSH2 0x3615 JUMP JUMPDEST DUP1 ISZERO PUSH2 0xBF6 JUMPI DUP1 PUSH1 0x1F LT PUSH2 0xBCB JUMPI PUSH2 0x100 DUP1 DUP4 SLOAD DIV MUL DUP4 MSTORE SWAP2 PUSH1 0x20 ADD SWAP2 PUSH2 0xBF6 JUMP JUMPDEST DUP3 ADD SWAP2 SWAP1 PUSH1 0x0 MSTORE PUSH1 0x20 PUSH1 0x0 KECCAK256 SWAP1 JUMPDEST DUP2 SLOAD DUP2 MSTORE SWAP1 PUSH1 0x1 ADD SWAP1 PUSH1 0x20 ADD DUP1 DUP4 GT PUSH2 0xBD9 JUMPI DUP3 SWAP1 SUB PUSH1 0x1F AND DUP3 ADD SWAP2 JUMPDEST POP POP POP POP POP DUP2 MSTORE PUSH1 0x20 ADD PUSH1 0x3 DUP3 ADD DUP1 SLOAD PUSH2 0xC0F SWAP1 PUSH2 0x3615 JUMP JUMPDEST DUP1 PUSH1 0x1F ADD PUSH1 0x20 DUP1 SWAP2 DIV MUL PUSH1 0x20 ADD PUSH1 0x40 MLOAD SWAP1 DUP2 ADD PUSH1 0x40 MSTORE DUP1 SWAP3 SWAP2 SWAP1 DUP2 DUP2 MSTORE PUSH1 0x20 ADD DUP3 DUP1 SLOAD PUSH2 0xC3B SWAP1 PUSH2 0x3615 JUMP JUMPDEST DUP1 ISZERO PUSH2 0xC88 JUMPI DUP1 PUSH1 0x1F LT PUSH2 0xC5D JUMPI PUSH2 0x100 DUP1 DUP4 SLOAD DIV MUL DUP4 MSTORE SWAP2 PUSH1 0x20 ADD SWAP2 PUSH2 0xC88 JUMP JUMPDEST DUP3 ADD SWAP2 SWAP1 PUSH1 0x0 MSTORE PUSH1 0x20 PUSH1 0x0 KECCAK256 SWAP1 JUMPDEST DUP2 SLOAD DUP2 MSTORE SWAP1 PUSH1 0x1 ADD SWAP1 PUSH1 0x20 ADD DUP1 DUP4 GT PUSH2 0xC6B JUMPI DUP3 SWAP1 SUB PUSH1 0x1F AND DUP3 ADD SWAP2 JUMPDEST POP POP POP POP POP DUP2 MSTORE POP POP DUP2 MSTORE PUSH1 0x20 ADD SWAP1 PUSH1 0x1 ADD SWAP1 PUSH2 0xA62 JUMP JUMPDEST POP POP POP POP SWAP1 POP SWAP1 JUMP JUMPDEST CALLER PUSH1 0x0 PUSH20 0xFFFFFFFFFFFFFFFFFFFFFFFFFFFFFFFFFFFFFFFF AND PUSH1 0x3 PUSH1 0x0 DUP4 PUSH20 0xFFFFFFFFFFFFFFFFFFFFFFFFFFFFFFFFFFFFFFFF AND PUSH20 0xFFFFFFFFFFFFFFFFFFFFFFFFFFFFFFFFFFFFFFFF AND DUP2 MSTORE PUSH1 0x20 ADD SWAP1 DUP2 MSTORE PUSH1 0x20 ADD PUSH1 0x0 KECCAK256 PUSH1 0x0 ADD PUSH1 0x0 SWAP1 SLOAD SWAP1 PUSH2 0x100 EXP SWAP1 DIV PUSH20 0xFFFFFFFFFFFFFFFFFFFFFFFFFFFFFFFFFFFFFFFF AND PUSH20 0xFFFFFFFFFFFFFFFFFFFFFFFFFFFFFFFFFFFFFFFF AND GT PUSH2 0xD45 JUMPI PUSH1 0x0 DUP1 REVERT JUMPDEST PUSH32 0xC5D2460186F7233C927E7DB2DCC703C0E500B653CA82273B7BFAD8045D85A470 DUP5 PUSH1 0x40 MLOAD PUSH1 0x20 ADD PUSH2 0xD77 SWAP2 SWAP1 PUSH2 0x3309 JUMP JUMPDEST PUSH1 0x40 MLOAD PUSH1 0x20 DUP2 DUP4 SUB SUB DUP2 MSTORE SWAP1 PUSH1 0x40 MSTORE DUP1 MLOAD SWAP1 PUSH1 0x20 ADD KECCAK256 EQ ISZERO PUSH2 0xD98 JUMPI PUSH1 0x0 DUP1 REVERT JUMPDEST PUSH1 0x0 PUSH1 0x40 MLOAD DUP1 PUSH1 0x80 ADD PUSH1 0x40 MSTORE DUP1 DUP7 DUP2 MSTORE PUSH1 0x20 ADD CALLER PUSH20 0xFFFFFFFFFFFFFFFFFFFFFFFFFFFFFFFFFFFFFFFF AND DUP2 MSTORE PUSH1 0x20 ADD DUP5 DUP2 MSTORE PUSH1 0x20 ADD DUP6 DUP2 MSTORE POP SWAP1 POP PUSH1 0x1 PUSH1 0x0 CALLER PUSH20 0xFFFFFFFFFFFFFFFFFFFFFFFFFFFFFFFFFFFFFFFF AND PUSH20 0xFFFFFFFFFFFFFFFFFFFFFFFFFFFFFFFFFFFFFFFF AND DUP2 MSTORE PUSH1 0x20 ADD SWAP1 DUP2 MSTORE PUSH1 0x20 ADD PUSH1 0x0 KECCAK256 DUP2 SWAP1 DUP1 PUSH1 0x1 DUP2 SLOAD ADD DUP1 DUP3 SSTORE DUP1 SWAP2 POP POP PUSH1 0x1 SWAP1 SUB SWAP1 PUSH1 0x0 MSTORE PUSH1 0x20 PUSH1 0x0 KECCAK256 SWAP1 PUSH1 0x4 MUL ADD PUSH1 0x0 SWAP1 SWAP2 SWAP1 SWAP2 SWAP1 SWAP2 POP PUSH1 0x0 DUP3 ADD MLOAD DUP2 PUSH1 0x0 ADD SWAP1 DUP1 MLOAD SWAP1 PUSH1 0x20 ADD SWAP1 PUSH2 0xE58 SWAP3 SWAP2 SWAP1 PUSH2 0x2BD8 JUMP JUMPDEST POP PUSH1 0x20 DUP3 ADD MLOAD DUP2 PUSH1 0x1 ADD PUSH1 0x0 PUSH2 0x100 EXP DUP2 SLOAD DUP2 PUSH20 0xFFFFFFFFFFFFFFFFFFFFFFFFFFFFFFFFFFFFFFFF MUL NOT AND SWAP1 DUP4 PUSH20 0xFFFFFFFFFFFFFFFFFFFFFFFFFFFFFFFFFFFFFFFF AND MUL OR SWAP1 SSTORE POP PUSH1 0x40 DUP3 ADD MLOAD DUP2 PUSH1 0x2 ADD SWAP1 DUP1 MLOAD SWAP1 PUSH1 0x20 ADD SWAP1 PUSH2 0xEBC SWAP3 SWAP2 SWAP1 PUSH2 0x2BD8 JUMP JUMPDEST POP PUSH1 0x60 DUP3 ADD MLOAD DUP2 PUSH1 0x3 ADD SWAP1 DUP1 MLOAD SWAP1 PUSH1 0x20 ADD SWAP1 PUSH2 0xED9 SWAP3 SWAP2 SWAP1 PUSH2 0x2BD8 JUMP JUMPDEST POP POP POP POP POP POP POP POP JUMP JUMPDEST PUSH1 0x0 PUSH1 0x3 PUSH1 0x0 CALLER PUSH20 0xFFFFFFFFFFFFFFFFFFFFFFFFFFFFFFFFFFFFFFFF AND PUSH20 0xFFFFFFFFFFFFFFFFFFFFFFFFFFFFFFFFFFFFFFFF AND DUP2 MSTORE PUSH1 0x20 ADD SWAP1 DUP2 MSTORE PUSH1 0x20 ADD PUSH1 0x0 KECCAK256 PUSH1 0x40 MLOAD DUP1 PUSH1 0x60 ADD PUSH1 0x40 MSTORE SWAP1 DUP2 PUSH1 0x0 DUP3 ADD PUSH1 0x0 SWAP1 SLOAD SWAP1 PUSH2 0x100 EXP SWAP1 DIV PUSH20 0xFFFFFFFFFFFFFFFFFFFFFFFFFFFFFFFFFFFFFFFF AND PUSH20 0xFFFFFFFFFFFFFFFFFFFFFFFFFFFFFFFFFFFFFFFF AND PUSH20 0xFFFFFFFFFFFFFFFFFFFFFFFFFFFFFFFFFFFFFFFF AND DUP2 MSTORE PUSH1 0x20 ADD PUSH1 0x1 DUP3 ADD DUP1 SLOAD PUSH2 0xF95 SWAP1 PUSH2 0x3615 JUMP JUMPDEST DUP1 PUSH1 0x1F ADD PUSH1 0x20 DUP1 SWAP2 DIV MUL PUSH1 0x20 ADD PUSH1 0x40 MLOAD SWAP1 DUP2 ADD PUSH1 0x40 MSTORE DUP1 SWAP3 SWAP2 SWAP1 DUP2 DUP2 MSTORE PUSH1 0x20 ADD DUP3 DUP1 SLOAD PUSH2 0xFC1 SWAP1 PUSH2 0x3615 JUMP JUMPDEST DUP1 ISZERO PUSH2 0x100E JUMPI DUP1 PUSH1 0x1F LT PUSH2 0xFE3 JUMPI PUSH2 0x100 DUP1 DUP4 SLOAD DIV MUL DUP4 MSTORE SWAP2 PUSH1 0x20 ADD SWAP2 PUSH2 0x100E JUMP JUMPDEST DUP3 ADD SWAP2 SWAP1 PUSH1 0x0 MSTORE PUSH1 0x20 PUSH1 0x0 KECCAK256 SWAP1 JUMPDEST DUP2 SLOAD DUP2 MSTORE SWAP1 PUSH1 0x1 ADD SWAP1 PUSH1 0x20 ADD DUP1 DUP4 GT PUSH2 0xFF1 JUMPI DUP3 SWAP1 SUB PUSH1 0x1F AND DUP3 ADD SWAP2 JUMPDEST POP POP POP POP POP DUP2 MSTORE PUSH1 0x20 ADD PUSH1 0x2 DUP3 ADD DUP1 SLOAD DUP1 PUSH1 0x20 MUL PUSH1 0x20 ADD PUSH1 0x40 MLOAD SWAP1 DUP2 ADD PUSH1 0x40 MSTORE DUP1 SWAP3 SWAP2 SWAP1 DUP2 DUP2 MSTORE PUSH1 0x20 ADD DUP3 DUP1 SLOAD DUP1 ISZERO PUSH2 0x109C JUMPI PUSH1 0x20 MUL DUP3 ADD SWAP2 SWAP1 PUSH1 0x0 MSTORE PUSH1 0x20 PUSH1 0x0 KECCAK256 SWAP1 JUMPDEST DUP2 PUSH1 0x0 SWAP1 SLOAD SWAP1 PUSH2 0x100 EXP SWAP1 DIV PUSH20 0xFFFFFFFFFFFFFFFFFFFFFFFFFFFFFFFFFFFFFFFF AND PUSH20 0xFFFFFFFFFFFFFFFFFFFFFFFFFFFFFFFFFFFFFFFF AND DUP2 MSTORE PUSH1 0x20 ADD SWAP1 PUSH1 0x1 ADD SWAP1 DUP1 DUP4 GT PUSH2 0x1052 JUMPI JUMPDEST POP POP POP POP POP DUP2 MSTORE POP POP SWAP1 POP PUSH32 0xC5D2460186F7233C927E7DB2DCC703C0E500B653CA82273B7BFAD8045D85A470 DUP3 PUSH1 0x40 MLOAD PUSH1 0x20 ADD PUSH2 0x10D9 SWAP2 SWAP1 PUSH2 0x3309 JUMP JUMPDEST PUSH1 0x40 MLOAD PUSH1 0x20 DUP2 DUP4 SUB SUB DUP2 MSTORE SWAP1 PUSH1 0x40 MSTORE DUP1 MLOAD SWAP1 PUSH1 0x20 ADD KECCAK256 EQ ISZERO PUSH2 0x10FA JUMPI PUSH1 0x0 DUP1 REVERT JUMPDEST PUSH1 0x0 PUSH20 0xFFFFFFFFFFFFFFFFFFFFFFFFFFFFFFFFFFFFFFFF AND DUP2 PUSH1 0x0 ADD MLOAD PUSH20 0xFFFFFFFFFFFFFFFFFFFFFFFFFFFFFFFFFFFFFFFF AND GT ISZERO PUSH2 0x1138 JUMPI PUSH1 0x0 DUP1 REVERT JUMPDEST PUSH1 0x40 MLOAD DUP1 PUSH1 0x60 ADD PUSH1 0x40 MSTORE DUP1 CALLER PUSH20 0xFFFFFFFFFFFFFFFFFFFFFFFFFFFFFFFFFFFFFFFF AND DUP2 MSTORE PUSH1 0x20 ADD DUP4 DUP2 MSTORE PUSH1 0x20 ADD PUSH1 0x0 PUSH8 0xFFFFFFFFFFFFFFFF DUP2 GT ISZERO PUSH2 0x11A6 JUMPI PUSH32 0x4E487B7100000000000000000000000000000000000000000000000000000000 PUSH1 0x0 MSTORE PUSH1 0x41 PUSH1 0x4 MSTORE PUSH1 0x24 PUSH1 0x0 REVERT JUMPDEST PUSH1 0x40 MLOAD SWAP1 DUP1 DUP3 MSTORE DUP1 PUSH1 0x20 MUL PUSH1 0x20 ADD DUP3 ADD PUSH1 0x40 MSTORE DUP1 ISZERO PUSH2 0x11D4 JUMPI DUP2 PUSH1 0x20 ADD PUSH1 0x20 DUP3 MUL DUP1 CALLDATASIZE DUP4 CALLDATACOPY DUP1 DUP3 ADD SWAP2 POP POP SWAP1 POP JUMPDEST POP DUP2 MSTORE POP PUSH1 0x3 PUSH1 0x0 CALLER PUSH20 0xFFFFFFFFFFFFFFFFFFFFFFFFFFFFFFFFFFFFFFFF AND PUSH20 0xFFFFFFFFFFFFFFFFFFFFFFFFFFFFFFFFFFFFFFFF AND DUP2 MSTORE PUSH1 0x20 ADD SWAP1 DUP2 MSTORE PUSH1 0x20 ADD PUSH1 0x0 KECCAK256 PUSH1 0x0 DUP3 ADD MLOAD DUP2 PUSH1 0x0 ADD PUSH1 0x0 PUSH2 0x100 EXP DUP2 SLOAD DUP2 PUSH20 0xFFFFFFFFFFFFFFFFFFFFFFFFFFFFFFFFFFFFFFFF MUL NOT AND SWAP1 DUP4 PUSH20 0xFFFFFFFFFFFFFFFFFFFFFFFFFFFFFFFFFFFFFFFF AND MUL OR SWAP1 SSTORE POP PUSH1 0x20 DUP3 ADD MLOAD DUP2 PUSH1 0x1 ADD SWAP1 DUP1 MLOAD SWAP1 PUSH1 0x20 ADD SWAP1 PUSH2 0x127A SWAP3 SWAP2 SWAP1 PUSH2 0x2BD8 JUMP JUMPDEST POP PUSH1 0x40 DUP3 ADD MLOAD DUP2 PUSH1 0x2 ADD SWAP1 DUP1 MLOAD SWAP1 PUSH1 0x20 ADD SWAP1 PUSH2 0x1297 SWAP3 SWAP2 SWAP1 PUSH2 0x2C5E JUMP JUMPDEST POP SWAP1 POP POP POP POP JUMP JUMPDEST PUSH1 0x0 PUSH1 0x60 CALLER PUSH1 0x0 PUSH20 0xFFFFFFFFFFFFFFFFFFFFFFFFFFFFFFFFFFFFFFFF AND PUSH1 0x4 PUSH1 0x0 DUP4 PUSH20 0xFFFFFFFFFFFFFFFFFFFFFFFFFFFFFFFFFFFFFFFF AND PUSH20 0xFFFFFFFFFFFFFFFFFFFFFFFFFFFFFFFFFFFFFFFF AND DUP2 MSTORE PUSH1 0x20 ADD SWAP1 DUP2 MSTORE PUSH1 0x20 ADD PUSH1 0x0 KECCAK256 PUSH1 0x0 ADD PUSH1 0x0 SWAP1 SLOAD SWAP1 PUSH2 0x100 EXP SWAP1 DIV PUSH20 0xFFFFFFFFFFFFFFFFFFFFFFFFFFFFFFFFFFFFFFFF AND PUSH20 0xFFFFFFFFFFFFFFFFFFFFFFFFFFFFFFFFFFFFFFFF AND GT PUSH2 0x133F JUMPI PUSH1 0x0 DUP1 REVERT JUMPDEST PUSH1 0x0 PUSH1 0x4 PUSH1 0x0 CALLER PUSH20 0xFFFFFFFFFFFFFFFFFFFFFFFFFFFFFFFFFFFFFFFF AND PUSH20 0xFFFFFFFFFFFFFFFFFFFFFFFFFFFFFFFFFFFFFFFF AND DUP2 MSTORE PUSH1 0x20 ADD SWAP1 DUP2 MSTORE PUSH1 0x20 ADD PUSH1 0x0 KECCAK256 PUSH1 0x40 MLOAD DUP1 PUSH1 0x40 ADD PUSH1 0x40 MSTORE SWAP1 DUP2 PUSH1 0x0 DUP3 ADD PUSH1 0x0 SWAP1 SLOAD SWAP1 PUSH2 0x100 EXP SWAP1 DIV PUSH20 0xFFFFFFFFFFFFFFFFFFFFFFFFFFFFFFFFFFFFFFFF AND PUSH20 0xFFFFFFFFFFFFFFFFFFFFFFFFFFFFFFFFFFFFFFFF AND PUSH20 0xFFFFFFFFFFFFFFFFFFFFFFFFFFFFFFFFFFFFFFFF AND DUP2 MSTORE PUSH1 0x20 ADD PUSH1 0x1 DUP3 ADD DUP1 SLOAD PUSH2 0x13F1 SWAP1 PUSH2 0x3615 JUMP JUMPDEST DUP1 PUSH1 0x1F ADD PUSH1 0x20 DUP1 SWAP2 DIV MUL PUSH1 0x20 ADD PUSH1 0x40 MLOAD SWAP1 DUP2 ADD PUSH1 0x40 MSTORE DUP1 SWAP3 SWAP2 SWAP1 DUP2 DUP2 MSTORE PUSH1 0x20 ADD DUP3 DUP1 SLOAD PUSH2 0x141D SWAP1 PUSH2 0x3615 JUMP JUMPDEST DUP1 ISZERO PUSH2 0x146A JUMPI DUP1 PUSH1 0x1F LT PUSH2 0x143F JUMPI PUSH2 0x100 DUP1 DUP4 SLOAD DIV MUL DUP4 MSTORE SWAP2 PUSH1 0x20 ADD SWAP2 PUSH2 0x146A JUMP JUMPDEST DUP3 ADD SWAP2 SWAP1 PUSH1 0x0 MSTORE PUSH1 0x20 PUSH1 0x0 KECCAK256 SWAP1 JUMPDEST DUP2 SLOAD DUP2 MSTORE SWAP1 PUSH1 0x1 ADD SWAP1 PUSH1 0x20 ADD DUP1 DUP4 GT PUSH2 0x144D JUMPI DUP3 SWAP1 SUB PUSH1 0x1F AND DUP3 ADD SWAP2 JUMPDEST POP POP POP POP POP DUP2 MSTORE POP POP SWAP1 POP DUP1 PUSH1 0x0 ADD MLOAD DUP2 PUSH1 0x20 ADD MLOAD SWAP4 POP SWAP4 POP POP POP SWAP1 SWAP2 JUMP JUMPDEST CALLER PUSH1 0x0 PUSH20 0xFFFFFFFFFFFFFFFFFFFFFFFFFFFFFFFFFFFFFFFF AND PUSH1 0x3 PUSH1 0x0 DUP4 PUSH20 0xFFFFFFFFFFFFFFFFFFFFFFFFFFFFFFFFFFFFFFFF AND PUSH20 0xFFFFFFFFFFFFFFFFFFFFFFFFFFFFFFFFFFFFFFFF AND DUP2 MSTORE PUSH1 0x20 ADD SWAP1 DUP2 MSTORE PUSH1 0x20 ADD PUSH1 0x0 KECCAK256 PUSH1 0x0 ADD PUSH1 0x0 SWAP1 SLOAD SWAP1 PUSH2 0x100 EXP SWAP1 DIV PUSH20 0xFFFFFFFFFFFFFFFFFFFFFFFFFFFFFFFFFFFFFFFF AND PUSH20 0xFFFFFFFFFFFFFFFFFFFFFFFFFFFFFFFFFFFFFFFF AND GT PUSH2 0x1525 JUMPI PUSH1 0x0 DUP1 REVERT JUMPDEST PUSH32 0xC5D2460186F7233C927E7DB2DCC703C0E500B653CA82273B7BFAD8045D85A470 DUP3 PUSH1 0x40 MLOAD PUSH1 0x20 ADD PUSH2 0x1557 SWAP2 SWAP1 PUSH2 0x3309 JUMP JUMPDEST PUSH1 0x40 MLOAD PUSH1 0x20 DUP2 DUP4 SUB SUB DUP2 MSTORE SWAP1 PUSH1 0x40 MSTORE DUP1 MLOAD SWAP1 PUSH1 0x20 ADD KECCAK256 EQ ISZERO PUSH2 0x1578 JUMPI PUSH1 0x0 DUP1 REVERT JUMPDEST DUP3 PUSH20 0xFFFFFFFFFFFFFFFFFFFFFFFFFFFFFFFFFFFFFFFF AND PUSH1 0x4 PUSH1 0x0 DUP6 PUSH20 0xFFFFFFFFFFFFFFFFFFFFFFFFFFFFFFFFFFFFFFFF AND PUSH20 0xFFFFFFFFFFFFFFFFFFFFFFFFFFFFFFFFFFFFFFFF AND DUP2 MSTORE PUSH1 0x20 ADD SWAP1 DUP2 MSTORE PUSH1 0x20 ADD PUSH1 0x0 KECCAK256 PUSH1 0x0 ADD PUSH1 0x0 SWAP1 SLOAD SWAP1 PUSH2 0x100 EXP SWAP1 DIV PUSH20 0xFFFFFFFFFFFFFFFFFFFFFFFFFFFFFFFFFFFFFFFF AND PUSH20 0xFFFFFFFFFFFFFFFFFFFFFFFFFFFFFFFFFFFFFFFF AND EQ PUSH2 0x1612 JUMPI PUSH1 0x0 DUP1 REVERT JUMPDEST PUSH1 0x0 SLOAD PUSH2 0x161E DUP5 PUSH2 0x26EE JUMP JUMPDEST EQ ISZERO PUSH2 0x1971 JUMPI PUSH1 0x0 PUSH1 0x3 PUSH1 0x0 CALLER PUSH20 0xFFFFFFFFFFFFFFFFFFFFFFFFFFFFFFFFFFFFFFFF AND PUSH20 0xFFFFFFFFFFFFFFFFFFFFFFFFFFFFFFFFFFFFFFFF AND DUP2 MSTORE PUSH1 0x20 ADD SWAP1 DUP2 MSTORE PUSH1 0x20 ADD PUSH1 0x0 KECCAK256 SWAP1 POP DUP1 PUSH1 0x2 ADD DUP5 SWAP1 DUP1 PUSH1 0x1 DUP2 SLOAD ADD DUP1 DUP3 SSTORE DUP1 SWAP2 POP POP PUSH1 0x1 SWAP1 SUB SWAP1 PUSH1 0x0 MSTORE PUSH1 0x20 PUSH1 0x0 KECCAK256 ADD PUSH1 0x0 SWAP1 SWAP2 SWAP1 SWAP2 SWAP1 SWAP2 PUSH2 0x100 EXP DUP2 SLOAD DUP2 PUSH20 0xFFFFFFFFFFFFFFFFFFFFFFFFFFFFFFFFFFFFFFFF MUL NOT AND SWAP1 DUP4 PUSH20 0xFFFFFFFFFFFFFFFFFFFFFFFFFFFFFFFFFFFFFFFF AND MUL OR SWAP1 SSTORE POP DUP1 PUSH1 0x3 PUSH1 0x0 CALLER PUSH20 0xFFFFFFFFFFFFFFFFFFFFFFFFFFFFFFFFFFFFFFFF AND PUSH20 0xFFFFFFFFFFFFFFFFFFFFFFFFFFFFFFFFFFFFFFFF AND DUP2 MSTORE PUSH1 0x20 ADD SWAP1 DUP2 MSTORE PUSH1 0x20 ADD PUSH1 0x0 KECCAK256 PUSH1 0x0 DUP3 ADD PUSH1 0x0 SWAP1 SLOAD SWAP1 PUSH2 0x100 EXP SWAP1 DIV PUSH20 0xFFFFFFFFFFFFFFFFFFFFFFFFFFFFFFFFFFFFFFFF AND DUP2 PUSH1 0x0 ADD PUSH1 0x0 PUSH2 0x100 EXP DUP2 SLOAD DUP2 PUSH20 0xFFFFFFFFFFFFFFFFFFFFFFFFFFFFFFFFFFFFFFFF MUL NOT AND SWAP1 DUP4 PUSH20 0xFFFFFFFFFFFFFFFFFFFFFFFFFFFFFFFFFFFFFFFF AND MUL OR SWAP1 SSTORE POP PUSH1 0x1 DUP3 ADD DUP2 PUSH1 0x1 ADD SWAP1 DUP1 SLOAD PUSH2 0x1787 SWAP1 PUSH2 0x3615 JUMP JUMPDEST PUSH2 0x1792 SWAP3 SWAP2 SWAP1 PUSH2 0x2CE8 JUMP JUMPDEST POP PUSH1 0x2 DUP3 ADD DUP2 PUSH1 0x2 ADD SWAP1 DUP1 SLOAD PUSH2 0x17A9 SWAP3 SWAP2 SWAP1 PUSH2 0x2D75 JUMP JUMPDEST POP SWAP1 POP POP PUSH1 0x2 PUSH1 0x0 DUP6 PUSH20 0xFFFFFFFFFFFFFFFFFFFFFFFFFFFFFFFFFFFFFFFF AND PUSH20 0xFFFFFFFFFFFFFFFFFFFFFFFFFFFFFFFFFFFFFFFF AND DUP2 MSTORE PUSH1 0x20 ADD SWAP1 DUP2 MSTORE PUSH1 0x20 ADD PUSH1 0x0 KECCAK256 PUSH1 0x1 PUSH1 0x0 CALLER PUSH20 0xFFFFFFFFFFFFFFFFFFFFFFFFFFFFFFFFFFFFFFFF AND PUSH20 0xFFFFFFFFFFFFFFFFFFFFFFFFFFFFFFFFFFFFFFFF AND DUP2 MSTORE PUSH1 0x20 ADD SWAP1 DUP2 MSTORE PUSH1 0x20 ADD PUSH1 0x0 KECCAK256 PUSH2 0x1834 DUP6 PUSH2 0x287F JUMP JUMPDEST DUP2 SLOAD DUP2 LT PUSH2 0x186B JUMPI PUSH32 0x4E487B7100000000000000000000000000000000000000000000000000000000 PUSH1 0x0 MSTORE PUSH1 0x32 PUSH1 0x4 MSTORE PUSH1 0x24 PUSH1 0x0 REVERT JUMPDEST SWAP1 PUSH1 0x0 MSTORE PUSH1 0x20 PUSH1 0x0 KECCAK256 SWAP1 PUSH1 0x4 MUL ADD SWAP1 DUP1 PUSH1 0x1 DUP2 SLOAD ADD DUP1 DUP3 SSTORE DUP1 SWAP2 POP POP PUSH1 0x1 SWAP1 SUB SWAP1 PUSH1 0x0 MSTORE PUSH1 0x20 PUSH1 0x0 KECCAK256 SWAP1 PUSH1 0x4 MUL ADD PUSH1 0x0 SWAP1 SWAP2 SWAP1 SWAP2 SWAP1 SWAP2 POP PUSH1 0x0 DUP3 ADD DUP2 PUSH1 0x0 ADD SWAP1 DUP1 SLOAD PUSH2 0x18B6 SWAP1 PUSH2 0x3615 JUMP JUMPDEST PUSH2 0x18C1 SWAP3 SWAP2 SWAP1 PUSH2 0x2CE8 JUMP JUMPDEST POP PUSH1 0x1 DUP3 ADD PUSH1 0x0 SWAP1 SLOAD SWAP1 PUSH2 0x100 EXP SWAP1 DIV PUSH20 0xFFFFFFFFFFFFFFFFFFFFFFFFFFFFFFFFFFFFFFFF AND DUP2 PUSH1 0x1 ADD PUSH1 0x0 PUSH2 0x100 EXP DUP2 SLOAD DUP2 PUSH20 0xFFFFFFFFFFFFFFFFFFFFFFFFFFFFFFFFFFFFFFFF MUL NOT AND SWAP1 DUP4 PUSH20 0xFFFFFFFFFFFFFFFFFFFFFFFFFFFFFFFFFFFFFFFF AND MUL OR SWAP1 SSTORE POP PUSH1 0x2 DUP3 ADD DUP2 PUSH1 0x2 ADD SWAP1 DUP1 SLOAD PUSH2 0x193D SWAP1 PUSH2 0x3615 JUMP JUMPDEST PUSH2 0x1948 SWAP3 SWAP2 SWAP1 PUSH2 0x2CE8 JUMP JUMPDEST POP PUSH1 0x3 DUP3 ADD DUP2 PUSH1 0x3 ADD SWAP1 DUP1 SLOAD PUSH2 0x195D SWAP1 PUSH2 0x3615 JUMP JUMPDEST PUSH2 0x1968 SWAP3 SWAP2 SWAP1 PUSH2 0x2CE8 JUMP JUMPDEST POP POP POP POP PUSH2 0x1EC9 JUMP JUMPDEST PUSH1 0x0 PUSH1 0x2 PUSH1 0x0 DUP6 PUSH20 0xFFFFFFFFFFFFFFFFFFFFFFFFFFFFFFFFFFFFFFFF AND PUSH20 0xFFFFFFFFFFFFFFFFFFFFFFFFFFFFFFFFFFFFFFFF AND DUP2 MSTORE PUSH1 0x20 ADD SWAP1 DUP2 MSTORE PUSH1 0x20 ADD PUSH1 0x0 KECCAK256 DUP1 SLOAD DUP1 PUSH1 0x20 MUL PUSH1 0x20 ADD PUSH1 0x40 MLOAD SWAP1 DUP2 ADD PUSH1 0x40 MSTORE DUP1 SWAP3 SWAP2 SWAP1 DUP2 DUP2 MSTORE PUSH1 0x20 ADD PUSH1 0x0 SWAP1 JUMPDEST DUP3 DUP3 LT ISZERO PUSH2 0x1C10 JUMPI DUP4 DUP3 SWAP1 PUSH1 0x0 MSTORE PUSH1 0x20 PUSH1 0x0 KECCAK256 SWAP1 PUSH1 0x4 MUL ADD PUSH1 0x40 MLOAD DUP1 PUSH1 0x80 ADD PUSH1 0x40 MSTORE SWAP1 DUP2 PUSH1 0x0 DUP3 ADD DUP1 SLOAD PUSH2 0x1A05 SWAP1 PUSH2 0x3615 JUMP JUMPDEST DUP1 PUSH1 0x1F ADD PUSH1 0x20 DUP1 SWAP2 DIV MUL PUSH1 0x20 ADD PUSH1 0x40 MLOAD SWAP1 DUP2 ADD PUSH1 0x40 MSTORE DUP1 SWAP3 SWAP2 SWAP1 DUP2 DUP2 MSTORE PUSH1 0x20 ADD DUP3 DUP1 SLOAD PUSH2 0x1A31 SWAP1 PUSH2 0x3615 JUMP JUMPDEST DUP1 ISZERO PUSH2 0x1A7E JUMPI DUP1 PUSH1 0x1F LT PUSH2 0x1A53 JUMPI PUSH2 0x100 DUP1 DUP4 SLOAD DIV MUL DUP4 MSTORE SWAP2 PUSH1 0x20 ADD SWAP2 PUSH2 0x1A7E JUMP JUMPDEST DUP3 ADD SWAP2 SWAP1 PUSH1 0x0 MSTORE PUSH1 0x20 PUSH1 0x0 KECCAK256 SWAP1 JUMPDEST DUP2 SLOAD DUP2 MSTORE SWAP1 PUSH1 0x1 ADD SWAP1 PUSH1 0x20 ADD DUP1 DUP4 GT PUSH2 0x1A61 JUMPI DUP3 SWAP1 SUB PUSH1 0x1F AND DUP3 ADD SWAP2 JUMPDEST POP POP POP POP POP DUP2 MSTORE PUSH1 0x20 ADD PUSH1 0x1 DUP3 ADD PUSH1 0x0 SWAP1 SLOAD SWAP1 PUSH2 0x100 EXP SWAP1 DIV PUSH20 0xFFFFFFFFFFFFFFFFFFFFFFFFFFFFFFFFFFFFFFFF AND PUSH20 0xFFFFFFFFFFFFFFFFFFFFFFFFFFFFFFFFFFFFFFFF AND PUSH20 0xFFFFFFFFFFFFFFFFFFFFFFFFFFFFFFFFFFFFFFFF AND DUP2 MSTORE PUSH1 0x20 ADD PUSH1 0x2 DUP3 ADD DUP1 SLOAD PUSH2 0x1AED SWAP1 PUSH2 0x3615 JUMP JUMPDEST DUP1 PUSH1 0x1F ADD PUSH1 0x20 DUP1 SWAP2 DIV MUL PUSH1 0x20 ADD PUSH1 0x40 MLOAD SWAP1 DUP2 ADD PUSH1 0x40 MSTORE DUP1 SWAP3 SWAP2 SWAP1 DUP2 DUP2 MSTORE PUSH1 0x20 ADD DUP3 DUP1 SLOAD PUSH2 0x1B19 SWAP1 PUSH2 0x3615 JUMP JUMPDEST DUP1 ISZERO PUSH2 0x1B66 JUMPI DUP1 PUSH1 0x1F LT PUSH2 0x1B3B JUMPI PUSH2 0x100 DUP1 DUP4 SLOAD DIV MUL DUP4 MSTORE SWAP2 PUSH1 0x20 ADD SWAP2 PUSH2 0x1B66 JUMP JUMPDEST DUP3 ADD SWAP2 SWAP1 PUSH1 0x0 MSTORE PUSH1 0x20 PUSH1 0x0 KECCAK256 SWAP1 JUMPDEST DUP2 SLOAD DUP2 MSTORE SWAP1 PUSH1 0x1 ADD SWAP1 PUSH1 0x20 ADD DUP1 DUP4 GT PUSH2 0x1B49 JUMPI DUP3 SWAP1 SUB PUSH1 0x1F AND DUP3 ADD SWAP2 JUMPDEST POP POP POP POP POP DUP2 MSTORE PUSH1 0x20 ADD PUSH1 0x3 DUP3 ADD DUP1 SLOAD PUSH2 0x1B7F SWAP1 PUSH2 0x3615 JUMP JUMPDEST DUP1 PUSH1 0x1F ADD PUSH1 0x20 DUP1 SWAP2 DIV MUL PUSH1 0x20 ADD PUSH1 0x40 MLOAD SWAP1 DUP2 ADD PUSH1 0x40 MSTORE DUP1 SWAP3 SWAP2 SWAP1 DUP2 DUP2 MSTORE PUSH1 0x20 ADD DUP3 DUP1 SLOAD PUSH2 0x1BAB SWAP1 PUSH2 0x3615 JUMP JUMPDEST DUP1 ISZERO PUSH2 0x1BF8 JUMPI DUP1 PUSH1 0x1F LT PUSH2 0x1BCD JUMPI PUSH2 0x100 DUP1 DUP4 SLOAD DIV MUL DUP4 MSTORE SWAP2 PUSH1 0x20 ADD SWAP2 PUSH2 0x1BF8 JUMP JUMPDEST DUP3 ADD SWAP2 SWAP1 PUSH1 0x0 MSTORE PUSH1 0x20 PUSH1 0x0 KECCAK256 SWAP1 JUMPDEST DUP2 SLOAD DUP2 MSTORE SWAP1 PUSH1 0x1 ADD SWAP1 PUSH1 0x20 ADD DUP1 DUP4 GT PUSH2 0x1BDB JUMPI DUP3 SWAP1 SUB PUSH1 0x1F AND DUP3 ADD SWAP2 JUMPDEST POP POP POP POP POP DUP2 MSTORE POP POP DUP2 MSTORE PUSH1 0x20 ADD SWAP1 PUSH1 0x1 ADD SWAP1 PUSH2 0x19D2 JUMP JUMPDEST POP POP POP POP SWAP1 POP PUSH1 0x0 JUMPDEST DUP2 MLOAD DUP2 LT ISZERO PUSH2 0x1D08 JUMPI DUP4 PUSH1 0x40 MLOAD PUSH1 0x20 ADD PUSH2 0x1C33 SWAP2 SWAP1 PUSH2 0x3309 JUMP JUMPDEST PUSH1 0x40 MLOAD PUSH1 0x20 DUP2 DUP4 SUB SUB DUP2 MSTORE SWAP1 PUSH1 0x40 MSTORE DUP1 MLOAD SWAP1 PUSH1 0x20 ADD KECCAK256 DUP3 DUP3 DUP2 MLOAD DUP2 LT PUSH2 0x1C82 JUMPI PUSH32 0x4E487B7100000000000000000000000000000000000000000000000000000000 PUSH1 0x0 MSTORE PUSH1 0x32 PUSH1 0x4 MSTORE PUSH1 0x24 PUSH1 0x0 REVERT JUMPDEST PUSH1 0x20 MUL PUSH1 0x20 ADD ADD MLOAD PUSH1 0x0 ADD MLOAD PUSH1 0x40 MLOAD PUSH1 0x20 ADD PUSH2 0x1C9E SWAP2 SWAP1 PUSH2 0x3309 JUMP JUMPDEST PUSH1 0x40 MLOAD PUSH1 0x20 DUP2 DUP4 SUB SUB DUP2 MSTORE SWAP1 PUSH1 0x40 MSTORE DUP1 MLOAD SWAP1 PUSH1 0x20 ADD KECCAK256 EQ ISZERO PUSH2 0x1CF5 JUMPI PUSH1 0x40 MLOAD PUSH32 0x8C379A000000000000000000000000000000000000000000000000000000000 DUP2 MSTORE PUSH1 0x4 ADD PUSH2 0x1CEC SWAP1 PUSH2 0x33EE JUMP JUMPDEST PUSH1 0x40 MLOAD DUP1 SWAP2 SUB SWAP1 REVERT JUMPDEST DUP1 DUP1 PUSH2 0x1D00 SWAP1 PUSH2 0x3678 JUMP JUMPDEST SWAP2 POP POP PUSH2 0x1C19 JUMP JUMPDEST POP PUSH1 0x2 PUSH1 0x0 DUP6 PUSH20 0xFFFFFFFFFFFFFFFFFFFFFFFFFFFFFFFFFFFFFFFF AND PUSH20 0xFFFFFFFFFFFFFFFFFFFFFFFFFFFFFFFFFFFFFFFF AND DUP2 MSTORE PUSH1 0x20 ADD SWAP1 DUP2 MSTORE PUSH1 0x20 ADD PUSH1 0x0 KECCAK256 PUSH1 0x1 PUSH1 0x0 CALLER PUSH20 0xFFFFFFFFFFFFFFFFFFFFFFFFFFFFFFFFFFFFFFFF AND PUSH20 0xFFFFFFFFFFFFFFFFFFFFFFFFFFFFFFFFFFFFFFFF AND DUP2 MSTORE PUSH1 0x20 ADD SWAP1 DUP2 MSTORE PUSH1 0x20 ADD PUSH1 0x0 KECCAK256 PUSH2 0x1D90 DUP6 PUSH2 0x287F JUMP JUMPDEST DUP2 SLOAD DUP2 LT PUSH2 0x1DC7 JUMPI PUSH32 0x4E487B7100000000000000000000000000000000000000000000000000000000 PUSH1 0x0 MSTORE PUSH1 0x32 PUSH1 0x4 MSTORE PUSH1 0x24 PUSH1 0x0 REVERT JUMPDEST SWAP1 PUSH1 0x0 MSTORE PUSH1 0x20 PUSH1 0x0 KECCAK256 SWAP1 PUSH1 0x4 MUL ADD SWAP1 DUP1 PUSH1 0x1 DUP2 SLOAD ADD DUP1 DUP3 SSTORE DUP1 SWAP2 POP POP PUSH1 0x1 SWAP1 SUB SWAP1 PUSH1 0x0 MSTORE PUSH1 0x20 PUSH1 0x0 KECCAK256 SWAP1 PUSH1 0x4 MUL ADD PUSH1 0x0 SWAP1 SWAP2 SWAP1 SWAP2 SWAP1 SWAP2 POP PUSH1 0x0 DUP3 ADD DUP2 PUSH1 0x0 ADD SWAP1 DUP1 SLOAD PUSH2 0x1E12 SWAP1 PUSH2 0x3615 JUMP JUMPDEST PUSH2 0x1E1D SWAP3 SWAP2 SWAP1 PUSH2 0x2CE8 JUMP JUMPDEST POP PUSH1 0x1 DUP3 ADD PUSH1 0x0 SWAP1 SLOAD SWAP1 PUSH2 0x100 EXP SWAP1 DIV PUSH20 0xFFFFFFFFFFFFFFFFFFFFFFFFFFFFFFFFFFFFFFFF AND DUP2 PUSH1 0x1 ADD PUSH1 0x0 PUSH2 0x100 EXP DUP2 SLOAD DUP2 PUSH20 0xFFFFFFFFFFFFFFFFFFFFFFFFFFFFFFFFFFFFFFFF MUL NOT AND SWAP1 DUP4 PUSH20 0xFFFFFFFFFFFFFFFFFFFFFFFFFFFFFFFFFFFFFFFF AND MUL OR SWAP1 SSTORE POP PUSH1 0x2 DUP3 ADD DUP2 PUSH1 0x2 ADD SWAP1 DUP1 SLOAD PUSH2 0x1E99 SWAP1 PUSH2 0x3615 JUMP JUMPDEST PUSH2 0x1EA4 SWAP3 SWAP2 SWAP1 PUSH2 0x2CE8 JUMP JUMPDEST POP PUSH1 0x3 DUP3 ADD DUP2 PUSH1 0x3 ADD SWAP1 DUP1 SLOAD PUSH2 0x1EB9 SWAP1 PUSH2 0x3615 JUMP JUMPDEST PUSH2 0x1EC4 SWAP3 SWAP2 SWAP1 PUSH2 0x2CE8 JUMP JUMPDEST POP POP POP POP JUMPDEST POP POP POP JUMP JUMPDEST CALLER PUSH1 0x0 PUSH20 0xFFFFFFFFFFFFFFFFFFFFFFFFFFFFFFFFFFFFFFFF AND PUSH1 0x3 PUSH1 0x0 DUP4 PUSH20 0xFFFFFFFFFFFFFFFFFFFFFFFFFFFFFFFFFFFFFFFF AND PUSH20 0xFFFFFFFFFFFFFFFFFFFFFFFFFFFFFFFFFFFFFFFF AND DUP2 MSTORE PUSH1 0x20 ADD SWAP1 DUP2 MSTORE PUSH1 0x20 ADD PUSH1 0x0 KECCAK256 PUSH1 0x0 ADD PUSH1 0x0 SWAP1 SLOAD SWAP1 PUSH2 0x100 EXP SWAP1 DIV PUSH20 0xFFFFFFFFFFFFFFFFFFFFFFFFFFFFFFFFFFFFFFFF AND PUSH20 0xFFFFFFFFFFFFFFFFFFFFFFFFFFFFFFFFFFFFFFFF AND GT PUSH2 0x1F6A JUMPI PUSH1 0x0 DUP1 REVERT JUMPDEST DUP3 PUSH20 0xFFFFFFFFFFFFFFFFFFFFFFFFFFFFFFFFFFFFFFFF AND PUSH1 0x4 PUSH1 0x0 DUP6 PUSH20 0xFFFFFFFFFFFFFFFFFFFFFFFFFFFFFFFFFFFFFFFF AND PUSH20 0xFFFFFFFFFFFFFFFFFFFFFFFFFFFFFFFFFFFFFFFF AND DUP2 MSTORE PUSH1 0x20 ADD SWAP1 DUP2 MSTORE PUSH1 0x20 ADD PUSH1 0x0 KECCAK256 PUSH1 0x0 ADD PUSH1 0x0 SWAP1 SLOAD SWAP1 PUSH2 0x100 EXP SWAP1 DIV PUSH20 0xFFFFFFFFFFFFFFFFFFFFFFFFFFFFFFFFFFFFFFFF AND PUSH20 0xFFFFFFFFFFFFFFFFFFFFFFFFFFFFFFFFFFFFFFFF AND EQ PUSH2 0x2004 JUMPI PUSH1 0x0 DUP1 REVERT JUMPDEST PUSH1 0x0 PUSH1 0x2 PUSH1 0x0 DUP6 PUSH20 0xFFFFFFFFFFFFFFFFFFFFFFFFFFFFFFFFFFFFFFFF AND PUSH20 0xFFFFFFFFFFFFFFFFFFFFFFFFFFFFFFFFFFFFFFFF AND DUP2 MSTORE PUSH1 0x20 ADD SWAP1 DUP2 MSTORE PUSH1 0x20 ADD PUSH1 0x0 KECCAK256 DUP1 SLOAD SWAP1 POP EQ ISZERO PUSH2 0x208A JUMPI PUSH1 0x40 MLOAD PUSH32 0x8C379A000000000000000000000000000000000000000000000000000000000 DUP2 MSTORE PUSH1 0x4 ADD PUSH2 0x2081 SWAP1 PUSH2 0x342E JUMP JUMPDEST PUSH1 0x40 MLOAD DUP1 SWAP2 SUB SWAP1 REVERT JUMPDEST PUSH1 0x1 PUSH1 0x2 PUSH1 0x0 DUP6 PUSH20 0xFFFFFFFFFFFFFFFFFFFFFFFFFFFFFFFFFFFFFFFF AND PUSH20 0xFFFFFFFFFFFFFFFFFFFFFFFFFFFFFFFFFFFFFFFF AND DUP2 MSTORE PUSH1 0x20 ADD SWAP1 DUP2 MSTORE PUSH1 0x20 ADD PUSH1 0x0 KECCAK256 DUP1 SLOAD SWAP1 POP EQ ISZERO PUSH2 0x238E JUMPI PUSH1 0x0 PUSH2 0x20E0 DUP5 PUSH2 0x26EE JUMP JUMPDEST SWAP1 POP PUSH1 0x0 SLOAD DUP2 EQ ISZERO PUSH2 0x2127 JUMPI PUSH1 0x40 MLOAD PUSH32 0x8C379A000000000000000000000000000000000000000000000000000000000 DUP2 MSTORE PUSH1 0x4 ADD PUSH2 0x211E SWAP1 PUSH2 0x33CE JUMP JUMPDEST PUSH1 0x40 MLOAD DUP1 SWAP2 SUB SWAP1 REVERT JUMPDEST PUSH1 0x3 PUSH1 0x0 CALLER PUSH20 0xFFFFFFFFFFFFFFFFFFFFFFFFFFFFFFFFFFFFFFFF AND PUSH20 0xFFFFFFFFFFFFFFFFFFFFFFFFFFFFFFFFFFFFFFFF AND DUP2 MSTORE PUSH1 0x20 ADD SWAP1 DUP2 MSTORE PUSH1 0x20 ADD PUSH1 0x0 KECCAK256 PUSH1 0x2 ADD PUSH1 0x1 PUSH1 0x3 PUSH1 0x0 CALLER PUSH20 0xFFFFFFFFFFFFFFFFFFFFFFFFFFFFFFFFFFFFFFFF AND PUSH20 0xFFFFFFFFFFFFFFFFFFFFFFFFFFFFFFFFFFFFFFFF AND DUP2 MSTORE PUSH1 0x20 ADD SWAP1 DUP2 MSTORE PUSH1 0x20 ADD PUSH1 0x0 KECCAK256 PUSH1 0x2 ADD DUP1 SLOAD SWAP1 POP PUSH2 0x21BB SWAP2 SWAP1 PUSH2 0x3563 JUMP JUMPDEST DUP2 SLOAD DUP2 LT PUSH2 0x21F2 JUMPI PUSH32 0x4E487B7100000000000000000000000000000000000000000000000000000000 PUSH1 0x0 MSTORE PUSH1 0x32 PUSH1 0x4 MSTORE PUSH1 0x24 PUSH1 0x0 REVERT JUMPDEST SWAP1 PUSH1 0x0 MSTORE PUSH1 0x20 PUSH1 0x0 KECCAK256 ADD PUSH1 0x0 SWAP1 SLOAD SWAP1 PUSH2 0x100 EXP SWAP1 DIV PUSH20 0xFFFFFFFFFFFFFFFFFFFFFFFFFFFFFFFFFFFFFFFF AND PUSH1 0x3 PUSH1 0x0 CALLER PUSH20 0xFFFFFFFFFFFFFFFFFFFFFFFFFFFFFFFFFFFFFFFF AND PUSH20 0xFFFFFFFFFFFFFFFFFFFFFFFFFFFFFFFFFFFFFFFF AND DUP2 MSTORE PUSH1 0x20 ADD SWAP1 DUP2 MSTORE PUSH1 0x20 ADD PUSH1 0x0 KECCAK256 PUSH1 0x2 ADD DUP3 DUP2 SLOAD DUP2 LT PUSH2 0x2297 JUMPI PUSH32 0x4E487B7100000000000000000000000000000000000000000000000000000000 PUSH1 0x0 MSTORE PUSH1 0x32 PUSH1 0x4 MSTORE PUSH1 0x24 PUSH1 0x0 REVERT JUMPDEST SWAP1 PUSH1 0x0 MSTORE PUSH1 0x20 PUSH1 0x0 KECCAK256 ADD PUSH1 0x0 PUSH2 0x100 EXP DUP2 SLOAD DUP2 PUSH20 0xFFFFFFFFFFFFFFFFFFFFFFFFFFFFFFFFFFFFFFFF MUL NOT AND SWAP1 DUP4 PUSH20 0xFFFFFFFFFFFFFFFFFFFFFFFFFFFFFFFFFFFFFFFF AND MUL OR SWAP1 SSTORE POP PUSH1 0x3 PUSH1 0x0 CALLER PUSH20 0xFFFFFFFFFFFFFFFFFFFFFFFFFFFFFFFFFFFFFFFF AND PUSH20 0xFFFFFFFFFFFFFFFFFFFFFFFFFFFFFFFFFFFFFFFF AND DUP2 MSTORE PUSH1 0x20 ADD SWAP1 DUP2 MSTORE PUSH1 0x20 ADD PUSH1 0x0 KECCAK256 PUSH1 0x2 ADD DUP1 SLOAD DUP1 PUSH2 0x2357 JUMPI PUSH32 0x4E487B7100000000000000000000000000000000000000000000000000000000 PUSH1 0x0 MSTORE PUSH1 0x31 PUSH1 0x4 MSTORE PUSH1 0x24 PUSH1 0x0 REVERT JUMPDEST PUSH1 0x1 SWAP1 SUB DUP2 DUP2 SWAP1 PUSH1 0x0 MSTORE PUSH1 0x20 PUSH1 0x0 KECCAK256 ADD PUSH1 0x0 PUSH2 0x100 EXP DUP2 SLOAD SWAP1 PUSH20 0xFFFFFFFFFFFFFFFFFFFFFFFFFFFFFFFFFFFFFFFF MUL NOT AND SWAP1 SSTORE SWAP1 SSTORE POP JUMPDEST PUSH1 0x0 PUSH2 0x239A DUP5 DUP5 PUSH2 0x2A2B JUMP JUMPDEST SWAP1 POP PUSH1 0x0 SLOAD DUP2 EQ ISZERO PUSH2 0x23E1 JUMPI PUSH1 0x40 MLOAD PUSH32 0x8C379A000000000000000000000000000000000000000000000000000000000 DUP2 MSTORE PUSH1 0x4 ADD PUSH2 0x23D8 SWAP1 PUSH2 0x340E JUMP JUMPDEST PUSH1 0x40 MLOAD DUP1 SWAP2 SUB SWAP1 REVERT JUMPDEST PUSH1 0x2 PUSH1 0x0 DUP6 PUSH20 0xFFFFFFFFFFFFFFFFFFFFFFFFFFFFFFFFFFFFFFFF AND PUSH20 0xFFFFFFFFFFFFFFFFFFFFFFFFFFFFFFFFFFFFFFFF AND DUP2 MSTORE PUSH1 0x20 ADD SWAP1 DUP2 MSTORE PUSH1 0x20 ADD PUSH1 0x0 KECCAK256 PUSH1 0x1 PUSH1 0x2 PUSH1 0x0 DUP8 PUSH20 0xFFFFFFFFFFFFFFFFFFFFFFFFFFFFFFFFFFFFFFFF AND PUSH20 0xFFFFFFFFFFFFFFFFFFFFFFFFFFFFFFFFFFFFFFFF AND DUP2 MSTORE PUSH1 0x20 ADD SWAP1 DUP2 MSTORE PUSH1 0x20 ADD PUSH1 0x0 KECCAK256 DUP1 SLOAD SWAP1 POP PUSH2 0x246F SWAP2 SWAP1 PUSH2 0x3563 JUMP JUMPDEST DUP2 SLOAD DUP2 LT PUSH2 0x24A6 JUMPI PUSH32 0x4E487B7100000000000000000000000000000000000000000000000000000000 PUSH1 0x0 MSTORE PUSH1 0x32 PUSH1 0x4 MSTORE PUSH1 0x24 PUSH1 0x0 REVERT JUMPDEST SWAP1 PUSH1 0x0 MSTORE PUSH1 0x20 PUSH1 0x0 KECCAK256 SWAP1 PUSH1 0x4 MUL ADD PUSH1 0x2 PUSH1 0x0 DUP7 PUSH20 0xFFFFFFFFFFFFFFFFFFFFFFFFFFFFFFFFFFFFFFFF AND PUSH20 0xFFFFFFFFFFFFFFFFFFFFFFFFFFFFFFFFFFFFFFFF AND DUP2 MSTORE PUSH1 0x20 ADD SWAP1 DUP2 MSTORE PUSH1 0x20 ADD PUSH1 0x0 KECCAK256 DUP3 DUP2 SLOAD DUP2 LT PUSH2 0x252B JUMPI PUSH32 0x4E487B7100000000000000000000000000000000000000000000000000000000 PUSH1 0x0 MSTORE PUSH1 0x32 PUSH1 0x4 MSTORE PUSH1 0x24 PUSH1 0x0 REVERT JUMPDEST SWAP1 PUSH1 0x0 MSTORE PUSH1 0x20 PUSH1 0x0 KECCAK256 SWAP1 PUSH1 0x4 MUL ADD PUSH1 0x0 DUP3 ADD DUP2 PUSH1 0x0 ADD SWAP1 DUP1 SLOAD PUSH2 0x254D SWAP1 PUSH2 0x3615 JUMP JUMPDEST PUSH2 0x2558 SWAP3 SWAP2 SWAP1 PUSH2 0x2CE8 JUMP JUMPDEST POP PUSH1 0x1 DUP3 ADD PUSH1 0x0 SWAP1 SLOAD SWAP1 PUSH2 0x100 EXP SWAP1 DIV PUSH20 0xFFFFFFFFFFFFFFFFFFFFFFFFFFFFFFFFFFFFFFFF AND DUP2 PUSH1 0x1 ADD PUSH1 0x0 PUSH2 0x100 EXP DUP2 SLOAD DUP2 PUSH20 0xFFFFFFFFFFFFFFFFFFFFFFFFFFFFFFFFFFFFFFFF MUL NOT AND SWAP1 DUP4 PUSH20 0xFFFFFFFFFFFFFFFFFFFFFFFFFFFFFFFFFFFFFFFF AND MUL OR SWAP1 SSTORE POP PUSH1 0x2 DUP3 ADD DUP2 PUSH1 0x2 ADD SWAP1 DUP1 SLOAD PUSH2 0x25D4 SWAP1 PUSH2 0x3615 JUMP JUMPDEST PUSH2 0x25DF SWAP3 SWAP2 SWAP1 PUSH2 0x2CE8 JUMP JUMPDEST POP PUSH1 0x3 DUP3 ADD DUP2 PUSH1 0x3 ADD SWAP1 DUP1 SLOAD PUSH2 0x25F4 SWAP1 PUSH2 0x3615 JUMP JUMPDEST PUSH2 0x25FF SWAP3 SWAP2 SWAP1 PUSH2 0x2CE8 JUMP JUMPDEST POP SWAP1 POP POP PUSH1 0x2 PUSH1 0x0 DUP6 PUSH20 0xFFFFFFFFFFFFFFFFFFFFFFFFFFFFFFFFFFFFFFFF AND PUSH20 0xFFFFFFFFFFFFFFFFFFFFFFFFFFFFFFFFFFFFFFFF AND DUP2 MSTORE PUSH1 0x20 ADD SWAP1 DUP2 MSTORE PUSH1 0x20 ADD PUSH1 0x0 KECCAK256 DUP1 SLOAD DUP1 PUSH2 0x2678 JUMPI PUSH32 0x4E487B7100000000000000000000000000000000000000000000000000000000 PUSH1 0x0 MSTORE PUSH1 0x31 PUSH1 0x4 MSTORE PUSH1 0x24 PUSH1 0x0 REVERT JUMPDEST PUSH1 0x1 SWAP1 SUB DUP2 DUP2 SWAP1 PUSH1 0x0 MSTORE PUSH1 0x20 PUSH1 0x0 KECCAK256 SWAP1 PUSH1 0x4 MUL ADD PUSH1 0x0 DUP1 DUP3 ADD PUSH1 0x0 PUSH2 0x269D SWAP2 SWAP1 PUSH2 0x2DC7 JUMP JUMPDEST PUSH1 0x1 DUP3 ADD PUSH1 0x0 PUSH2 0x100 EXP DUP2 SLOAD SWAP1 PUSH20 0xFFFFFFFFFFFFFFFFFFFFFFFFFFFFFFFFFFFFFFFF MUL NOT AND SWAP1 SSTORE PUSH1 0x2 DUP3 ADD PUSH1 0x0 PUSH2 0x26D4 SWAP2 SWAP1 PUSH2 0x2DC7 JUMP JUMPDEST PUSH1 0x3 DUP3 ADD PUSH1 0x0 PUSH2 0x26E4 SWAP2 SWAP1 PUSH2 0x2DC7 JUMP JUMPDEST POP POP SWAP1 SSTORE POP POP POP POP JUMP JUMPDEST PUSH1 0x0 DUP1 PUSH20 0xFFFFFFFFFFFFFFFFFFFFFFFFFFFFFFFFFFFFFFFF AND DUP3 PUSH20 0xFFFFFFFFFFFFFFFFFFFFFFFFFFFFFFFFFFFFFFFF AND GT PUSH2 0x2728 JUMPI PUSH1 0x0 DUP1 REVERT JUMPDEST PUSH1 0x0 PUSH1 0x3 PUSH1 0x0 CALLER PUSH20 0xFFFFFFFFFFFFFFFFFFFFFFFFFFFFFFFFFFFFFFFF AND PUSH20 0xFFFFFFFFFFFFFFFFFFFFFFFFFFFFFFFFFFFFFFFF AND DUP2 MSTORE PUSH1 0x20 ADD SWAP1 DUP2 MSTORE PUSH1 0x20 ADD PUSH1 0x0 KECCAK256 PUSH1 0x2 ADD DUP1 SLOAD SWAP1 POP SWAP1 POP PUSH1 0x0 JUMPDEST DUP2 DUP2 LT ISZERO PUSH2 0x2872 JUMPI DUP4 PUSH20 0xFFFFFFFFFFFFFFFFFFFFFFFFFFFFFFFFFFFFFFFF AND PUSH1 0x3 PUSH1 0x0 CALLER PUSH20 0xFFFFFFFFFFFFFFFFFFFFFFFFFFFFFFFFFFFFFFFF AND PUSH20 0xFFFFFFFFFFFFFFFFFFFFFFFFFFFFFFFFFFFFFFFF AND DUP2 MSTORE PUSH1 0x20 ADD SWAP1 DUP2 MSTORE PUSH1 0x20 ADD PUSH1 0x0 KECCAK256 PUSH1 0x2 ADD DUP3 DUP2 SLOAD DUP2 LT PUSH2 0x280E JUMPI PUSH32 0x4E487B7100000000000000000000000000000000000000000000000000000000 PUSH1 0x0 MSTORE PUSH1 0x32 PUSH1 0x4 MSTORE PUSH1 0x24 PUSH1 0x0 REVERT JUMPDEST SWAP1 PUSH1 0x0 MSTORE PUSH1 0x20 PUSH1 0x0 KECCAK256 ADD PUSH1 0x0 SWAP1 SLOAD SWAP1 PUSH2 0x100 EXP SWAP1 DIV PUSH20 0xFFFFFFFFFFFFFFFFFFFFFFFFFFFFFFFFFFFFFFFF AND PUSH20 0xFFFFFFFFFFFFFFFFFFFFFFFFFFFFFFFFFFFFFFFF AND EQ ISZERO PUSH2 0x285F JUMPI DUP1 SWAP3 POP POP POP PUSH2 0x287A JUMP JUMPDEST DUP1 DUP1 PUSH2 0x286A SWAP1 PUSH2 0x3678 JUMP JUMPDEST SWAP2 POP POP PUSH2 0x2775 JUMP JUMPDEST POP PUSH1 0x0 SLOAD SWAP2 POP POP JUMPDEST SWAP2 SWAP1 POP JUMP JUMPDEST PUSH1 0x0 PUSH32 0xC5D2460186F7233C927E7DB2DCC703C0E500B653CA82273B7BFAD8045D85A470 DUP3 PUSH1 0x40 MLOAD PUSH1 0x20 ADD PUSH2 0x28B3 SWAP2 SWAP1 PUSH2 0x3309 JUMP JUMPDEST PUSH1 0x40 MLOAD PUSH1 0x20 DUP2 DUP4 SUB SUB DUP2 MSTORE SWAP1 PUSH1 0x40 MSTORE DUP1 MLOAD SWAP1 PUSH1 0x20 ADD KECCAK256 EQ ISZERO PUSH2 0x28D4 JUMPI PUSH1 0x0 DUP1 REVERT JUMPDEST PUSH1 0x0 PUSH1 0x1 PUSH1 0x0 CALLER PUSH20 0xFFFFFFFFFFFFFFFFFFFFFFFFFFFFFFFFFFFFFFFF AND PUSH20 0xFFFFFFFFFFFFFFFFFFFFFFFFFFFFFFFFFFFFFFFF AND DUP2 MSTORE PUSH1 0x20 ADD SWAP1 DUP2 MSTORE PUSH1 0x20 ADD PUSH1 0x0 KECCAK256 SWAP1 POP PUSH1 0x0 JUMPDEST DUP2 DUP1 SLOAD SWAP1 POP DUP2 LT ISZERO PUSH2 0x2A1E JUMPI DUP4 PUSH1 0x40 MLOAD PUSH1 0x20 ADD PUSH2 0x2937 SWAP2 SWAP1 PUSH2 0x3309 JUMP JUMPDEST PUSH1 0x40 MLOAD PUSH1 0x20 DUP2 DUP4 SUB SUB DUP2 MSTORE SWAP1 PUSH1 0x40 MSTORE DUP1 MLOAD SWAP1 PUSH1 0x20 ADD KECCAK256 PUSH1 0x1 PUSH1 0x0 CALLER PUSH20 0xFFFFFFFFFFFFFFFFFFFFFFFFFFFFFFFFFFFFFFFF AND PUSH20 0xFFFFFFFFFFFFFFFFFFFFFFFFFFFFFFFFFFFFFFFF AND DUP2 MSTORE PUSH1 0x20 ADD SWAP1 DUP2 MSTORE PUSH1 0x20 ADD PUSH1 0x0 KECCAK256 DUP3 DUP2 SLOAD DUP2 LT PUSH2 0x29C4 JUMPI PUSH32 0x4E487B7100000000000000000000000000000000000000000000000000000000 PUSH1 0x0 MSTORE PUSH1 0x32 PUSH1 0x4 MSTORE PUSH1 0x24 PUSH1 0x0 REVERT JUMPDEST SWAP1 PUSH1 0x0 MSTORE PUSH1 0x20 PUSH1 0x0 KECCAK256 SWAP1 PUSH1 0x4 MUL ADD PUSH1 0x0 ADD PUSH1 0x40 MLOAD PUSH1 0x20 ADD PUSH2 0x29E5 SWAP2 SWAP1 PUSH2 0x3320 JUMP JUMPDEST PUSH1 0x40 MLOAD PUSH1 0x20 DUP2 DUP4 SUB SUB DUP2 MSTORE SWAP1 PUSH1 0x40 MSTORE DUP1 MLOAD SWAP1 PUSH1 0x20 ADD KECCAK256 EQ ISZERO PUSH2 0x2A0B JUMPI DUP1 SWAP3 POP POP POP PUSH2 0x2A26 JUMP JUMPDEST DUP1 DUP1 PUSH2 0x2A16 SWAP1 PUSH2 0x3678 JUMP JUMPDEST SWAP2 POP POP PUSH2 0x291A JUMP JUMPDEST POP PUSH1 0x0 SLOAD SWAP2 POP POP JUMPDEST SWAP2 SWAP1 POP JUMP JUMPDEST PUSH1 0x0 PUSH32 0xC5D2460186F7233C927E7DB2DCC703C0E500B653CA82273B7BFAD8045D85A470 DUP3 PUSH1 0x40 MLOAD PUSH1 0x20 ADD PUSH2 0x2A5F SWAP2 SWAP1 PUSH2 0x3309 JUMP JUMPDEST PUSH1 0x40 MLOAD PUSH1 0x20 DUP2 DUP4 SUB SUB DUP2 MSTORE SWAP1 PUSH1 0x40 MSTORE DUP1 MLOAD SWAP1 PUSH1 0x20 ADD KECCAK256 EQ ISZERO PUSH2 0x2A80 JUMPI PUSH1 0x0 DUP1 REVERT JUMPDEST PUSH1 0x0 PUSH1 0x2 PUSH1 0x0 DUP6 PUSH20 0xFFFFFFFFFFFFFFFFFFFFFFFFFFFFFFFFFFFFFFFF AND PUSH20 0xFFFFFFFFFFFFFFFFFFFFFFFFFFFFFFFFFFFFFFFF AND DUP2 MSTORE PUSH1 0x20 ADD SWAP1 DUP2 MSTORE PUSH1 0x20 ADD PUSH1 0x0 KECCAK256 SWAP1 POP PUSH1 0x0 JUMPDEST DUP2 DUP1 SLOAD SWAP1 POP DUP2 LT ISZERO PUSH2 0x2BCA JUMPI DUP4 PUSH1 0x40 MLOAD PUSH1 0x20 ADD PUSH2 0x2AE3 SWAP2 SWAP1 PUSH2 0x3309 JUMP JUMPDEST PUSH1 0x40 MLOAD PUSH1 0x20 DUP2 DUP4 SUB SUB DUP2 MSTORE SWAP1 PUSH1 0x40 MSTORE DUP1 MLOAD SWAP1 PUSH1 0x20 ADD KECCAK256 PUSH1 0x2 PUSH1 0x0 DUP8 PUSH20 0xFFFFFFFFFFFFFFFFFFFFFFFFFFFFFFFFFFFFFFFF AND PUSH20 0xFFFFFFFFFFFFFFFFFFFFFFFFFFFFFFFFFFFFFFFF AND DUP2 MSTORE PUSH1 0x20 ADD SWAP1 DUP2 MSTORE PUSH1 0x20 ADD PUSH1 0x0 KECCAK256 DUP3 DUP2 SLOAD DUP2 LT PUSH2 0x2B70 JUMPI PUSH32 0x4E487B7100000000000000000000000000000000000000000000000000000000 PUSH1 0x0 MSTORE PUSH1 0x32 PUSH1 0x4 MSTORE PUSH1 0x24 PUSH1 0x0 REVERT JUMPDEST SWAP1 PUSH1 0x0 MSTORE PUSH1 0x20 PUSH1 0x0 KECCAK256 SWAP1 PUSH1 0x4 MUL ADD PUSH1 0x0 ADD PUSH1 0x40 MLOAD PUSH1 0x20 ADD PUSH2 0x2B91 SWAP2 SWAP1 PUSH2 0x3320 JUMP JUMPDEST PUSH1 0x40 MLOAD PUSH1 0x20 DUP2 DUP4 SUB SUB DUP2 MSTORE SWAP1 PUSH1 0x40 MSTORE DUP1 MLOAD SWAP1 PUSH1 0x20 ADD KECCAK256 EQ ISZERO PUSH2 0x2BB7 JUMPI DUP1 SWAP3 POP POP POP PUSH2 0x2BD2 JUMP JUMPDEST DUP1 DUP1 PUSH2 0x2BC2 SWAP1 PUSH2 0x3678 JUMP JUMPDEST SWAP2 POP POP PUSH2 0x2AC6 JUMP JUMPDEST POP PUSH1 0x0 SLOAD SWAP2 POP POP JUMPDEST SWAP3 SWAP2 POP POP JUMP JUMPDEST DUP3 DUP1 SLOAD PUSH2 0x2BE4 SWAP1 PUSH2 0x3615 JUMP JUMPDEST SWAP1 PUSH1 0x0 MSTORE PUSH1 0x20 PUSH1 0x0 KECCAK256 SWAP1 PUSH1 0x1F ADD PUSH1 0x20 SWAP1 DIV DUP2 ADD SWAP3 DUP3 PUSH2 0x2C06 JUMPI PUSH1 0x0 DUP6 SSTORE PUSH2 0x2C4D JUMP JUMPDEST DUP3 PUSH1 0x1F LT PUSH2 0x2C1F JUMPI DUP1 MLOAD PUSH1 0xFF NOT AND DUP4 DUP1 ADD OR DUP6 SSTORE PUSH2 0x2C4D JUMP JUMPDEST DUP3 DUP1 ADD PUSH1 0x1 ADD DUP6 SSTORE DUP3 ISZERO PUSH2 0x2C4D JUMPI SWAP2 DUP3 ADD JUMPDEST DUP3 DUP2 GT ISZERO PUSH2 0x2C4C JUMPI DUP3 MLOAD DUP3 SSTORE SWAP2 PUSH1 0x20 ADD SWAP2 SWAP1 PUSH1 0x1 ADD SWAP1 PUSH2 0x2C31 JUMP JUMPDEST JUMPDEST POP SWAP1 POP PUSH2 0x2C5A SWAP2 SWAP1 PUSH2 0x2E07 JUMP JUMPDEST POP SWAP1 JUMP JUMPDEST DUP3 DUP1 SLOAD DUP3 DUP3 SSTORE SWAP1 PUSH1 0x0 MSTORE PUSH1 0x20 PUSH1 0x0 KECCAK256 SWAP1 DUP2 ADD SWAP3 DUP3 ISZERO PUSH2 0x2CD7 JUMPI SWAP2 PUSH1 0x20 MUL DUP3 ADD JUMPDEST DUP3 DUP2 GT ISZERO PUSH2 0x2CD6 JUMPI DUP3 MLOAD DUP3 PUSH1 0x0 PUSH2 0x100 EXP DUP2 SLOAD DUP2 PUSH20 0xFFFFFFFFFFFFFFFFFFFFFFFFFFFFFFFFFFFFFFFF MUL NOT AND SWAP1 DUP4 PUSH20 0xFFFFFFFFFFFFFFFFFFFFFFFFFFFFFFFFFFFFFFFF AND MUL OR SWAP1 SSTORE POP SWAP2 PUSH1 0x20 ADD SWAP2 SWAP1 PUSH1 0x1 ADD SWAP1 PUSH2 0x2C7E JUMP JUMPDEST JUMPDEST POP SWAP1 POP PUSH2 0x2CE4 SWAP2 SWAP1 PUSH2 0x2E07 JUMP JUMPDEST POP SWAP1 JUMP JUMPDEST DUP3 DUP1 SLOAD PUSH2 0x2CF4 SWAP1 PUSH2 0x3615 JUMP JUMPDEST SWAP1 PUSH1 0x0 MSTORE PUSH1 0x20 PUSH1 0x0 KECCAK256 SWAP1 PUSH1 0x1F ADD PUSH1 0x20 SWAP1 DIV DUP2 ADD SWAP3 DUP3 PUSH2 0x2D16 JUMPI PUSH1 0x0 DUP6 SSTORE PUSH2 0x2D64 JUMP JUMPDEST DUP3 PUSH1 0x1F LT PUSH2 0x2D27 JUMPI DUP1 SLOAD DUP6 SSTORE PUSH2 0x2D64 JUMP JUMPDEST DUP3 DUP1 ADD PUSH1 0x1 ADD DUP6 SSTORE DUP3 ISZERO PUSH2 0x2D64 JUMPI PUSH1 0x0 MSTORE PUSH1 0x20 PUSH1 0x0 KECCAK256 SWAP2 PUSH1 0x1F ADD PUSH1 0x20 SWAP1 DIV DUP3 ADD JUMPDEST DUP3 DUP2 GT ISZERO PUSH2 0x2D63 JUMPI DUP3 SLOAD DUP3 SSTORE SWAP2 PUSH1 0x1 ADD SWAP2 SWAP1 PUSH1 0x1 ADD SWAP1 PUSH2 0x2D48 JUMP JUMPDEST JUMPDEST POP SWAP1 POP PUSH2 0x2D71 SWAP2 SWAP1 PUSH2 0x2E07 JUMP JUMPDEST POP SWAP1 JUMP JUMPDEST DUP3 DUP1 SLOAD DUP3 DUP3 SSTORE SWAP1 PUSH1 0x0 MSTORE PUSH1 0x20 PUSH1 0x0 KECCAK256 SWAP1 DUP2 ADD SWAP3 DUP3 ISZERO PUSH2 0x2DB6 JUMPI PUSH1 0x0 MSTORE PUSH1 0x20 PUSH1 0x0 KECCAK256 SWAP2 DUP3 ADD JUMPDEST DUP3 DUP2 GT ISZERO PUSH2 0x2DB5 JUMPI DUP3 SLOAD DUP3 SSTORE SWAP2 PUSH1 0x1 ADD SWAP2 SWAP1 PUSH1 0x1 ADD SWAP1 PUSH2 0x2D9A JUMP JUMPDEST JUMPDEST POP SWAP1 POP PUSH2 0x2DC3 SWAP2 SWAP1 PUSH2 0x2E07 JUMP JUMPDEST POP SWAP1 JUMP JUMPDEST POP DUP1 SLOAD PUSH2 0x2DD3 SWAP1 PUSH2 0x3615 JUMP JUMPDEST PUSH1 0x0 DUP3 SSTORE DUP1 PUSH1 0x1F LT PUSH2 0x2DE5 JUMPI POP PUSH2 0x2E04 JUMP JUMPDEST PUSH1 0x1F ADD PUSH1 0x20 SWAP1 DIV SWAP1 PUSH1 0x0 MSTORE PUSH1 0x20 PUSH1 0x0 KECCAK256 SWAP1 DUP2 ADD SWAP1 PUSH2 0x2E03 SWAP2 SWAP1 PUSH2 0x2E07 JUMP JUMPDEST JUMPDEST POP JUMP JUMPDEST JUMPDEST DUP1 DUP3 GT ISZERO PUSH2 0x2E20 JUMPI PUSH1 0x0 DUP2 PUSH1 0x0 SWAP1 SSTORE POP PUSH1 0x1 ADD PUSH2 0x2E08 JUMP JUMPDEST POP SWAP1 JUMP JUMPDEST PUSH1 0x0 PUSH2 0x2E37 PUSH2 0x2E32 DUP5 PUSH2 0x3473 JUMP JUMPDEST PUSH2 0x344E JUMP JUMPDEST SWAP1 POP DUP3 DUP2 MSTORE PUSH1 0x20 DUP2 ADD DUP5 DUP5 DUP5 ADD GT ISZERO PUSH2 0x2E4F JUMPI PUSH1 0x0 DUP1 REVERT JUMPDEST PUSH2 0x2E5A DUP5 DUP3 DUP6 PUSH2 0x35D3 JUMP JUMPDEST POP SWAP4 SWAP3 POP POP POP JUMP JUMPDEST PUSH1 0x0 DUP2 CALLDATALOAD SWAP1 POP PUSH2 0x2E71 DUP2 PUSH2 0x3803 JUMP JUMPDEST SWAP3 SWAP2 POP POP JUMP JUMPDEST PUSH1 0x0 DUP3 PUSH1 0x1F DUP4 ADD SLT PUSH2 0x2E88 JUMPI PUSH1 0x0 DUP1 REVERT JUMPDEST DUP2 CALLDATALOAD PUSH2 0x2E98 DUP5 DUP3 PUSH1 0x20 DUP7 ADD PUSH2 0x2E24 JUMP JUMPDEST SWAP2 POP POP SWAP3 SWAP2 POP POP JUMP JUMPDEST PUSH1 0x0 DUP1 PUSH1 0x40 DUP4 DUP6 SUB SLT ISZERO PUSH2 0x2EB4 JUMPI PUSH1 0x0 DUP1 REVERT JUMPDEST PUSH1 0x0 PUSH2 0x2EC2 DUP6 DUP3 DUP7 ADD PUSH2 0x2E62 JUMP JUMPDEST SWAP3 POP POP PUSH1 0x20 DUP4 ADD CALLDATALOAD PUSH8 0xFFFFFFFFFFFFFFFF DUP2 GT ISZERO PUSH2 0x2EDF JUMPI PUSH1 0x0 DUP1 REVERT JUMPDEST PUSH2 0x2EEB DUP6 DUP3 DUP7 ADD PUSH2 0x2E77 JUMP JUMPDEST SWAP2 POP POP SWAP3 POP SWAP3 SWAP1 POP JUMP JUMPDEST PUSH1 0x0 PUSH1 0x20 DUP3 DUP5 SUB SLT ISZERO PUSH2 0x2F07 JUMPI PUSH1 0x0 DUP1 REVERT JUMPDEST PUSH1 0x0 DUP3 ADD CALLDATALOAD PUSH8 0xFFFFFFFFFFFFFFFF DUP2 GT ISZERO PUSH2 0x2F21 JUMPI PUSH1 0x0 DUP1 REVERT JUMPDEST PUSH2 0x2F2D DUP5 DUP3 DUP6 ADD PUSH2 0x2E77 JUMP JUMPDEST SWAP2 POP POP SWAP3 SWAP2 POP POP JUMP JUMPDEST PUSH1 0x0 DUP1 PUSH1 0x0 PUSH1 0x60 DUP5 DUP7 SUB SLT ISZERO PUSH2 0x2F4B JUMPI PUSH1 0x0 DUP1 REVERT JUMPDEST PUSH1 0x0 DUP5 ADD CALLDATALOAD PUSH8 0xFFFFFFFFFFFFFFFF DUP2 GT ISZERO PUSH2 0x2F65 JUMPI PUSH1 0x0 DUP1 REVERT JUMPDEST PUSH2 0x2F71 DUP7 DUP3 DUP8 ADD PUSH2 0x2E77 JUMP JUMPDEST SWAP4 POP POP PUSH1 0x20 DUP5 ADD CALLDATALOAD PUSH8 0xFFFFFFFFFFFFFFFF DUP2 GT ISZERO PUSH2 0x2F8E JUMPI PUSH1 0x0 DUP1 REVERT JUMPDEST PUSH2 0x2F9A DUP7 DUP3 DUP8 ADD PUSH2 0x2E77 JUMP JUMPDEST SWAP3 POP POP PUSH1 0x40 DUP5 ADD CALLDATALOAD PUSH8 0xFFFFFFFFFFFFFFFF DUP2 GT ISZERO PUSH2 0x2FB7 JUMPI PUSH1 0x0 DUP1 REVERT JUMPDEST PUSH2 0x2FC3 DUP7 DUP3 DUP8 ADD PUSH2 0x2E77 JUMP JUMPDEST SWAP2 POP POP SWAP3 POP SWAP3 POP SWAP3 JUMP JUMPDEST PUSH1 0x0 PUSH2 0x2FD9 DUP4 DUP4 PUSH2 0x2FF9 JUMP JUMPDEST PUSH1 0x20 DUP4 ADD SWAP1 POP SWAP3 SWAP2 POP POP JUMP JUMPDEST PUSH1 0x0 PUSH2 0x2FF1 DUP4 DUP4 PUSH2 0x3298 JUMP JUMPDEST SWAP1 POP SWAP3 SWAP2 POP POP JUMP JUMPDEST PUSH2 0x3002 DUP2 PUSH2 0x3597 JUMP JUMPDEST DUP3 MSTORE POP POP JUMP JUMPDEST PUSH2 0x3011 DUP2 PUSH2 0x3597 JUMP JUMPDEST DUP3 MSTORE POP POP JUMP JUMPDEST PUSH1 0x0 PUSH2 0x3022 DUP3 PUSH2 0x34D9 JUMP JUMPDEST PUSH2 0x302C DUP2 DUP6 PUSH2 0x3514 JUMP JUMPDEST SWAP4 POP PUSH2 0x3037 DUP4 PUSH2 0x34A4 JUMP JUMPDEST DUP1 PUSH1 0x0 JUMPDEST DUP4 DUP2 LT ISZERO PUSH2 0x3068 JUMPI DUP2 MLOAD PUSH2 0x304F DUP9 DUP3 PUSH2 0x2FCD JUMP JUMPDEST SWAP8 POP PUSH2 0x305A DUP4 PUSH2 0x34FA JUMP JUMPDEST SWAP3 POP POP PUSH1 0x1 DUP2 ADD SWAP1 POP PUSH2 0x303B JUMP JUMPDEST POP DUP6 SWAP4 POP POP POP POP SWAP3 SWAP2 POP POP JUMP JUMPDEST PUSH1 0x0 PUSH2 0x3080 DUP3 PUSH2 0x34E4 JUMP JUMPDEST PUSH2 0x308A DUP2 DUP6 PUSH2 0x3525 JUMP JUMPDEST SWAP4 POP DUP4 PUSH1 0x20 DUP3 MUL DUP6 ADD PUSH2 0x309C DUP6 PUSH2 0x34B4 JUMP JUMPDEST DUP1 PUSH1 0x0 JUMPDEST DUP6 DUP2 LT ISZERO PUSH2 0x30D8 JUMPI DUP5 DUP5 SUB DUP10 MSTORE DUP2 MLOAD PUSH2 0x30B9 DUP6 DUP3 PUSH2 0x2FE5 JUMP JUMPDEST SWAP5 POP PUSH2 0x30C4 DUP4 PUSH2 0x3507 JUMP JUMPDEST SWAP3 POP PUSH1 0x20 DUP11 ADD SWAP10 POP POP PUSH1 0x1 DUP2 ADD SWAP1 POP PUSH2 0x30A0 JUMP JUMPDEST POP DUP3 SWAP8 POP DUP8 SWAP6 POP POP POP POP POP POP SWAP3 SWAP2 POP POP JUMP JUMPDEST PUSH1 0x0 PUSH2 0x30F5 DUP3 PUSH2 0x34EF JUMP JUMPDEST PUSH2 0x30FF DUP2 DUP6 PUSH2 0x3536 JUMP JUMPDEST SWAP4 POP PUSH2 0x310F DUP2 DUP6 PUSH1 0x20 DUP7 ADD PUSH2 0x35E2 JUMP JUMPDEST PUSH2 0x3118 DUP2 PUSH2 0x374E JUMP JUMPDEST DUP5 ADD SWAP2 POP POP SWAP3 SWAP2 POP POP JUMP JUMPDEST PUSH1 0x0 PUSH2 0x312E DUP3 PUSH2 0x34EF JUMP JUMPDEST PUSH2 0x3138 DUP2 DUP6 PUSH2 0x3547 JUMP JUMPDEST SWAP4 POP PUSH2 0x3148 DUP2 DUP6 PUSH1 0x20 DUP7 ADD PUSH2 0x35E2 JUMP JUMPDEST PUSH2 0x3151 DUP2 PUSH2 0x374E JUMP JUMPDEST DUP5 ADD SWAP2 POP POP SWAP3 SWAP2 POP POP JUMP JUMPDEST PUSH1 0x0 PUSH2 0x3167 DUP3 PUSH2 0x34EF JUMP JUMPDEST PUSH2 0x3171 DUP2 DUP6 PUSH2 0x3558 JUMP JUMPDEST SWAP4 POP PUSH2 0x3181 DUP2 DUP6 PUSH1 0x20 DUP7 ADD PUSH2 0x35E2 JUMP JUMPDEST DUP1 DUP5 ADD SWAP2 POP POP SWAP3 SWAP2 POP POP JUMP JUMPDEST PUSH1 0x0 DUP2 SLOAD PUSH2 0x319A DUP2 PUSH2 0x3615 JUMP JUMPDEST PUSH2 0x31A4 DUP2 DUP7 PUSH2 0x3558 JUMP JUMPDEST SWAP5 POP PUSH1 0x1 DUP3 AND PUSH1 0x0 DUP2 EQ PUSH2 0x31BF JUMPI PUSH1 0x1 DUP2 EQ PUSH2 0x31D0 JUMPI PUSH2 0x3203 JUMP JUMPDEST PUSH1 0xFF NOT DUP4 AND DUP7 MSTORE DUP2 DUP7 ADD SWAP4 POP PUSH2 0x3203 JUMP JUMPDEST PUSH2 0x31D9 DUP6 PUSH2 0x34C4 JUMP JUMPDEST PUSH1 0x0 JUMPDEST DUP4 DUP2 LT ISZERO PUSH2 0x31FB JUMPI DUP2 SLOAD DUP2 DUP10 ADD MSTORE PUSH1 0x1 DUP3 ADD SWAP2 POP PUSH1 0x20 DUP2 ADD SWAP1 POP PUSH2 0x31DC JUMP JUMPDEST DUP4 DUP9 ADD SWAP6 POP POP POP JUMPDEST POP POP POP SWAP3 SWAP2 POP POP JUMP JUMPDEST PUSH1 0x0 PUSH2 0x3219 PUSH1 0x1F DUP4 PUSH2 0x3547 JUMP JUMPDEST SWAP2 POP PUSH2 0x3224 DUP3 PUSH2 0x375F JUMP JUMPDEST PUSH1 0x20 DUP3 ADD SWAP1 POP SWAP2 SWAP1 POP JUMP JUMPDEST PUSH1 0x0 PUSH2 0x323C PUSH1 0x18 DUP4 PUSH2 0x3547 JUMP JUMPDEST SWAP2 POP PUSH2 0x3247 DUP3 PUSH2 0x3788 JUMP JUMPDEST PUSH1 0x20 DUP3 ADD SWAP1 POP SWAP2 SWAP1 POP JUMP JUMPDEST PUSH1 0x0 PUSH2 0x325F PUSH1 0x1D DUP4 PUSH2 0x3547 JUMP JUMPDEST SWAP2 POP PUSH2 0x326A DUP3 PUSH2 0x37B1 JUMP JUMPDEST PUSH1 0x20 DUP3 ADD SWAP1 POP SWAP2 SWAP1 POP JUMP JUMPDEST PUSH1 0x0 PUSH2 0x3282 PUSH1 0x13 DUP4 PUSH2 0x3547 JUMP JUMPDEST SWAP2 POP PUSH2 0x328D DUP3 PUSH2 0x37DA JUMP JUMPDEST PUSH1 0x20 DUP3 ADD SWAP1 POP SWAP2 SWAP1 POP JUMP JUMPDEST PUSH1 0x0 PUSH1 0x80 DUP4 ADD PUSH1 0x0 DUP4 ADD MLOAD DUP5 DUP3 SUB PUSH1 0x0 DUP7 ADD MSTORE PUSH2 0x32B5 DUP3 DUP3 PUSH2 0x30EA JUMP JUMPDEST SWAP2 POP POP PUSH1 0x20 DUP4 ADD MLOAD PUSH2 0x32CA PUSH1 0x20 DUP7 ADD DUP3 PUSH2 0x2FF9 JUMP JUMPDEST POP PUSH1 0x40 DUP4 ADD MLOAD DUP5 DUP3 SUB PUSH1 0x40 DUP7 ADD MSTORE PUSH2 0x32E2 DUP3 DUP3 PUSH2 0x30EA JUMP JUMPDEST SWAP2 POP POP PUSH1 0x60 DUP4 ADD MLOAD DUP5 DUP3 SUB PUSH1 0x60 DUP7 ADD MSTORE PUSH2 0x32FC DUP3 DUP3 PUSH2 0x30EA JUMP JUMPDEST SWAP2 POP POP DUP1 SWAP2 POP POP SWAP3 SWAP2 POP POP JUMP JUMPDEST PUSH1 0x0 PUSH2 0x3315 DUP3 DUP5 PUSH2 0x315C JUMP JUMPDEST SWAP2 POP DUP2 SWAP1 POP SWAP3 SWAP2 POP POP JUMP JUMPDEST PUSH1 0x0 PUSH2 0x332C DUP3 DUP5 PUSH2 0x318D JUMP JUMPDEST SWAP2 POP DUP2 SWAP1 POP SWAP3 SWAP2 POP POP JUMP JUMPDEST PUSH1 0x0 PUSH1 0x40 DUP3 ADD SWAP1 POP PUSH2 0x334C PUSH1 0x0 DUP4 ADD DUP6 PUSH2 0x3008 JUMP JUMPDEST DUP2 DUP2 SUB PUSH1 0x20 DUP4 ADD MSTORE PUSH2 0x335E DUP2 DUP5 PUSH2 0x3123 JUMP JUMPDEST SWAP1 POP SWAP4 SWAP3 POP POP POP JUMP JUMPDEST PUSH1 0x0 PUSH1 0x60 DUP3 ADD SWAP1 POP PUSH2 0x337C PUSH1 0x0 DUP4 ADD DUP7 PUSH2 0x3008 JUMP JUMPDEST DUP2 DUP2 SUB PUSH1 0x20 DUP4 ADD MSTORE PUSH2 0x338E DUP2 DUP6 PUSH2 0x3123 JUMP JUMPDEST SWAP1 POP DUP2 DUP2 SUB PUSH1 0x40 DUP4 ADD MSTORE PUSH2 0x33A2 DUP2 DUP5 PUSH2 0x3017 JUMP JUMPDEST SWAP1 POP SWAP5 SWAP4 POP POP POP POP JUMP JUMPDEST PUSH1 0x0 PUSH1 0x20 DUP3 ADD SWAP1 POP DUP2 DUP2 SUB PUSH1 0x0 DUP4 ADD MSTORE PUSH2 0x33C6 DUP2 DUP5 PUSH2 0x3075 JUMP JUMPDEST SWAP1 POP SWAP3 SWAP2 POP POP JUMP JUMPDEST PUSH1 0x0 PUSH1 0x20 DUP3 ADD SWAP1 POP DUP2 DUP2 SUB PUSH1 0x0 DUP4 ADD MSTORE PUSH2 0x33E7 DUP2 PUSH2 0x320C JUMP JUMPDEST SWAP1 POP SWAP2 SWAP1 POP JUMP JUMPDEST PUSH1 0x0 PUSH1 0x20 DUP3 ADD SWAP1 POP DUP2 DUP2 SUB PUSH1 0x0 DUP4 ADD MSTORE PUSH2 0x3407 DUP2 PUSH2 0x322F JUMP JUMPDEST SWAP1 POP SWAP2 SWAP1 POP JUMP JUMPDEST PUSH1 0x0 PUSH1 0x20 DUP3 ADD SWAP1 POP DUP2 DUP2 SUB PUSH1 0x0 DUP4 ADD MSTORE PUSH2 0x3427 DUP2 PUSH2 0x3252 JUMP JUMPDEST SWAP1 POP SWAP2 SWAP1 POP JUMP JUMPDEST PUSH1 0x0 PUSH1 0x20 DUP3 ADD SWAP1 POP DUP2 DUP2 SUB PUSH1 0x0 DUP4 ADD MSTORE PUSH2 0x3447 DUP2 PUSH2 0x3275 JUMP JUMPDEST SWAP1 POP SWAP2 SWAP1 POP JUMP JUMPDEST PUSH1 0x0 PUSH2 0x3458 PUSH2 0x3469 JUMP JUMPDEST SWAP1 POP PUSH2 0x3464 DUP3 DUP3 PUSH2 0x3647 JUMP JUMPDEST SWAP2 SWAP1 POP JUMP JUMPDEST PUSH1 0x0 PUSH1 0x40 MLOAD SWAP1 POP SWAP1 JUMP JUMPDEST PUSH1 0x0 PUSH8 0xFFFFFFFFFFFFFFFF DUP3 GT ISZERO PUSH2 0x348E JUMPI PUSH2 0x348D PUSH2 0x371F JUMP JUMPDEST JUMPDEST PUSH2 0x3497 DUP3 PUSH2 0x374E JUMP JUMPDEST SWAP1 POP PUSH1 0x20 DUP2 ADD SWAP1 POP SWAP2 SWAP1 POP JUMP JUMPDEST PUSH1 0x0 DUP2 SWAP1 POP PUSH1 0x20 DUP3 ADD SWAP1 POP SWAP2 SWAP1 POP JUMP JUMPDEST PUSH1 0x0 DUP2 SWAP1 POP PUSH1 0x20 DUP3 ADD SWAP1 POP SWAP2 SWAP1 POP JUMP JUMPDEST PUSH1 0x0 DUP2 SWAP1 POP DUP2 PUSH1 0x0 MSTORE PUSH1 0x20 PUSH1 0x0 KECCAK256 SWAP1 POP SWAP2 SWAP1 POP JUMP JUMPDEST PUSH1 0x0 DUP2 MLOAD SWAP1 POP SWAP2 SWAP1 POP JUMP JUMPDEST PUSH1 0x0 DUP2 MLOAD SWAP1 POP SWAP2 SWAP1 POP JUMP JUMPDEST PUSH1 0x0 DUP2 MLOAD SWAP1 POP SWAP2 SWAP1 POP JUMP JUMPDEST PUSH1 0x0 PUSH1 0x20 DUP3 ADD SWAP1 POP SWAP2 SWAP1 POP JUMP JUMPDEST PUSH1 0x0 PUSH1 0x20 DUP3 ADD SWAP1 POP SWAP2 SWAP1 POP JUMP JUMPDEST PUSH1 0x0 DUP3 DUP3 MSTORE PUSH1 0x20 DUP3 ADD SWAP1 POP SWAP3 SWAP2 POP POP JUMP JUMPDEST PUSH1 0x0 DUP3 DUP3 MSTORE PUSH1 0x20 DUP3 ADD SWAP1 POP SWAP3 SWAP2 POP POP JUMP JUMPDEST PUSH1 0x0 DUP3 DUP3 MSTORE PUSH1 0x20 DUP3 ADD SWAP1 POP SWAP3 SWAP2 POP POP JUMP JUMPDEST PUSH1 0x0 DUP3 DUP3 MSTORE PUSH1 0x20 DUP3 ADD SWAP1 POP SWAP3 SWAP2 POP POP JUMP JUMPDEST PUSH1 0x0 DUP2 SWAP1 POP SWAP3 SWAP2 POP POP JUMP JUMPDEST PUSH1 0x0 PUSH2 0x356E DUP3 PUSH2 0x35C9 JUMP JUMPDEST SWAP2 POP PUSH2 0x3579 DUP4 PUSH2 0x35C9 JUMP JUMPDEST SWAP3 POP DUP3 DUP3 LT ISZERO PUSH2 0x358C JUMPI PUSH2 0x358B PUSH2 0x36C1 JUMP JUMPDEST JUMPDEST DUP3 DUP3 SUB SWAP1 POP SWAP3 SWAP2 POP POP JUMP JUMPDEST PUSH1 0x0 PUSH2 0x35A2 DUP3 PUSH2 0x35A9 JUMP JUMPDEST SWAP1 POP SWAP2 SWAP1 POP JUMP JUMPDEST PUSH1 0x0 PUSH20 0xFFFFFFFFFFFFFFFFFFFFFFFFFFFFFFFFFFFFFFFF DUP3 AND SWAP1 POP SWAP2 SWAP1 POP JUMP JUMPDEST PUSH1 0x0 DUP2 SWAP1 POP SWAP2 SWAP1 POP JUMP JUMPDEST DUP3 DUP2 DUP4 CALLDATACOPY PUSH1 0x0 DUP4 DUP4 ADD MSTORE POP POP POP JUMP JUMPDEST PUSH1 0x0 JUMPDEST DUP4 DUP2 LT ISZERO PUSH2 0x3600 JUMPI DUP1 DUP3 ADD MLOAD DUP2 DUP5 ADD MSTORE PUSH1 0x20 DUP2 ADD SWAP1 POP PUSH2 0x35E5 JUMP JUMPDEST DUP4 DUP2 GT ISZERO PUSH2 0x360F JUMPI PUSH1 0x0 DUP5 DUP5 ADD MSTORE JUMPDEST POP POP POP POP JUMP JUMPDEST PUSH1 0x0 PUSH1 0x2 DUP3 DIV SWAP1 POP PUSH1 0x1 DUP3 AND DUP1 PUSH2 0x362D JUMPI PUSH1 0x7F DUP3 AND SWAP2 POP JUMPDEST PUSH1 0x20 DUP3 LT DUP2 EQ ISZERO PUSH2 0x3641 JUMPI PUSH2 0x3640 PUSH2 0x36F0 JUMP JUMPDEST JUMPDEST POP SWAP2 SWAP1 POP JUMP JUMPDEST PUSH2 0x3650 DUP3 PUSH2 0x374E JUMP JUMPDEST DUP2 ADD DUP2 DUP2 LT PUSH8 0xFFFFFFFFFFFFFFFF DUP3 GT OR ISZERO PUSH2 0x366F JUMPI PUSH2 0x366E PUSH2 0x371F JUMP JUMPDEST JUMPDEST DUP1 PUSH1 0x40 MSTORE POP POP POP JUMP JUMPDEST PUSH1 0x0 PUSH2 0x3683 DUP3 PUSH2 0x35C9 JUMP JUMPDEST SWAP2 POP PUSH32 0xFFFFFFFFFFFFFFFFFFFFFFFFFFFFFFFFFFFFFFFFFFFFFFFFFFFFFFFFFFFFFFFF DUP3 EQ ISZERO PUSH2 0x36B6 JUMPI PUSH2 0x36B5 PUSH2 0x36C1 JUMP JUMPDEST JUMPDEST PUSH1 0x1 DUP3 ADD SWAP1 POP SWAP2 SWAP1 POP JUMP JUMPDEST PUSH32 0x4E487B7100000000000000000000000000000000000000000000000000000000 PUSH1 0x0 MSTORE PUSH1 0x11 PUSH1 0x4 MSTORE PUSH1 0x24 PUSH1 0x0 REVERT JUMPDEST PUSH32 0x4E487B7100000000000000000000000000000000000000000000000000000000 PUSH1 0x0 MSTORE PUSH1 0x22 PUSH1 0x4 MSTORE PUSH1 0x24 PUSH1 0x0 REVERT JUMPDEST PUSH32 0x4E487B7100000000000000000000000000000000000000000000000000000000 PUSH1 0x0 MSTORE PUSH1 0x41 PUSH1 0x4 MSTORE PUSH1 0x24 PUSH1 0x0 REVERT JUMPDEST PUSH1 0x0 PUSH1 0x1F NOT PUSH1 0x1F DUP4 ADD AND SWAP1 POP SWAP2 SWAP1 POP JUMP JUMPDEST PUSH32 0x446F63746F7220697320616C7265616479206E6F7420696E2061636365737300 PUSH1 0x0 DUP3 ADD MSTORE POP JUMP JUMPDEST PUSH32 0x616C726561647920676976656E20746865206163636573730000000000000000 PUSH1 0x0 DUP3 ADD MSTORE POP JUMP JUMPDEST PUSH32 0x46696C6520697320616C7265616479206F7574206F6620616363657373000000 PUSH1 0x0 DUP3 ADD MSTORE POP JUMP JUMPDEST PUSH32 0x5468657265206973206E6F20656C656D656E7400000000000000000000000000 PUSH1 0x0 DUP3 ADD MSTORE POP JUMP JUMPDEST PUSH2 0x380C DUP2 PUSH2 0x3597 JUMP JUMPDEST DUP2 EQ PUSH2 0x3817 JUMPI PUSH1 0x0 DUP1 REVERT JUMPDEST POP JUMP INVALID LOG2 PUSH5 0x6970667358 0x22 SLT KECCAK256 LOG0 0xE2 SAR SWAP7 0xFC 0xA7 GASLIMIT JUMPDEST PUSH13 0xB8BCCA109EC866C8119DEAD6E7 0xDD 0xAB 0xFB 0xED 0xEE 0x4A 0xF8 TIMESTAMP 0x2D MSIZE PUSH5 0x736F6C6343 STOP ADDMOD SUB STOP CALLER "},"gasEstimates":{"creation":{"codeDepositCost":"2883200","executionCost":"23160","totalCost":"2906360"},"external":{"create_doctor(string)":"infinite","create_file(string,string,string)":"infinite","create_patient(string)":"infinite","denied_FileAccess(address,string)":"infinite","getAccessFiles()":"infinite","getDoctorInfo()":"infinite","getFiles()":"infinite","getPatientInfo()":"infinite","grant_FileAccess(address,string)":"infinite"},"internal":{"find_doctor_in_patient(address)":"infinite","find_file_in_doctor(address,string memory)":"infinite","find_file_in_patient(string memory)":"infinite"}},"methodIdentifiers":{"create_doctor(string)":"32ec9375","create_file(string,string,string)":"8d0981c2","create_patient(string)":"ab519d1f","denied_FileAccess(address,string)":"d1895035","getAccessFiles()":"8be9312d","getDoctorInfo()":"b380f5c6","getFiles()":"2da96d73","getPatientInfo()":"326df664","grant_FileAccess(address,string)":"cf5ce494"}},"storageLayout":{"storage":[{"astId":26,"contract":"ReMedi:ReMedi","label":"MAX_INT","offset":0,"slot":"0","type":"t_uint256"},{"astId":32,"contract":"ReMedi:ReMedi","label":"patientToFiles","offset":0,"slot":"1","type":"t_mapping(t_address,t_array(t_struct(File)10_storage)dyn_storage)"},{"astId":38,"contract":"ReMedi:ReMedi","label":"access_files","offset":0,"slot":"2","type":"t_mapping(t_address,t_array(t_struct(File)10_storage)dyn_storage)"},{"astId":43,"contract":"ReMedi:ReMedi","label":"patients","offset":0,"slot":"3","type":"t_mapping(t_address,t_struct(Patient)18_storage)"},{"astId":48,"contract":"ReMedi:ReMedi","label":"doctors","offset":0,"slot":"4","type":"t_mapping(t_address,t_struct(Doctor)23_storage)"}],"types":{"t_address":{"encoding":"inplace","label":"address","numberOfBytes":"20"},"t_array(t_address)dyn_storage":{"base":"t_address","encoding":"dynamic_array","label":"address[]","numberOfBytes":"32"},"t_array(t_struct(File)10_storage)dyn_storage":{"base":"t_struct(File)10_storage","encoding":"dynamic_array","label":"struct ReMedi.File[]","numberOfBytes":"32"},"t_mapping(t_address,t_array(t_struct(File)10_storage)dyn_storage)":{"encoding":"mapping","key":"t_address","label":"mapping(address => struct ReMedi.File[])","numberOfBytes":"32","value":"t_array(t_struct(File)10_storage)dyn_storage"},"t_mapping(t_address,t_struct(Doctor)23_storage)":{"encoding":"mapping","key":"t_address","label":"mapping(address => struct ReMedi.Doctor)","numberOfBytes":"32","value":"t_struct(Doctor)23_storage"},"t_mapping(t_address,t_struct(Patient)18_storage)":{"encoding":"mapping","key":"t_address","label":"mapping(address => struct ReMedi.Patient)","numberOfBytes":"32","value":"t_struct(Patient)18_storage"},"t_string_storage":{"encoding":"bytes","label":"string","numberOfBytes":"32"},"t_struct(Doctor)23_storage":{"encoding":"inplace","label":"struct ReMedi.Doctor","members":[{"astId":20,"contract":"ReMedi:ReMedi","label":"Doctor_id","offset":0,"slot":"0","type":"t_address"},{"astId":22,"contract":"ReMedi:ReMedi","label":"Doctor_name","offset":0,"slot":"1","type":"t_string_storage"}],"numberOfBytes":"64"},"t_struct(File)10_storage":{"encoding":"inplace","label":"struct ReMedi.File","members":[{"astId":3,"contract":"ReMedi:ReMedi","label":"File_id","offset":0,"slot":"0","type":"t_string_storage"},{"astId":5,"contract":"ReMedi:ReMedi","label":"Patient_id","offset":0,"slot":"1","type":"t_address"},{"astId":7,"contract":"ReMedi:ReMedi","label":"File_name","offset":0,"slot":"2","type":"t_string_storage"},{"astId":9,"contract":"ReMedi:ReMedi","label":"Description","offset":0,"slot":"3","type":"t_string_storage"}],"numberOfBytes":"128"},"t_struct(Patient)18_storage":{"encoding":"inplace","label":"struct ReMedi.Patient","members":[{"astId":12,"contract":"ReMedi:ReMedi","label":"Patient_id","offset":0,"slot":"0","type":"t_address"},{"astId":14,"contract":"ReMedi:ReMedi","label":"Patient_name","offset":0,"slot":"1","type":"t_string_storage"},{"astId":17,"contract":"ReMedi:ReMedi","label":"Access_doctors","offset":0,"slot":"2","type":"t_array(t_address)dyn_storage"}],"numberOfBytes":"96"},"t_uint256":{"encoding":"inplace","label":"uint256","numberOfBytes":"32"}}},"userdoc":{"kind":"user","methods":{},"version":1}}